S0160000746D705F73696E676C65636F72652E7372656333
S3150000000097010100938101EDB762000073A00230F1
S3150000001073103000970200009382C20D7390523025
S31500000020732440F163100402970200009382820D4C
S3150000003073905230EF10C033970200009382825EB5
S31500000040E780020013132400970200009382420403
S31500000050B302530003A302000F00F00FE31C03FEDC
S31500000060138E014C93134400B30E7E00138F8E0043
S3150000007083BF0E0003310F009702000093828208AF
S3150000008073905230732540F1E7800F007300100023
S31500000090730010007300100073001000730010004E
S315000000A0730010007300100073001000730010003E
S315000000B0730010007300100073001000730010002E
S315000000C0730010007300100073001000130000008E
S315000000D01313250097030000938383FBB302730079
S315000000E00F00500F2FA002081305000067800000C4
S315000000F0730010001300000013000000130000003E
S3150000010073202034130181DE23301100233831009F
S31500000110233C41002330510223346102233871020B
S31500000120233C8102233091042334A1042338B104F3
S31500000130233CC1042330D1062334E1062338F106DB
S31500000140233C0107233011092334210923383109BF
S31500000150233C41092330510B2334610B2338710BA7
S31500000160233C810B2330910D2334A10D2338B10D8F
S31500000170233CC10D2330D10F2334E10F2338F10F77
S3150000018073250030F325103473262034233CA10E4A
S315000001902330B1102334C110F3223000232851102C
S315000001A0273C01102730111227342112273831122B
S315000001B0273C411227305114273461142738711413
S315000001C0273C8114273091162734A1162738B116FB
S315000001D0273CC1162730D1182734E1182738F118E3
S315000001E0273C01192730111B2734211B2738311BC7
S315000001F0273C411B2730511D2734611D2738711DAF
S31500000200273C811D2730911F2734A11F2738B11F96
S31500000210273CC11F2730D1212734E1212738F1217E
S3150000022063560600EF1000246F00C000930601001D
S31500000230EF10C022833001008331010103328101B6
S3150000024083320102033381028333010303348103C2
S3150000025083340104033581048335010503368105A2
S315000002608336010603378106833701070338810782
S31500000270833801080339810883390109033A810962
S31500000280833A010A033B810A833B010B033C810B42
S31500000290833C010C033D810C833D010D033E810D22
S315000002A0833E010E0730811187300112073181121A
S315000002B08731011307328113873201140733811402
S315000002C087330115073481158734011607358116E2
S315000002D087350117073681178736011807378118C2
S315000002E087370119073881198738011A0739811AA2
S315000002F08739011B073A811B873A011C073B811C82
S31500000300873B011D073C811D873C011E073D811E61
S31500000310873D011F073E811F873E0120073F812041
S31500000320873F0121832E011173903E00033F810F09
S31500000330833F011073100F3073901F34033F810EFB
S31500000340833F010F1301812173002030000000005C
S31500000350B7F70000938787E603B3070083B88700E3
S3150000036003B8070183B6870203B7070383B587017E
S3150000037003B6070283B7870337F50000130101F5BB
S31500000380130505D22334110A2330610423341105E1
S31500000390233801052334D1062338E1062330810AA8
S315000003A0233C91082338210923343109233CB10425
S315000003B02330C106233CF106EF2040271305010434
S315000003C0EF00803A03B4811E930500001305010473
S315000003D013060400EF0040401306040093051000C6
S315000003E013050104EF00403F1306040093052000A7
S315000003F013050104EF00403E9305010413050100B7
S31500000400EF00C04493050100130640011305810265
S31500000410EF10506113058102EF00103637F500002A
S31500000420130585D5EF20802013050104EF00C033A6
S3150000043083B4011F9305000013050104138604000D
S31500000440EF0080391386040093051000130501049C
S31500000450EF0080389305010413050100EF00003F0B
S31500000460930501001306400113058102EF10905B0E
S3150000047013058102EF00503037F50000130585D9CA
S31500000480EF20C01A13050104EF00002E03B9811FE7
S31500000490930510001305010413060900EF00C0338D
S315000004A09305010413050100EF00403A930501008E
S315000004B01306400113058102EF10D0561305810281
S315000004C0EF00902B37F50000130585DDEF200016B1
S315000004D013050104EF00402983B9012093050000AC
S315000004E01305010413860900EF00002F03B68120CF
S315000004F09305100013050104EF00002E1386090072
S315000005009305200013050104EF00002D9305010457
S3150000051013050100EF008033930501001306400127
S3150000052013058102EF10105013058102EF00D0244D
S3150000053037F50000130505E1EF20400F130501060E
S31500000540EF00802213060400930500001305010640
S31500000550EF00802803B6012193051000130501065C
S31500000560EF0080271386040093052000130501067B
S31500000570EF008026130604009305300013050106DC
S31500000580EF008025130604009305400013050106BD
S31500000590EF0080241306040093055000130501069E
S315000005A0EF0080231306040093056000130501067F
S315000005B0EF0080221306090093057000130501065B
S315000005C0EF00802113060400930580001305010641
S315000005D0EF0080209305010613050100EF000027B8
S315000005E0930501001306400113058102EF109043A5
S315000005F013058102EF0050188330810A0334010A83
S315000006008334810903390109833981081305000000
S315000006101301010B678000000000000000000000CD
S31500000620EF0010551304010093020000639E0200C0
S315000006301385012E170601001306C609B306A64048
S3150000064093D53600EF00D0539382014323B0820046
S31500000650EF001055EF00D051EF00907FEF1000052E
S31500000660EF00906C17250000130585ACEF10D0271E
S31500000670EF109031EF00D04F9382812E03A5020038
S315000006809382012B83B5020013060000EFF05FCCC6
S31500000690EF10D026730010000000000000000000DC
S315000006A09387811E1387811E630AF7009307000054
S315000006B0638607001385811E678007006780000038
S315000006C09387811E9385811EB385F54093D7354068
S315000006D093D5F503B385F50093D51540638A0500D8
S315000006E093070000638607001385811E6780070055
S315000006F067800000130101FF2330810083C7814317
S315000007002334110063920702EFF09FF9930700006C
S31500000710638807001385812D97000000E70000001D
S3150000072093071000238CF1428330810003340100CB
S31500000730130101016780000093070000638407022C
S31500000740130101FF938501441385812D2334110084
S3150000075097000000E70000008330810013010101CB
S315000007606FF01FF66FF0DFF5033785009307F00093
S3150000077093061000233CF70E8337870993F7F7019A
S31500000780A30CF5006398D7028337050183468501DC
S31500000790370604001306C6FF93972700B3F7C70072
S315000007A093F63600B3E7D7002330F70013050000B1
S315000007B06780000037F50000130101FF130585BAB5
S315000007C023341100EF10906683308100130510006A
S315000007D013010101678000008347850163940702C6
S315000007E09307100063E8B7028337850093851500E9
S315000007F093953500B385B70023B0C50013050000F7
S3150000080067800000130710006398E7029307200033
S31500000810E3FCB7FC37F50000130101FF130505BC27
S3150000082023341100EF10906083308100130510000F
S31500000830130101016780000013072000E396E7FA21
S3150000084093076000E3E8B7FC6FF01FFA130101FAA3
S315000008509307A0002334F10003B785002338010075
S31500000860233C110493060500233C010083378100D5
S315000008709387A70093973700B307F70083B707005E
S315000008802338F1008337010193F71700233CF10069
S3150000089083378101E38C07FC83C78501233C010272
S315000008A023300104230CF1020336810323240104BF
S315000008B02330C10223340102232801026390070C6E
S315000008C0833781001306200093973700B307F7009C
S315000008D083B7070093F7F70FA305F102833781006B
S315000008E093871700939737003307F700833707007E
S315000008F093F7F70F2306F1028337010193D7170009
S3150000090093F71700639807000346B1021376F60FB4
S315000009103336C0002301C1028337010113072000CB
S3150000092093D7270093F71700639807000347C10280
S315000009301377F70F3337E000A301E1028347210263
S315000009401307100093F7F70F6388E7008347310218
S3150000095093F7F70F6396E70093071000A300F102E1
S31500000960930501021306400113850600EF10900B54
S31500000970833081051301010667800000130610000D
S315000009806382C72E130620006382C73C130630001D
S31500000990E398C7FC03368100930520001316360042
S315000009A03306C700033606001376F60FA305C10209
S315000009B00336810013061600131636003306C700E9
S315000009C0033606001376F60F2306C10203368100AE
S315000009D013062600131636003306C7000336060034
S315000009E01376F60FA306C1020336810013063600FE
S315000009F0131636003306C700033606001376F60FC5
S31500000A002307C1020336810013064600131636007B
S31500000A103306C700033606001376F60FA307C10296
S31500000A200336810013065600131636003306C70038
S31500000A30033606001376F60F2308C102033681003B
S31500000A4013066600131636003306C7000336060083
S31500000A501376F60FA308C10203368100130676004B
S31500000A60131636003306C700033606001376F60F54
S31500000A702309C102033681001306860013163600C9
S31500000A803307C700033707001377F70FA309E102FF
S31500000A900337010113571700137717006318070070
S31500000AA08345B10293F5F50FB3B5B7002301B10243
S31500000AB0833701011307200093D7270093F7170008
S31500000AC0639A07000347C102930730001377F70FB5
S31500000AD033B7E700A301E1028337010113072000C2
S31500000AE093D7370093F71700639A07000347D1029D
S31500000AF0930730001377F70F33B7E7002302E102BD
S31500000B00833701011307200093D7470093F7170097
S31500000B10639A07000347E102930730001377F70F44
S31500000B2033B7E700A302E102833701011307200070
S31500000B3093D7570093F71700639A07000347F1020C
S31500000B40930730001377F70F33B7E7002303E1026B
S31500000B50833701011307200093D7670093F7170027
S31500000B60639A070003470103930730001377F70FD3
S31500000B7033B7E700A303E10283370101130720001F
S31500000B8093D7770093F71700639A0700034711037B
S31500000B90930730001377F70F33B7E7002304E1021A
S31500000BA0833701011307200093D7870093F71700B7
S31500000BB0639A070003472103930730001377F70F63
S31500000BC033B7E700A304E1028337010113072000CE
S31500000BD093D7970093F71700639A070003473103EB
S31500000BE0930730001377F70F33B7E7002305E102C9
S31500000BF0834721021307100093F7F70FE38EE7D41C
S31500000C008347310293F7F70FE388E7D4834741021E
S31500000C1093F7F70FE382E7D48347510293F7F70F71
S31500000C20E38CE7D28347610293F7F70FE386E7D2B7
S31500000C308347710293F7F70FE380E7D28347810278
S31500000C4093F7F70FE38AE7D08347910293F7F70FFD
S31500000C50E384E7D08347A10293F7F70FE392E7D047
S31500000C606FF09FCF833781001306200093973700DC
S31500000C70B307F70083B7070093F7F70FA305F10251
S31500000C80833781009387170093973700B307F700E0
S31500000C9083B7070093F7F70F2306F1028337810026
S31500000CA093872700939737003307F70083370700AA
S31500000CB093F7F70FA306F1028337010193D71700C5
S31500000CC093F71700639807000346B1021376F60FF1
S31500000CD03336C0002301C102833701011307200008
S31500000CE093D7270093F71700639807000347C102BD
S31500000CF01377F70F3337E000A301E10283370101D1
S31500000D001307200093D7370093F71700639807005F
S31500000D100347D1021377F70F3337E0002302E102CE
S31500000D20834721021307100093F7F70FE386E7C204
S31500000D308347310293F7F70FE380E7C28347410207
S31500000D4093F7F70FE39EE7C06FF01FC103368100EC
S31500000D5093052000131636003306C7000336060037
S31500000D601376F60FA305C10203368100130616009B
S31500000D70131636003306C700033606001376F60F41
S31500000D802306C10203368100130626001316360019
S31500000D903306C700033606001376F60FA306C10214
S31500000DA00336810013063600131636003306C700D5
S31500000DB0033606001376F60F2307C10203368100B9
S31500000DC013064600131636003306C7000336060020
S31500000DD01376F60FA307C1020336810013065600E9
S31500000DE0131636003306C700033606001376F60FD1
S31500000DF02308C10203368100130666001316360067
S31500000E003307C700033707001377F70FA308E1027C
S31500000E1003370101135717001377170063180700EC
S31500000E208345B10293F5F50FB3B5B7002301B102BF
S31500000E30033701011386070013572700137717009E
S31500000E40631A07000346C102130720001376F60F44
S31500000E503336C700A301C102033701011386070019
S31500000E601357370013771700631A07000346D1029A
S31500000E70130720001376F60F3336C7002302C1028C
S31500000E80033701011386070013574700137717002E
S31500000E90631A07000346E102130720001376F60FD4
S31500000EA03336C700A302C1020337010113860700C8
S31500000EB01357570013771700631A07000346F1020A
S31500000EC0130720001376F60F3336C7002303C1023B
S31500000ED003370101138607001357670013771700BE
S31500000EE0631A070003460103130720001376F60F63
S31500000EF03336C700A303C102033701011357770036
S31500000F0013771700631A070083471103130720009E
S31500000F1093F7F70FB337F7002304F1028347210253
S31500000F201307100093F7F70FE388E7A28347310210
S31500000F3093F7F70FE382E7A28347410293F7F70F90
S31500000F40E38CE7A08347510293F7F70FE386E7A008
S31500000F508347610293F7F70FE380E7A083477102A7
S31500000F6093F7F70FE38AE79E8347810293F7F70F1C
S31500000F70E398E79E6FF05F9E130101F6233C11088C
S31500000F80233881082334910823302109233C310773
S31500000F902338410783470500130710006380E71CC9
S31500000FA0130730006382E7028330810903340109A5
S31500000FB0833481080339010883398107033A01071D
S31500000FC01301010A67800000834715009B8507000F
S31500000FD06392072837F60000130686BF834725006D
S31500000FE0130720009B8607006382E728130710007B
S31500000FF0638EE73237F70000130787BF03483500D3
S31500001000930820009B070800630E182D9308100014
S315000010106300182F37F80000130888BF0343450004
S31500001020130E20009B0803006308C32B130E100049
S315000010306308C32F37F30000130383BF034E550025
S31500001040930E20009B030E006302DE29930E100010
S315000010506302DE2D37FE0000130E8EBF834E650041
S31500001060130F20009B800E00638CEE25130F1000DB
S31500001070638CEE29B7FE0000938E8EBF034F75007A
S31500001080930F20001B040F006306FF23930F10002D
S315000010906306FF2737FF0000130F8FBF834F8500BE
S315000010A0930220009B840F0063805F209302100050
S315000010B063805F2AB7FF0000938F8FBF834295003E
S315000010C0930920001B890200638A321D93091000D0
S315000010D0638A3227B7F20000938282BF0345A500D8
S315000010E0130A20009B0905006304451B130A100020
S315000010F06304452537F50000130585BF2330A10697
S3150000110037F50000233C310523342105233C9102A9
S3150000111023348102233C1100233851042330F10586
S315000011202338E1032330D1032338C101233471006E
S3150000113023306100130505C6EF1040358330810961
S31500001140033401098334810803390108833981078F
S31500001150033A01071301010A67800000834715005F
S315000011609B850700639E07088347250037F6000026
S3150000117013072000130686BF9B860700638EE708C9
S3150000118013071000638AE70E37F70000130787BFBF
S3150000119003483500930820009B070800630A1809D6
S315000011A093081000630E180B37F80000130888BF69
S315000011B003454500130320009B08050063066508E8
S315000011C0130310006300650C37F50000130585BF97
S315000011D02330A10037F50000130585C0EF10002B62
S315000011E083308109033401098334810803390108F6
S315000011F083398107033A01071301010A678000005A
S315000012008347250037F6000013072000130606BFA4
S315000012109B860700E396E7F60348350037F700009C
S3150000122093082000130707C09B070800E31A18F766
S315000012300345450037F8000013032000130808C0D3
S315000012409B080500E31E65F637F50000130505C08B
S315000012506FF01FF837F60000130606BF6FF01FD8B1
S3150000126037F80000130808BF6FF09FF437F7000047
S31500001270130707C06FF09FD837F70000130707BFA3
S315000012806FF01FF137F50000130505BF6FF05FF42F
S3150000129037F50000130505C06FF05FE6B7F20000F2
S315000012A0938202C06FF09FE3B7FF0000938F0FC0D9
S315000012B06FF0DFE037FF0000130F0FC06FF01FDE87
S315000012C0B7FE0000938E0EC06FF05FDB37FE0000A6
S315000012D0130E0EC06FF09FD837F30000130303C040
S315000012E06FF0DFD537F80000130808C06FF01FD382
S315000012F037F80000130808BF6FF05FD237FF000011
S31500001300130F0FBF6FF09FD9B7FE0000938E0EBF6D
S315000013106FF0DFD637FE0000130E0EBF6FF01FD43E
S3150000132037F30000130303BF6FF05FD137F70000F8
S31500001330130707BF6FF09FCC37F50000130505BFF5
S315000013406FF0DFDBB7F20000938202BF6FF01FD9A8
S31500001350B7FF0000938F0FBF6FF05FD603A5013074
S315000013606780000000000000000000000000000090
S315000013706780000000000000000000000000000080
S315000013809387F5FF638C05001307F0FF23300500F4
S315000013909387F7FF13058500E39AE7FE6780000051
S315000013A0B7F7000037F70000138607659305076552
S315000013B06304B60AB7F600009386066563FED50891
S315000013C03365B6009386F6FF137575001307076538
S315000013D0B386B6406310050613B5C602134515005D
S315000013E01375F50F6308050493D626009386160039
S315000013F013D81600131838009387076533080601BB
S3150000140003B507009387870013078700233CA7FED1
S31500001410E39807FF13F5E6FF13172500B307E60069
S31500001420B385E500638AA60283A7070023A0F5001B
S315000014306780000093F6C6FF93864600B306D60083
S315000014409387076503A707009387470093854500A1
S3150000145023AEE5FEE398F6FE6780000073001000F9
S31500001460678000009317160093D717001307B00084
S315000014706386E7007300100067800000130101FD1A
S315000014802334310183B9812FB70720002338210186
S31500001490B389F90003A9490023304101233411021D
S315000014A023308102233C91001B090900138A015C49
S315000014B0630209049317090293D7D701B307FA0009
S315000014C003B407009B040900630E0400833704017C
S315000014D00335840193850400E78007000334040084
S315000014E0E31604FE23A2290103A949001B090900EA
S315000014F0E31209FC83308102033401028334810143
S315000015000339010183398100033A01001301010304
S315000015106780000083A70130130500009B87170032
S3150000152023A0F13067800000130101FA23388104FB
S3150000153083A70130233C110423349104638E070CE6
S3150000154083B7812F639A070203A5812BB727000073
S31500001550938747F8130801001307400093062000FD
S315000015601306200C93051000EF0090209317050238
S3150000157093D7070223BCF12E83B7012F639A070284
S3150000158003A5812BB7270000938747F813080100AE
S3150000159013074000930620001306300C9305100035
S315000015A0EF00101D9317050293D7070223B8F12EFB
S315000015B003A7413083B6812F930710001B1727001E
S315000015C0130707201317C7003387E60023200700F9
S315000015D09305100013060002139727003387E600D1
S315000015E02320B7009B871700E398C7FEB7170000B4
S315000015F09B87078073A047309307800073A007304E
S31500001600833081050334010583348104130500000A
S31500001610130101066780000003A5812BB7170000A0
S3150000162093874751130800001307400093061000E4
S315000016301306D00B93051000EF00901383A701301B
S31500001640E39007F09307100023A0F1306FF05FEFEF
S31500001650130101FF2330810083B781302334110049
S3150000166013050000639C070203A5812BB727000022
S3150000167013080000938747F81307400093064000BD
S315000016801306C00093051000EF00900E1315050217
S315000016901355050223B4A13013351500833081009C
S315000016A0033401001301010167800000130101FDED
S315000016B02330810283B781312334110213050000E0
S315000016C0638A070083308102033401021301010398
S315000016D06780000003A5812BB7270000938747F892
S315000016E013088100130740009306400013061001FB
S315000016F093051000EF00D0079317050293D7070252
S3150000170023BCF13013051000E38E07FA034791005E
S31500001710833081020334010223A8E130130500005F
S315000017201301010367800000638205206302062E11
S3150000173003A70500233CB6029B57570093F60706FE
S315000017401377F70193F7F70133E7E6002300F60076
S31500001750A300E60083A7050163960712130700009E
S3150000176093060000130800002306060183A745011F
S315000017702322D6002324E600638607181B97070159
S31500001780B706F0FF33F7E7003377D70013F8F70013
S31500001790930830001B07070093060800630A182108
S315000017A09BD747009B97470193C7F7FF9B87070087
S315000017B01308F0FF638807171317070293970702AA
S315000017C013570702B367F7002338F60083A785018E
S315000017D0230CD6009308F0FF638E07109B96070133
S315000017E03707F0FFB3F6D700B3F6E6001303300071
S315000017F013F7F7009B8606001308070063026718B5
S315000018001BD747001B1747011347F7FF1B070700A6
S315000018106306171183A7C501232ED6002320E602EF
S31500001820230206036382070A1B970701B706F0FF28
S3150000183033F7E7003377D70093F5F7001308300046
S315000018401B070700938605006386050F9BD7470095
S315000018509B97470193C7F7FF9B8707009305F0FF08
S31500001860638AB70A131707021357070293970702EB
S31500001870B367F7002334F6022308D60213050000E7
S31500001880678000009B9607013707F0FFB3F6D70085
S31500001890B3F6E6009308300013F7F7009B860600C0
S315000018A013080700630E17131BD747001B174701C2
S315000018B01347F7FF1B0707009307F0FFE316F7EA46
S315000018C0130700006FF05FEA13070000930700009C
S315000018D01317070213570702939707029306000090
S315000018E0B367F7002334F6022308D6021305000077
S315000018F0678000001307000093060000130800002D
S315000019006FF05FF1930700001307000093060000D5
S315000019106FF09FEA930700006FF0DFF413070000F3
S315000019206FF05FEF930700006FF01FE913051000DB
S315000019306780000093C7F7FF9BD74700B7051000E5
S31500001940938505F09B9787001B57C700B3F7B70031
S315000019503367E50093E7F70F1B0707009B87070030
S31500001960131707021357070293970702B367F70087
S315000019702334F6022308D602130500006780000010
S3150000198013C7F7FF1B574700B70710001B17870041
S31500001990938707F09BD6C6003377F700B366D5006A
S315000019A01367F70F9B8606001B0707006FF09FE67D
S315000019B093C7F7FF9BD74700370810009B97870010
S315000019C0130808F01B57C700B3F707013367E50094
S315000019D093E7F70F1B0707009B8707006FF0DFDD14
S315000019E013C7F7FF1B574700B70710001B178700E1
S315000019F0938707F09BD6C6003377F700B366D5000A
S31500001A001367F70F9B8606001B0707006FF0DFD5ED
S31500001A101305200067800000130101F2233C310BFF
S31500001A202338410B2330610B233C71092334910980
S31500001A302330A1092330D102233C110C2338810C19
S31500001A402334910C2330210D2334510B2338810983
S31500001A50233CB10793F6160023341101930C0500BD
S31500001A60138B0500930B0600130D0700138A07005E
S31500001A70930908006388061037F40F003364850065
S31500001A801314040213540402630E080E638405360D
S31500001A906302063EB714000013890480330924014B
S31500001AA09384F4FF6F00C00013040402630C240D3A
S31500001AB0832604009BD7C600B3F797001BD7860181
S31500001AC09B87070033E7E7001B0707009BD68601C5
S31500001AD0E30C07FCE39A66FDE398FBFC9305040020
S31500001AE01306010313850C00EFF01FC48337810032
S31500001AF013070D009306100013860B0093050B00C9
S31500001B0013050103E78009001B050500E30E05F830
S31500001B106F004010B71A000093870A80330CF40058
S31500001B20938AFAFF032704009305040013060103B2
S31500001B309B54C700B3F454019B8404009B57870150
S31500001B40B3E7F4009B87070013850C001304040217
S31500001B501B59870163860702EFF01FBD833781009B
S31500001B6013070D0093061000138604009305090061
S31500001B7013050103E78009001B050500631C050822
S31500001B80E31284FB03370102B70710009384078032
S31500001B90B3E49C00137C2700137747009394040258
S31500001BA02330E100B71D00003717000093D404026C
S31500001BB0938D0D801309F7FF9387F7FF1B071D0011
S31500001BC0B38DB401233CE1002334F10203A30400E6
S31500001BD01B58C300337709019B5783011B548301AC
S31500001BE09B0A0700630C0C00B3E7FA009B8707000B
S31500001BF0638C0700630E0B04630C8B0463764D0144
S31500001C0093071000630CF40893840402E3909DFC90
S31500001C10130500008330810D0334010D8334810CDC
S31500001C200339010C8339810B033A010B833A810A8C
S31500001C30033B010A833B8109033C0109833C81087C
S31500001C40033D0108833D81071301010E67800000F3
S31500001C5063840B00E3945BFBE38209FA130601033A
S31500001C609385040013850C0023280101EFF0DFABF8
S31500001C708337810013070D009306200013860A00A0
S31500001C809305040013050103E78009001B05050001
S31500001C9003280101E30405F66FF0DFF7930700025E
S31500001CA06380FA12B71700009387B7FF33F807016E
S31500001CB01B0808009307B0046304F810833701007B
S31500001CC0E38407F493076000E390FAF483A7040122
S31500001CD037F40F001B93070133F36700B707F0FFD4
S31500001CE03373F3001B0303003364830013140402ED
S31500001CF013540402930A04086F000001630ABB022E
S31500001D0013048400E30254F1032704001B56C700A2
S31500001D10337626011B0606009B578701B367F6003C
S31500001D209B8707009B558701E38C07FCE3180BFC98
S31500001D3063840B00E396CBFCE38409FC9B575700B6
S31500001D4093F607061377F70133E7E60093F7F701F3
S31500001D502308F102A308E1028326440083378100A9
S31500001D60033781011B9546009BD0C6001BD8460051
S31500001D70B7061000B3F0A000138506F08336810283
S31500001D801B188800B3F0A0003378A800B3E0600009
S31500001D903348D80013050103930640002338610039
S31500001DA023308104232A1102232C0103E780090032
S31500001DB01B05050003330101E30405F46FF09FE5FD
S31500001DC003A58400E30C05EE833881000337810107
S31500001DD0833601021388090093070A0013860B0055
S31500001DE093050B00EFF05FC31B050500E30805EC48
S31500001DF06FF05FE2E30006D237190000930A09800C
S31500001E00B30A54011309F9FF6F00C000130404025A
S31500001E10E38A8AD6832504009BD7C500B3F727013A
S31500001E209B8707001BD7850133E7E7001B070700E1
S31500001E309BD48501E30C07FCE39AFBFC93050400A5
S31500001E401306010313850C00EFF01F8E8337810004
S31500001E5013070D009306100013860B0093850400EC
S31500001E6013050103E78009001B050500E30005FAD9
S31500001E706FF05FDA37190000930A0980B30A54013C
S31500001E801309F9FF6F00C00013040402E30C54CFDA
S31500001E90032704009B54C700B3F424019B57870112
S31500001EA09B840400B3E7F4009B8707001B57870158
S31500001EB0E38C07FCE31AEBFC93050400130601030D
S31500001EC013850C00EFF05F868337810013070D0042
S31500001ED0930610001386040093050B0013050103F7
S31500001EE0E78009001B050500E30005FA6FF09FD2A5
S31500001EF063880506630A060603A80500370710006F
S31500001F00130307F09B56580093F806061378F8015A
S31500001F1093F6F60133E808012300D600A300060174
S31500001F2083A745009306F7FF2338B6001BD7C700E3
S31500001F309B9547009BD747003377B7009B97870051
S31500001F4033776700B3F767003365A700B3C7D700D9
S31500001F502322A6002324F600130500006780000054
S31500001F60130510006780000013052000678000003D
S31500001F70930808001388070093070700130700005B
S31500001F806FF09FA9638C070013074000638CE6007F
S31500001F909B86F6FF130710006376D70203254500DC
S31500001FA0678000000337050023B0E700033785008C
S31500001FB023B4E700033705010325450023B8E700EE
S31500001FC067800000033E0500033385008338050162
S31500001FD003388501833505020336850283360503FA
S31500001FE0033785030325450023B0C70123B46700E3
S31500001FF023B8170123BC070123B0B70223B4C702D5
S3150000200023B8D70223BCE7026780000083B6812F7E
S3150000201063820606F375043003A741301B56F5416B
S315000020201B56B6013B06A6001B1727001B5656403B
S31500002030131757003307C70013172700B386E600A8
S3150000204037270000B386E60003A7060093071000B3
S31500002050BB97A70093C7F7FFB3F7E7009B87070077
S3150000206023A0F60093F7850073A007301305000040
S3150000207067800000130510006780000003B7812FFA
S31500002080630007067376043083A741309B56F541FB
S315000020909BD6B601BB86A6009B9727009BD65640CB
S315000020A093975700B387D700939727003307F70016
S315000020B0B72700003307F7008327070093061000B1
S315000020C03B95A60033E5A7001B0505002320A700C6
S315000020D09377860073A00730130500006780000021
S315000020E013051000678000009305050093060000A5
S315000020F013060000130500006F308024130101FF52
S3150000210093050000233081002334110013040500D9
S31500002110EF30002F03B5012A833785046384070057
S31500002120E780070013050400EFC08042130101FE9B
S3150000213023388100B7F7000037F400001304046465
S3150000214093878764B387874023349100233C11002B
S3150000215093D4374063800402938787FF33848700D4
S31500002160833704009384F4FF130484FFE780070099
S31500002170E39804FE83308101033401018334810036
S315000021801301010267800000130101FE233881005C
S315000021902330210137F4000037F900009307146358
S315000021A0130919633309F940233C110023349100C4
S315000021B013593940630009021304146393040000A1
S315000021C0833704009384140013048400E780070017
S315000021D0E31899FE37F4000037F90000930784638B
S315000021E0130909643309F940135939406300090298
S315000021F0130484639304000083370400938414005B
S3150000220013048400E7800700E31899FE83308101F8
S3150000221003340101833481000339010013010102F3
S3150000222067800000B3C7A50093F77700B308C50021
S315000022306398070E9307700063F4C70E93777500D3
S31500002240930605006398070413F688FF930706FCB8
S3150000225063ECF60663FCC602138705009387060047
S3150000226003380700938787001307870023BC07FFFF
S31500002270E3E8C7FE9307F6FFB387D74093F787FFD8
S3150000228093878700B386F600B385F50063EE1609DB
S315000022906780000003C705009386160093F7760053
S315000022A0A38FE6FE93851500E38007FA03C70500B2
S315000022B09386160093F77600A38FE6FE93851500A6
S315000022C0E39A07FC6FF05FF883B3850083BF0501CF
S315000022D003BF850183BE050203BE850203B3050362
S315000022E003B8850303B7050483B205009386860405
S315000022F023B076FC23BC56FA23B4F6FD23B8E6FDDC
S3150000230023BCD6FD23B0C6FF23B466FE23B806FF62
S3150000231023BCE6FE93858504E3E8F6FA6FF09FF3A7
S3150000232093060500E37615F79387F8FF13861600E4
S31500002330B387D74093B7970033B7C8001347170042
S3150000234093C71700B3F7E70093F7F70F1387060055
S31500002350638E070AB3E7B60093F777006398070A18
S315000023601303100063E4C8003383D840137883FF57
S31500002370938705003308B80003B6070093878700E4
S3150000238013078700233CC7FEE39807FF937783FF75
S31500002390B385F500E30EF3EE03C705009387170038
S315000023A0B386F600A38FE6FEE3F416EF03C7150027
S315000023B0938716002380E600E3FC17ED03C725008C
S315000023C093872600A380E600E3F417ED03C73500E4
S315000023D0938736002381E600E3FC17EB03C745002D
S315000023E093874600A381E600E3F417EB03C7550085
S315000023F0938756002382E600E3FC17E983C765004E
S31500002400A382F600678000001306160083C7050046
S3150000241093851500A30FF6FEE36816FF678000009C
S31500002420130101FA233081022338C1022334110239
S31500002430233CD1022330E1042334F104233801057F
S31500002440233C1105130405001386050063060500E9
S31500002450832705036384070283350401930601037A
S3150000246013050400233CD100EF00403B833081027A
S315000024700334010213010106678000002334B10012
S31500002480EF405052033681006FF01FFD130101F932
S315000024902330810203B4012C2330C10423341102FA
S315000024A0233CB1022334D1042338E104233CF10454
S315000024B023300107233411071306050063060400C1
S315000024C0832704036384070283350401930681038B
S315000024D013050400233CD100EF0040348330810211
S315000024E00334010213010107678000002334A100B1
S315000024F013050400EF40104B033681006FF0DFFC3C
S31500002500130101F923308106130405001385050024
S31500002510233C91042334110693840500EF008023A5
S31500002520B7F70000938787EA2330F104930710007A
S315000025302334F1049307010313071500233CF1002C
S315000025409307200023389102233CA1022334E102A1
S315000025502320F10263080408832704036380070825
S3150000256083350401B7F700009387071A6380F50ADD
S31500002570B7F7000093878716638EF508B7F7000054
S3150000258093870713638CF508839705011397270331
S315000025906342070203A7850AB7260000B3E7D70000
S315000025A0B7E6FFFF9386F6FF3377D7002398F5004B
S315000025B023A4E50A1306810113050400EF50C005A4
S315000025C0631205061305A000833081060334010655
S315000025D08334810513010107678000001305040099
S315000025E0EF40503C8327040383350401E39C07F640
S315000025F0130504002334B100EF40D03A833581003F
S31500002600B7F700009387071AE394F5F6833584003D
S315000026106FF09FF7833504016FF01FF78335840150
S315000026206FF09FF61305F0FF6FF01FFA130101F923
S3150000263023308106233C910403B4012C9304050046
S3150000264023341106EF000011B7F70000938787EADD
S315000026502330F104930710002334F1049307010398
S3150000266013071500233CF10093072000233891023D
S31500002670233CA1022334E1022320F102630804086B
S31500002680832704036380070883350401B7F7000036
S315000026909387071A6380F50AB7F7000093878716B2
S315000026A0638EF508B7F7000093870713638CF50868
S315000026B083970501139727036342070203A7850A39
S315000026C0B7260000B3E7D700B7E6FFFF9386F6FF0D
S315000026D03377D7002398F50023A4E50A1306810172
S315000026E013050400EF405073631205061305A0009E
S315000026F08330810603340106833481051301010703
S315000027006780000013050400EF40D02983270403E7
S3150000271083350401E39C07F6130504002334B10056
S31500002720EF40502883358100B7F700009387071ADA
S31500002730E394F5F6833584006FF09FF78335040143
S315000027406FF01FF7833584016FF09FF61305F0FFD6
S315000027506FF01FFA9377750013070500639A070653
S3150000276083B681219305F0FF033607001307870020
S31500002770B377D600B387D700B3E7C700B3E7D70070
S31500002780E384B7FE834687FFB307A7406384060644
S31500002790834697FF638C06048346A7FF6384060679
S315000027A08346B7FF638C06048346C7FF0346D7FFFD
S315000027B00345E7FF638C0604630E06043335A00069
S315000027C03305F5001305E5FF67800000E38A06F888
S315000027D0834707001307170093767700E39807FEF1
S315000027E03307A7401305F7FF67800000138597FF9F
S315000027F067800000138587FF678000001385B7FF99
S31500002800678000001385A7FF678000001385C7FF58
S31500002810678000001385D7FF67800000130101D988
S3150000282023341126233C9124233821252334B12136
S3150000283093840500930D0600233CD10023308126A6
S315000028402334312523304125233C5123233861236A
S315000028502334712323308123233C91212338A12162
S31500002860273C811E2738911E2734211F2730311F10
S31500002870273C411D13090500EF50C03E8337050074
S31500002880138507002334F108EFF0DFEC233CA106A3
S315000028906306090083270903638E075CB7F7000008
S315000028A09387071A6382F45EB7F70000938787164B
S315000028B06380F45EB7F70000938707136394F40010
S315000028C06F10806B839604013726000093970603EA
S315000028D093D70703B3F5C7006398050283A5840A57
S315000028E0B3E7C6009B970701B7E6FFFF9BD70741F3
S315000028F09386F6FFB3F6D5002398F4009397070363
S3150000290023A4D40A93D7070393F68700E3860658D1
S3150000291083B68401E382065893F7A7019306A000C5
S31500002920E38ED75887B4012287B9012407B48122E0
S3150000293007B9012383B78123130A0115233401063E
S31500002940233CF10883C70D002338410D2330010EC7
S31500002950232C010C23300102233401022338010801
S3150000296023300106233801062330010823340100F1
S3150000297013080A006386072013840D00930650028D
S31500002980E38CD70A8347140013041400E39A07FE66
S31500002990BB09B4416386091E0336010E8326810DE9
S315000029A02330B801330636019B86160023343801DE
S315000029B02330C10E232CD10C1B8606009306700013
S315000029C013080801E3CEC644033781003B87E900BC
S315000029D02334E1006386071AB7F9000003431400A5
S315000029E0A307010A130414009308F0FF930A0000DA
S315000029F0930C0000130BA005938909F1130D9000A9
S31500002A00130414009B0B03001306A0029B870BFE06
S31500002A109B860700636CDB009397070293D7E70159
S31500002A20B387370183A7070067800700638A0B1403
S31500002A302304710FA307010A93091000130600006F
S31500002A40130D0000130B1000930800002338010239
S31500002A50233C0102233C0104930D810E93F22C00CA
S31500002A60638402009B89290093FF4C088337010E7B
S31500002A7063960F00BB863A416340D01E630C060284
S31500002A808326810D1306F10A2330C8009B861600A3
S31500002A9013061000938717002334C800232CD10C8B
S31500002AA01B8606002330F10E9306700013080801FA
S31500002AB063C8C626638C02028326810D1306010BAA
S31500002AC02330C8009B861600130620009387270034
S31500002AD02334C800232CD10C1B8606002330F10EAC
S31500002AE09306700013080801E3C0C6389306000871
S31500002AF0E384DF10BB886841E34E101D93F60C108B
S31500002B006398067E0327810DB38767012330B801DA
S31500002B109B0617001387060023346801232CE10C5B
S31500002B202330F10E13077000634ED73013080801E7
S31500002B3013FE4C0063060E003B8B3A41E344603FB4
S31500002B4013870A0063D43A0113870900833681008C
S31500002B503B07D7002334E100E3900724232C010C24
S31500002B6063080D0093050D0013050900EF4040783A
S31500002B7013080A00930D040083C70D00E39E07DEC9
S31500002B808337010EE38C07221306010D938504009B
S31500002B9013050900EF8080556F005022930A00004C
S31500002BA0834604009B972A00BB8A57011B830BFDB3
S31500002BB09B9A1A009B8706FD13041400BB0A530157
S31500002BC09B8B0600E37EFDFC6FF05FE493F78C00C1
S31500002BD0E390076C8337810187B7070093878700E7
S31500002BE0233CF1002734F106D3A7F7227327100000
S31500002BF0D397F4A273101700E382076ED30700F28F
S31500002C0007378106D317F7A2638407006F10406861
S31500002C100346F10A9307700463C477016F10805D61
S31500002C2037F70000930D87EB13FEFCF723380102FC
S31500002C30233C0102233C01049B0C0E009309300047
S31500002C40130D0000130B300093080000E30806E0A4
S31500002C509B8919006FF09FE0B7FE00009305000105
S31500002C600326810D138C0E08130F000193037000C9
S31500002C7063C8D5006F00C0079B8606FF635ADF0650
S31500002C801B06160093870701233088012334E801C9
S31500002C902330F10E232CC10C13080801E3DEC3FC1C
S31500002CA01306010D93850400130509002338D1048A
S31500002CB0233411052330F10523385100EF800043FA
S31500002CC0E316050E83360105130F00018337010E47
S31500002CD09B8606FF0326810D83388104833F01040A
S31500002CE08332010113080A0093037000E34ADFF8F8
S31500002CF0B387D7009B0516002334D80023308801FC
S31500002D002330F10E232CB10C9306700063D4B60069
S31500002D106F10402F0346F10A130808016FF01FD603
S31500002D201306010D938504001305090023341105CC
S31500002D302330F10523385100EF80403BE3180506A8
S31500002D408337010E83388104833F010483320101F6
S31500002D5013080A006FF01FD68328810D033701027E
S31500002D60130510009B8618002330B80193871700BF
S31500002D709385060013060801E350E53E130510008F
S31500002D80232CB10C2334A8002330F10E93057000D8
S31500002D9063D4D5006F10401503378107833581084A
S31500002DA09B861600B387E7002330B6002334E6007F
S31500002DB09B850600232CD10C2330F10E9306700060
S31500002DC01306060163D4B6006F104014D30700F251
S31500002DD007378106033701029B8815005325F7A2A2
S31500002DE0938608001B0BF7FF13080601E31A053844
S31500002DF013871D00B38767012330E600233466017D
S31500002E002330F10E232C110D13077000E34E1773B8
S31500002E10130706029B8825001306080013080700FF
S31500002E20833601091307010C2330E600B387F60049
S31500002E302334D6002330F10E232C110D1307700016
S31500002E40E35817CF1306010D9385040013050900F7
S31500002E50EF80C029631C05748337010E13080A002E
S31500002E606FF01FCD13EE0C01034304009B0C0E0004
S31500002E706FF01FB913050900EF40C032B7F7000025
S31500002E809387071AE392F4A2833489006FF09FA315
S31500002E90833409016FF01FA313EE0C019B0C0E0087
S31500002EA08336810193F70C0213878600E384073487
S31500002EB083B7060093890700E3CC07349307F0FF36
S31500002EC06380F87813FEFCF71B0D0E00638409007F
S31500002ED06F10801A638408006F10507B930C0D00EE
S31500002EE0233CE10093080000130B0000930DC1146E
S31500002EF00346F10A9B89080063D468019B090B000D
S31500002F0023380102233C0102233C0104130D000077
S31500002F10E30606B46FF0DFD383378101A307010A06
S31500002F2083BD0700138C8700E3840D709307F0FFC1
S31500002F306394F8006F10001F1386080093050000C5
S31500002F4013850D00233C010123381101EF50407B0E
S31500002F508338010103388101130D05006314050050
S31500002F606F10501E3B0BB5410346F10A9349FBFF18
S31500002F7093D9F943233C810123380102233C010202
S31500002F80233C0104B3F96901130D00009308000006
S31500002F90E30606AC6FF0DFCB03378101A307010A16
S31500002FA08327070013078700233CE1002304F10E63
S31500002FB06FF09FA813EE0C019B0C0E008336810167
S31500002FC093F70C0213878600E382072683B906006F
S31500002FD013FEFCBF1B0D0E00233CE100930700000F
S31500002FE0A307010A1307F0FF6380E826137EFDF7A7
S31500002FF09B0C0E00639809246396082AE39407EE57
S31500003000137B1D00930DC114E3040BEE930700031D
S31500003010A305F114930DB1146FF09FED8336810172
S3150000302093F70C0203B7060093868600233CD10073
S31500003030E398072493F70C01E394072493F70C0411
S31500003040638407006F10C06B13FE0C20833781006A
S3150000305063140E006F10D0612300F700930D040077
S315000030606FF09FB113EE0C02034304009B0C0E009D
S315000030706FF01F9903378101B787FFFF93C7078357
S315000030802318F10AB7FD00009307870013EE2C0002
S31500003090233CF10093870DED2334F10283390700B9
S315000030A01B0D0E0093072000930B80076FF05FF354
S315000030B0034304009307C006E302F35613EE0C0124
S315000030C09B0C0E006FF0DF9303430400930780060A
S315000030D0E30CF35213EE0C049B0C0E006FF05F92A0
S315000030E013EE8C00034304009B0C0E006FF05F91FF
S315000030F013EE0C011B0D0E008336810193770D0232
S3150000310013878600E384071483B90600930710002B
S31500003110233CE1006FF0DFEC13EE0C0803430400E0
S315000031209B0C0E006FF0DF8D833781010343040093
S3150000313083AA070093878700233CF100E3D20A8C19
S31500003140BB0A50416F0040091305090023380103EB
S3150000315023381101EF4010318337850013850700AE
S315000031602330F108EFF00FDF930705001305090080
S31500003170938B07002338F106EF40D02E0337050165
S3150000318083380101033801032330E10603430400B9
S31500003190E3880B86E306078683470700E3820786F4
S315000031A013EE0C409B0C0E006FF09F8513EE1C0077
S315000031B0034304009B0C0E006FF09F848347F10AC3
S315000031C003430400E39E078293070002A307F10A64
S315000031D06FF01F830343040013EE4C009B0C0E009C
S315000031E06FF01F829307B00203430400A307F10A9E
S315000031F06FF01F81834B0400930714006394CB0088
S315000032006F1010659B860BFD138407009308000062
S31500003210636EDDFE834B04009B972800BB88170175
S315000032209B981800BB88D8009B860BFD13041400DE
S31500003230E372DDFE6FF08FFDBB09B441638E09F8C2
S315000032406FF08FF5138D0C0013071000638EE73EA9
S31500003250130720006384E706130BC114930D0B00BC
S3150000326093F7790093870703A38FFDFE93D939005F
S3150000327093860D00938DFDFFE39409FE13761D00E2
S315000032806302060613060003638EC7049386E6FFF1
S31500003290A38FCDFE3B0BDB40930C0D00938D0600F8
S315000032A06FF01FC5130710006394E7006F105030CE
S315000032B013072000138D0C00E390E7FA130BC114DB
S315000032C0930D0B000337810293F7F900938DFDFFF1
S315000032D0B307F70083C7070093D949002380FD0091
S315000032E0E39209FE3B0BBB41930C0D006FF05FC0F0
S315000032F093065006E3D276A7D30700F20737810676
S31500003300D326F7A26386064C0327810DB7F6000085
S31500003310938686F01B0717002330D8009387170083
S31500003320930610002334D800232CE10C9B060700DB
S315000033302330F10E1307700013080801E34ED7502F
S315000033400327810B833601026356D7720337810840
S3150000335083368107130808012338E8FE0327810D09
S31500003360B387D700233CD8FE1B0717009B06070030
S31500003370232CE10C2330F10E13077000E34CD72405
S31500003380033701029B0BF7FF635470FBB7FE000087
S31500003390930600010327810D138C0E09130B000100
S315000033A0930D700063C876016F0050629B8B0BFF14
S315000033B0E35E7B611B0717009387070123308801B3
S315000033C0233468012330F10E232CE10C1308080185
S315000033D0E3DEEDFC1306010D9385040013050900D9
S315000033E0EF70D0506314051C8337010E0327810D3F
S315000033F013080A006FF09FFB3B8F3A41635CE0EFD6
S31500003400B7FE0000130600018326810D138C0E09FA
S31500003410930F0001930270006348E6016F00C00637
S315000034201B0F0FFF63D2EF079B86160093870701DA
S31500003430233088012334F8012330F10E232CD10CDC
S3150000344013080801E3DED2FC1306010D9385040080
S3150000345013050900233011052338E101EF701049E7
S3150000346063160514033F0101930F00018337010E14
S315000034701B0F0FFF8326810D8338010413080A00F2
S3150000348093027000E3C2EFFB1B861600B387E701C9
S31500003490233088012334E8012330F10E232CC10C9C
S315000034A0930670001308080163D6C6E41306010DDF
S315000034B0938504001305090023381101EF701043AA
S315000034C06316050E8337010E8338010113080A00BF
S315000034D06FF04FE2B7FE0000130600018326810D50
S315000034E0138C0E09130F0001930F70006348160129
S315000034F06F0040069B8808FF635E1F059B861600CB
S3150000350093870701233088012334E8012330F10E25
S31500003510232CD10C13080801E3DEDFFC1306010D92
S31500003520938504001305090023381101EF70103C40
S31500003530631E050683380101130F00018337010E50
S315000035409B8808FF8326810D13080A00930F7000DD
S31500003550E3461FFB1B861600B3871701233088013D
S31500003560233418012330F10E232CC10C930670006E
S315000035701308080163D4C6D81306010D9385040009
S3150000358013050900EF709036631205028337010EAA
S3150000359013080A006FF08FD61306010D93850400F9
S315000035A013050900EF709034630A05DA63080D000D
S315000035B093050D0013050900EF30905383D70401DE
S315000035C093F70704638407006F1000718330812628
S315000035D0033401260335810083348125033901250F
S315000035E083398124033A0124833A8123033B01234F
S315000035F0833B8122033C0122833C8121033D01213F
S31500003600833D81200734811F8734011F0739811EBE
S315000036108739011E073A811D1301012767800000C3
S315000036201306010D9385040013050900EF70102C95
S31500003630E31605F88347040013080A006FF0CFB8B5
S31500003640138D0C00233CE10093079000E3E2370F53
S315000036509B890903A3053115930C0D00130B10006C
S31500003660930DB1146FF0DF881306010D93850400E6
S3150000367013050900233011052338F101EF701027D7
S31500003680E31605F28337010E83380104833F0101F7
S3150000369013080A006FF08FC593850400130509000F
S315000036A0EF10902E630405006F10006383D70401AA
S315000036B09306A00093F7A7016396D7A683972401E4
S315000036C063C207A60334012683368101833081262F
S315000036D083398124033A0124833A8123033B01235E
S315000036E0833B8122033C0122833C8121033D01214E
S315000036F00734811F8734011F0739811E8739011E50
S31500003700073A811D13860D0093850400833D8120B1
S315000037108334812513050900033901251301012787
S315000037206F10901AB7FE0000930600010327810D63
S31500003730138C0E08930C0001930B700063C866018E
S315000037406F0040051B0B0BFF63D66C051B071700AC
S315000037509387070123308801233498012330F10E23
S31500003760232CE10C13080801E3DEEBFC1306010D24
S315000037709385040013050900EF705017E31805E25E
S315000037801B0B0BFF8337010E0327810D13080A005D
S31500003790E3CE6CFB9B061700B387670123308801D5
S315000037A0233468012330F10E232CD10C130770004B
S315000037B06358D7B81306010D938504001305090055
S315000037C0EF70D012E31405DE8337010E6FF04FB7AA
S315000037D00326810B6356C07A0337810583360102BF
S315000037E01B0B070063CAE652635660038326810DEE
S315000037F0B38767012330B8011B861600233468019E
S315000038002330F10E232CC10C930670001308080117
S31500003810E3CCC6689346FBFF0337810593D6F64390
S31500003820337BDB003B0B67416340606503378105F3
S3150000383093F60C40338BED00E39406268326810B2A
S315000038400337010263C6E60013F61C00E3040668AC
S315000038500336810803378107130808012338C8FE99
S315000038600326810DB387E700233CE8FE9B0516007F
S315000038702330F10E232CB10C130670006354B600EE
S315000038806F100008033701023B06D7403387ED006F
S315000038903B076741930606006354C700930607007B
S315000038A09B8B0600635870038326810DB3877701CF
S315000038B0233068019B851600233478012330F10EEE
S315000038C0232CB10C930670001308080163D4B600CC
S315000038D06F10003A93C6FBFF93D6F64333F7DB002F
S315000038E03B0BE640635660A5B7FE00009306000159
S315000038F00327810D138C0E09930D0001930B7000A5
S3150000390063CA66016F00907E1B0B0BFF63C46D01DB
S315000039106F00D07D1B0717009387070123308801AE
S315000039202334B8012330F10E232CE10C13080801CF
S31500003930E3DCEBFC1306010D938504001305090077
S31500003940EF70C07AE31405C68337010E0327810D95
S3150000395013080A006FF05FFB13F31C00631003C229
S315000039602334A8002330F10E232CD10C130770004A
S31500003970634CD73C9B882800130808026FF04FCA97
S31500003980635060CB13070001634467016F108069C1
S31500003990B7FE0000138C0E09930D0001930B700007
S315000039A06F0000011B0B0BFF63DE6D379B86150056
S315000039B093870701233086012334B6012330F10EA5
S315000039C09B850600232CD10C13060601E3DCBBFC09
S315000039D01306010D9385040013050900EF700071AD
S315000039E0E31605BC8337010E8325810D13060A00F5
S315000039F06FF05FFB93F70C01639A073093F70C04A3
S31500003A00E38C0700839906009387090063D807CAE9
S31500003A109307D002A307F10AB3093041233CE10022
S31500003A20138D0C00930710006FF0CFDB93F70C019A
S31500003A30639A072C93F70C0483A906006388077E14
S31500003A409399090393D909036FF08FD893770D01E2
S31500003A506392072A93770D0483A906006382077A87
S31500003A609399090393D90903233CE10093071000B6
S31500003A706FF00FD713F71C00630C078A6FF01F8DCA
S31500003A8083378100930D04002330F7006FF0CF8E4B
S31500003A908337810123380103233811019387F70007
S31500003AA093F707FF03B5070083B5870093870701E0
S31500003AB0233CF100EFA0904FD307A5222734A1069F
S31500003AC083380101D3A7F7220338010373271000B7
S31500003AD0D397F4A273101700639207928737810673
S31500003AE0D3A7F7A2639407006F10C03D9307100693
S31500003AF06394FB006F10C02A93071004E384FB6AEB
S31500003B009307F0FF13FBFBFDE380F8469307700471
S31500003B106314FB006F1080360337810693E70C10A1
S31500003B209B87070093890C00635407006F1080126F
S31500003B30530A07F2938C070023380100130D000087
S31500003B4093076004E306FB4A9307500423380103F6
S31500003B5053054A236314FB006F10402B9307810C17
S31500003B60138608001307C10B9306810B93052000EB
S31500003B701305090023301103EF10D04A9307700490
S31500003B808338010203380103930D05006304FB002B
S31500003B906F10405093F71900B3061501E390074ADA
S31500003BA0033C810C0327810BBB07BC412330F10288
S31500003BB0233CE10493077004E30AFB3C930760048B
S31500003BC0E308FB5A833781059305100493F6FB0F30
S31500003BD09B87F7FF232CF10A130600006318BB002E
S31500003BE09B86F60093F6F60F130610002300D10C01
S31500003BF09306B00263DA07000337810593071000C6
S31500003C009306D002BB87E740A300D10C9306900031
S31500003C1063C4F6006F1000289308F10C9385080022
S31500003C201305A000930E3006BBE6A7021386050017
S31500003C30138E07009385F5FF9B860603A30FD6FE1A
S31500003C40BBC7A702E3C2CEFF9B8707039306E6FF27
S31500003C50A38FF5FE63E416016F1000439307210C52
S31500003C6083C506009386160093871700A38FB7FEB9
S31500003C70E39816FF9307110DB387C7401307210C6E
S31500003C80B307F7009306010CBB87D7402338F1082A
S31500003C9003370102930610003B0BF70093070B0056
S31500003CA063C4E6006F104033033781073B8BE700A0
S31500003CB09347FBFF13FEF9BF93D9F7431B0E0E0084
S31500003CC0B3793B01936C0E109B89090023380102DE
S31500003CD0233C0102233C010483370101E39A0738A0
S31500003CE00346F10A93080000631406006FE01FD72D
S31500003CF06FE01FF683B9060093071000233CE1002E
S31500003D006FF00FAE83B906006FF08FAC83B7060075
S31500003D10938907006FF04F9A1B8B0600E34860AD4E
S31500003D206FF05FAF9B88150013070601B387670125
S31500003D3023308601233466012330F10E232C110D26
S31500003D4093067000E3D616131306010D938504003F
S31500003D5013050900EF708039E31A05848328810D65
S31500003D608337010E130801169B88180013060A00F4
S31500003D706FF00F8BB7FD000093870DED930680075C
S31500003D802334F1020336810193F70C0213078600F0
S31500003D90638407148339060093F71C00638E0700BB
S31500003DA0638C090013EE2C00930700032308F10A25
S31500003DB0A308D10A9B0C0E0013FEFCBF1B0D0E00C0
S31500003DC0233CE100930720006FF08FA1138D0C00B8
S31500003DD06FF08FB21306010D9385040013050900D9
S31500003DE0EF70C030631405FC8337010E13080A0018
S31500003DF06FF00FD9B7FD000093878DEE930680050F
S31500003E002334F1026FF01FF813EE0C200343140065
S31500003E109B0C0E00130414006FE09FBE13EE0C0201
S31500003E20034314009B0C0E00130414006FE05FBDE7
S31500003E30930760009B890800E3EA170937F700003B
S31500003E40233C8101130D0000138B090013060000AB
S31500003E509308000023380102233C0102233C01049D
S31500003E60930D07F06FE09FBFB7FE00001306000139
S31500003E708326810D138C0E0993080001930B7000A5
S31500003E80634866016F00803C1B0B0BFF63D0683DE7
S31500003E909B86160093870701233088012334180177
S31500003EA02330F10E232CD10C13080801E3DEDBFCD2
S31500003EB01306010D9385040013050900EF70002316
S31500003EC0631605EE8337010E8326810D13080A005B
S31500003ED0930800016FF05FFB93F70C0163820716EE
S31500003EE0833906006FF05FEB1306010D938504001E
S31500003EF013050900EF70801F631A05EA8337010E68
S31500003F008326810D13060A006FE01FE91306010DD3
S31500003F109385040013050900EF70401D631805E83A
S31500003F208337010E8325810D13060A006FE01FEA11
S31500003F3093770D402330F102130BC11463920714DB
S31500003F40930D0B009306A00093059000B3F7D902DA
S31500003F5003370102938DFDFF138609001B07170027
S31500003F602330E1029B8707032380FD00B3D9D902E2
S31500003F70E3EEC5FC6FF00FB7833489016FE09F94C1
S31500003F808326810DB7F50000938585F09B86160084
S31500003F902330B80093871700930510002334B80028
S31500003FA0232CD10C9B8506002330F10E930670005E
S31500003FB01308080163C6B66C631A061A03370102B2
S31500003FC093F61C00B366D700639406006FE05FB6F5
S31500003FD00326810D0337810783368108B307F7006F
S31500003FE02330D8009B0616002334E8002330F10E58
S31500003FF0232CD10C130670006342D67413080801F3
S315000040006F00001A1306010D9385040013050900BD
S31500004010233411052330F10523385100EF70000DCC
S31500004020631605D80346F10A8337010E83388104E7
S31500004030833F01048332010113080A006FE01FA4C5
S3150000404093F70C0483290600638A071E93990903D4
S3150000405093D909036FF05FD41306010D938504000D
S3150000406013050900EF708008631205D48337010E2B
S3150000407013080A006FF0CFAC233CE1006FF0CFDCF1
S315000040802330010213060B009306A000930C900048
S31500004090130CF00F6F004001B3D7D90263F43CA5AF
S315000040A09389070013860D0003370102930DF6FF6F
S315000040B01B0717002330E102B3F7D9029B870703DA
S315000040C0A30FF6FE8337010683C70700E316F7FC46
S315000040D0E38487FD63F83CA1833701078335010834
S315000040E023380103B38DFD401386070013850D00A9
S315000040F023381101EF60505E033701069306A000D6
S31500004100B3D7D902034617008338010103380103E8
S315000041103336C0003307C700233001022330E106DF
S315000041206FF01FF813850D0023380101EFE08FE2D1
S315000041301B0B05000346F10A9349FBFF93D9F9438C
S31500004140233C810123380102233C0102233C010464
S3150000415003380101B3F96901130D0000930800004B
S31500004160631406006FE09F8F6FE09FAE8325810D7D
S31500004170033781078336810813080801B307F70060
S315000041802338D8FE9B861500233CE8FE2330F10E2B
S31500004190232CD10C9305700063C2D55AE344063430
S315000041A0033701021B8616002330B801B307F70058
S315000041B02334E8002330F10E232CC10C13077000C2
S315000041C06344C7006FE09F966FE0DFC79B0617004A
S315000041D0B387770123308801233478012330F10E29
S315000041E0232CD10C130770006344D7006FE01F9493
S315000041F06FE05FC537F70000930D07EB6FE0DFA2B6
S3150000420093770D20638C075093F9F90F233CE10057
S31500004210930710006FE0DFDC93F70C20638A074EEC
S3150000422083890600938709006FE01FC993F70C2066
S315000042306380075093F9F90F6FE09FD993F70C202D
S31500004240638A074A93F9F90F6FF01FB51B861600AC
S31500004250B387670123308801233468012330F10EC8
S31500004260232CC10C930670001308080163D0C6DC2A
S315000042701306010D9385040013050900EF6010670E
S31500004280631605B28337010E13080A006FF00FDAC2
S315000042909307D002A307F10A1306D0026FE09F9797
S315000042A003370102B7FE0000130370003387ED00E9
S315000042B02330E10403378103130C0001938B0E09AD
S315000042C0630C070C03370103631C070C0337010655
S315000042D01307F7FF2330E106033781031B07F7FFB8
S315000042E02334E10483360108033701071308080164
S315000042F02338D8FE8326810DB387E700233CE8FEEA
S315000043001B8616002330F10E232CC10C6342C32CEE
S315000043100337010603460700033701041B0F060097
S31500004320BB0567412338E10493060F0063D4E5011A
S31500004330938605009B8F0600635AF0030326810DC2
S31500004340B387F701233068019B0616002334F80172
S315000043502330F10E232CD10C6340D32A03370106F8
S3150000436013080801034607001B0F060093C6FFFF4C
S3150000437093D6F643B3F6DF003B0FDF40634AE019FE
S3150000438003378103330BCB0063080702033781042D
S31500004390233CE102E31807F203370103630A073CF3
S315000043A0033701031B07F7FF2338E10203378103B5
S315000043B02334E1046FF01FF337F30000930E70000F
S315000043C0930B0001130C0309833501036388053A37
S315000043D08336010803370107130808012338D8FE7E
S315000043E08326810DB387E700233CE8FE1B86160073
S315000043F01B87F5FF2330F10E232CC10C2338E10275
S3150000440063C4CE1A033701060346070003370104C7
S315000044101B0F0600BB05674193060F0063D4E50139
S31500004420938605009B8F0600635AF0030326810DD1
S31500004430B387F701233068019B0616002334F80181
S315000044402330F10E232CD10C63C6DE1E0337010682
S3150000445013080801034607001B0F060093C6FFFF5B
S3150000446093D6F643B3F6DF003B0FDF406346E00129
S31500004470330BCB006FF05FF58326810D63C8EB012C
S315000044806F0000061B0F0FFF63DCEB059B86160013
S315000044909387070123308801233478012330F10EF6
S315000044A0232CD10C13080801E3DEDEFC1306010DF4
S315000044B093850400130509002338E101EF601043DA
S315000044C06316058E033F01018337010E8326810D96
S315000044D01B0F0FFF13080A00930E7000E3C8EBFBD7
S315000044E01B861600B387E701233088012334E801D1
S315000044F02330F10E232CC10C63C0CE3C03370106DA
S315000045001308080103460700330BCB006FF0DFEBFF
S315000045108326810D6348EC016F0040061B0F0FFFD9
S31500004520635EEC059B8616009387070123307801AE
S31500004530233488012330F10E232CD10C13080801F3
S31500004540E35ED3FC1306010D9385040013050900F1
S315000045502338E101EF609039630405006FF00F85A1
S31500004560033F01018337010E8326810D1B0F0FFFC9
S3150000457013080A0013037000E346ECFB1B861600C3
S31500004580B387E701233078012334E8012330F10EA5
S31500004590232CC10C634AC32E0337010613080801F6
S315000045A0034607006FF0DFDD1306010D9385040057
S315000045B013050900EF609033630405006FE01FFFE9
S315000045C08337010E13080A00930E70006FF09FE305
S315000045D01306010D9385040013050900EF601031E1
S315000045E0630405006FE09FFC8337010E13080A0081
S315000045F0130370006FF0DFD11306010D93850400DD
S31500004600130509002338F101EF60502E63040500FD
S315000046106FE0DFF983370106833F010113080A00C3
S3150000462003C60700130370008337010E1B0F060035
S315000046306FF0DFD31306010D9385040013050900FF
S315000046402338F101EF60902A630405006FE01FF63E
S3150000465083370106833F010113080A0003C60700DA
S31500004660930E70008337010E1B0F06006FF01FDFDD
S315000046709B88180013080701130607006FE04FFA1E
S315000046801306010D9385040013050900EF6010263B
S31500004690630405006FE09FF10326810B8337010E4B
S315000046A013080A006FF05F911306010D938504004D
S315000046B013050900EF609023630405006FE01FEF08
S315000046C08337010E13080A006FF0CF949309600038
S315000046D06FF0CFF63B06D7403387ED003B0B6741C3
S315000046E0130706006354CB0013070B009B0B070050
S315000046F06FF04F9E9399090293D909026FF0CFE9A3
S3150000470083378100930D04002310F7006FE0CFC6B6
S3150000471083A90600938709006FE00FFA93990902AF
S3150000472093D90902233CE100930710006FE05F8BE9
S315000047309399090293D909026FE09F891306010D27
S315000047409385040013050900EF60501A6304050001
S315000047506FE0DFE50326810B8337010E8326810D8B
S3150000476013080A006FF09FA3930860006FF0CFBA9A
S31500004770033701023387ED002338E10403370105CF
S31500004780637E678B130B07006FF04F8B9307D0FF89
S315000047906344F70063D8E8009B8BEBFF13FBFBFD3C
S315000047A06FF04FC283370102634CF74E93F719003F
S315000047B0130B070063860700833781073B8BE700EF
S315000047C093F909406386090083378105634CF074C9
S315000047D09349FBFF93D9F943B3793B019B890900C0
S315000047E0930B700623380102233C01026FF0CFCEF3
S315000047F053054A239307810C9306810B1386080001
S315000048001307C10B93053000130509002338010374
S3150000481023301103EF1000018346050093070003C0
S315000048208338010203380103930D0500638EF60EEB
S315000048308327810BB3871701B386FD00D30700F2E8
S31500004840138C0600D327FAA2639E07B4033C810C9F
S31500004850637ADCB41306000393071C002334F10CBF
S315000048602300CC00033C810CE368DCFE6FF08FB3C1
S315000048709307D002A307F10A1306D002930800009B
S315000048809B8919006FE08F9D1306010D9385040027
S3150000489013050900EF609005630405006FE01FD162
S315000048A08337010613080A001303700003C60700C6
S315000048B08337010E6FF0DFAC1306010D93850400FC
S315000048C013050900EF609002630405006FE01FCE38
S315000048D08337010613080A00930E700003C607000B
S315000048E08337010E330BCB006FF01FAE9B0617000C
S315000048F013870600B3876701233088016FE0CFA1D5
S315000049001306010D9385040013050900EF60007E70
S31500004910630405006FE09FC98326810B8337010E70
S3150000492013080A006FE01FF6D30700F2D327FAA296
S31500004930E39007F093061000BB871641232CF10A7B
S315000049406FF05FEF0346F10A233C81012338010231
S31500004950233C0102233C010493890800138B0800C1
S3150000496093080000631406006FE04F8F6FE04FAEB0
S3150000497093F71900B3E7F8006358E0666394076499
S31500004980130B0700930B600693F90940639E0958C1
S315000049909349FBFF93D9F943B3793B019B890900FE
S315000049A06FF05FE4930700032308F10A930780057D
S315000049B093E92C00A308F10A930730069B890900A6
S315000049C0130D0000930D810E63CE174783378106C2
S315000049D013EE2C1023380100538A07F2D38707F20F
S315000049E09B0C0E0013FBFBFD63CC072693071006FA
S315000049F0638AFB4E930710046394FB9453054A2382
S31500004A001305810B2338010323301103EF60C02601
S31500004A10D3773513530700F28338010203380103B5
S31500004A20D3A7E7A26386070093071000232CF10A99
S31500004A3037F60000130686EE939E080293DE0E02FA
S31500004A40938E1E00D30600F2B38EDD01138C0D008B
S31500004A503B8F1D016F00C000D3A7D7A2639C07023E
S31500004A60D3F7871213050C00130C1C00BB068F41ED
S31500004A70D39707C29B850700B30FB60083CF0F00FD
S31500004A80538707D2A30FFCFFD3F7E70AE316DCFD33
S31500004A909306F0FFD317F9A263900732D3A727A393
S31500004AA06386070093F51500639805309B87F6FF2C
S31500004AB063CA068E3306804113767600930E76001F
S31500004AC0930FB0001B8F06009B85160063F4FE0152
S31500004AD0930EB0006366DF5B6300065A930E000315
S31500004AE02300DC01130F1000130525009B87E6FF4A
S31500004AF0630AE607A300DC01130F200013052C0050
S31500004B009B87D6FF6300E6072301DC01130F300005
S31500004B1013053C009B87C6FF6306E605A301DC017F
S31500004B20130F400013054C009B87B6FF630CE6038A
S31500004B302302DC01130F500013055C009B87A6FFC0
S31500004B406302E603A302DC01130F700013056C0079
S31500004B509B8796FF6318E60113057C002303DC019F
S31500004B609B8786FFBB85C5409BDE35003306CC00A0
S31500004B70939E3E001B8F0500B38ECE00033781093E
S31500004B8013068600233CE6FEE31AD6FF93F585FF5F
S31500004B909B85050013960502135606023305C500CC
S31500004BA0BB87B7406382E50B130600032300C500ED
S31500004BB063CC0708A300C5006358F0082301C500AD
S31500004BC09305100063D2F508A301C50093052000E4
S31500004BD063DCF5062302C5009305300063D6F506AF
S31500004BE0A302C5009305400063D0F5062303C50064
S31500004BF09305500063DAF504A303C500930560002E
S31500004C0063D4F5042304C5009305700063DEF50242
S31500004C10A304C500130680006358F60213060003BA
S31500004C202305C5009305900063D0F502A305C500D2
S31500004C309305A00063DAF5002306C5009305B000CE
S31500004C4063D4F500A306C5009B861600330CDC0072
S31500004C506FE05FF5D30707F2130D0000938C070092
S31500004C609307D002539AF7222338F1006FF01FD82A
S31500004C701306010D9385040013050900EF60004734
S31500004C80630405006FE09F920326810B0337010240
S31500004C908337010E13080A003B06C7406FE09FC327
S31500004CA01387070083378107930B70063B8BE7005A
S31500004CB003378105E34AE0CCBB07EB409B8717002F
S31500004CC01B8B07009349FBFF93D9F943B3F73701D1
S31500004CD09B8907006FF01FB19307F0FF2334F100A3
S31500004CE06FE0DF8EB7FE0000930500FF3B0BC04070
S31500004CF0138C0E0993080001930B70006348B600ED
S31500004D006F0080051B0B0BFF63D868059B8616009A
S31500004D109387070123308801233418012330F10ECD
S31500004D20232CD10C13080801E3DEDBFC1306010D6E
S31500004D309385040013050900EF60403B63040500FA
S31500004D406FE0DF868337010E8326810D13080A0084
S31500004D50930800016FF01FFB9B861600B38767015F
S31500004D6023308801233468012330F10E232CD10C23
S31500004D70130670006354D6A81306010D938504002C
S31500004D8013050900EF608036630405006FE01F829B
S31500004D908337010E8326810D13080A006FF04FC07A
S31500004DA0930700032308F10A930780076FF05FC09B
S31500004DB0138D0C006FE0DF892334A10C8346FCFFC2
S31500004DC08345F60093070C006390D5021305000394
S31500004DD0A38FA7FE8337810C9386F7FF2334D10C6C
S31500004DE083C6F7FFE386D5FE9B8516001305900361
S31500004DF093F5F50F6386A600A38FB7FE6FE09FDAE3
S31500004E008345A600A38FB7FE6FE0DFD91B8C180081
S31500004E109306810B9307810C1307C10B13060C0035
S31500004E20930520001305090023301103EF00901F9E
S31500004E30930D05008338010203380103B3868D0103
S31500004E406FF0DF9F9B8518001305090023300103CF
S31500004E5023381101EF30C0098338010103380102FC
S31500004E60930D0500630E0522130D05006FF01FB6A6
S31500004E702320F700930D04006FD01FD06384080031
S31500004E806FE09FC9930810006FE01FC9233CE10043
S31500004E906FE00FFC9306210C6318060093060003CF
S31500004EA02301D10C9306310C1307011D9B870703C1
S31500004EB03386E6402380F6009B0716112338F10857
S31500004EC06FE01FDD8337810663CC07160346F10AC0
S31500004ED09307700463D0771737F70000930D87ECBC
S31500004EE06FD09FD453054A231305810B2338010342
S31500004EF023301103EF505058D3773513530700F280
S31500004F008338010203380103D3A7E7A263860700AB
S31500004F1093071000232CF10A37F60000130606ED5E
S31500004F206FF09FB1930B7006833701069306F00F5F
S31500004F302338010283C70700233C01026380D7049C
S31500004F401306F00F033781059B86070063D8E70237
S31500004F50833501063B07D740233CE10483C7150090
S31500004F6063860704033781031B071700233CE1020E
S31500004F70138715002330E106E396C7FC03370103C8
S31500004F8083378103BB87E70003370107BB87E70247
S31500004F90BB8767011B8B07009349FBFF93D9F94336
S31500004FA0B3F737019B8907006FE01FD3033701036F
S31500004FB083C705001B0717002338E102E394C7F8EF
S31500004FC06FF0DFFB83378107930B60063B8BE700AF
S31500004FD03B0B1B016FF05F9B93F619006394060071
S31500004FE06FE01FCD6FE05FCC639A07009309100056
S31500004FF0930B6006130B10006FF0CFFE833781070B
S31500005000930B60069B871700BB8817011B8B080054
S315000050109349FBFF93D9F943B3F838019B890800FC
S315000050206FF04FFCB7FE000013070800138C0E0943
S315000050306FE0DFCF37F70000930D07EC6FD0DFBED0
S315000050409307D002A307F10A1306D0026FF05FE8B8
S315000050500337810183260700930B87009B88060090
S3150000506063D406009308F0FF03431400233C710148
S31500005070138407006FD0DF9813050C006FF09FAE06
S3150000508013050C006FF05FB2930720002338F10878
S315000050906FE01FC0138C0800B3868D016FF00FFA06
S315000050A083D7040193E707042398F4006FE00FD138
S315000050B09307050003B5012C930606001386050029
S315000050C0938507006FD08FF583D7050103AE850A58
S315000050D003D3250183B8850303B88504130101B3FF
S315000050E093F7D7FF130700402330814C2318F100B4
S315000050F0138405009307010B93050100233C914A95
S315000051002338214B2334114C130905002324C10BEA
S3150000511023196100233C1103233401052330F100D8
S31500005120233CF1002326E1002320E102232401028F
S31500005130EFD0CFEE93040500635C050283570101AF
S3150000514093F70704638807008357040193E707046E
S315000051502318F4008330814C0334014C0339014B8E
S31500005160138504008334814B1301014D67800000D1
S315000051709305010013050900EF10D034E30005FC88
S315000051809304F0FF6FF09FFB130101FE233491009F
S3150000519083B4012C2338810023302101233C1100E4
S315000051A013090500138405006386040083A704031E
S315000051B0638E0706B7F700009387071A6302F408A1
S315000051C0B7F7000093878716630EF410B7F7000051
S315000051D0938707136306F414031704019317070351
S315000051E09376870093D70703638806068336840180
S315000051F06388060813F61700630C060A03260402E2
S3150000520023260400130500003B06C0402324C402E5
S31500005210638E060A833081010334010183348100E1
S3150000522003390100130101026780000013850400A1
S31500005230EF105077B7F700009387071AE312F4F8D8
S3150000524003B48400031704019317070393768700BA
S3150000525093D70703E39C06F893F607016386060CCB
S3150000526093F7470063940708833684011367870022
S31500005270931707032318E40093D70703E39C06F666
S3150000528013F6072893050020E306B6F693050400F7
S3150000529013050900EF20101E03170401833684014D
S315000052A09317070393D7070313F61700E31806F4BB
S315000052B013F62700930500006314060083250402F5
S315000052C02326B40013050000E39606F493F70708B7
S315000052D0E38207F4136707042318E4001305F0FFBD
S315000052E06FF05FF303B404016FF01FEF833504061C
S315000052F0638E05009307C4076388F500130509004C
S31500005300EF10107F0317040123300406833684014F
S315000053101377B7FD232404002330D4006FF01FF564
S3150000532003B484016FF05FEB930790002320F9002C
S31500005330136707042318E4001305F0FF6FF09FEDD1
S3150000534083B701326384070603A787001308F001B9
S315000053506344E80A630C050203B80711630E0808E4
S3150000536093183700B308180123B0C8000323082098
S31500005370130610003B16E6003363C30023206820A3
S3150000538023B0D810930620006302D50493062700A5
S31500005390939636001B07170023A4E700B387D700B0
S315000053A023B0B70013050000678000009388016CE6
S315000053B023B01133130700009387016CE30607F847
S315000053C00337000023B8E7106FF01FF88326482044
S315000053D01305000033E6C600930627002322C820E3
S315000053E01B0717009396360023A4E700B387D70060
S315000053F023B0B700678000001305F0FF6780000048
S31500005400130101FA233451032330210503B9013274
S31500005410233C11042338810423349104233C3103B3
S315000054202338410323306103233C71012338810172
S31500005430233491012330A101630A090A930B050065
S31500005440138A0500130B1000130DF0FF8324890047
S31500005450033C09111B84F4FF634A040863040A0E23
S3150000546063060C0893943400B3099C00B3049900B6
S315000054706F0040011B04F4FF938989FF938484FF26
S315000054806306A40783B7890FE316FAFE832C890007
S3150000549003B784009B87FCFF638A870823B4040054
S315000054A0E30A07FC83270C20BB168B00B3F7D70053
S315000054B09B8707006388070683274C2083B589FFEF
S315000054C0B3F7D7009B870700638807061385050097
S315000054D0E70007000327890083B7013263149701A9
S315000054E0E30AF9F813890700E39207F6833081058A
S315000054F003340105833481040339010483398103AC
