S0160000746D705F73696E676C65636F72652E7372656333
S3150000000097F1000093810160B762000073A002308F
S3150000001073103000970200009382C20D7390523025
S31500000020732440F163100402970200009382820D4C
S3150000003073905230EF00D032970200009382825DB7
S31500000040E780020013132400970200009382420403
S31500000050B302530003A302000F00F00FE31C03FEDC
S31500000060138E014993134400B30E7E00138F8E0046
S3150000007083BF0E0003310F009702000093828208AF
S3150000008073905230732540F1E7800F007300100023
S31500000090730010007300100073001000730010004E
S315000000A0730010007300100073001000730010003E
S315000000B0730010007300100073001000730010002E
S315000000C0730010007300100073001000130000008E
S315000000D01313250097030000938383FBB302730079
S315000000E00F00500F2FA002081305000067800000C4
S315000000F0730010001300000013000000130000003E
S3150000010073202034130181DE23301100233831009F
S31500000110233C41002330510223346102233871020B
S31500000120233C8102233091042334A1042338B104F3
S31500000130233CC1042330D1062334E1062338F106DB
S31500000140233C0107233011092334210923383109BF
S31500000150233C41092330510B2334610B2338710BA7
S31500000160233C810B2330910D2334A10D2338B10D8F
S31500000170233CC10D2330D10F2334E10F2338F10F77
S3150000018073250030F325103473262034233CA10E4A
S315000001902330B1102334C110F3223000232851102C
S315000001A0273C01102730111227342112273831122B
S315000001B0273C411227305114273461142738711413
S315000001C0273C8114273091162734A1162738B116FB
S315000001D0273CC1162730D1182734E1182738F118E3
S315000001E0273C01192730111B2734211B2738311BC7
S315000001F0273C411B2730511D2734611D2738711DAF
S31500000200273C811D2730911F2734A11F2738B11F96
S31500000210273CC11F2730D1212734E1212738F1217E
S3150000022063560600EF0010236F00C000930601001E
S31500000230EF00D021833001008331010103328101B7
S3150000024083320102033381028333010303348103C2
S3150000025083340104033581048335010503368105A2
S315000002608336010603378106833701070338810782
S31500000270833801080339810883390109033A810962
S31500000280833A010A033B810A833B010B033C810B42
S31500000290833C010C033D810C833D010D033E810D22
S315000002A0833E010E0730811187300112073181121A
S315000002B08731011307328113873201140733811402
S315000002C087330115073481158734011607358116E2
S315000002D087350117073681178736011807378118C2
S315000002E087370119073881198738011A0739811AA2
S315000002F08739011B073A811B873A011C073B811C82
S31500000300873B011D073C811D873C011E073D811E61
S31500000310873D011F073E811F873E0120073F812041
S31500000320873F0121832E011173903E00033F810F09
S31500000330833F011073100F3073901F34033F810EFB
S31500000340833F010F1301812173002030000000005C
S31500000350B7F5FF03130101F8939565009385051022
S3150000036013050103233C110623388106EF00C03E26
S315000003700347A10393071000833501030346810356
S31500000380834691036300F72637E700001307074506
S315000003900345B103930710006302F526B7E7000093
S315000003A0938707450348C103130510006302A82479
S315000003B037E800001308084537E500001305854DAA
S315000003C0EF10006C8345810337E5000013050556E1
S315000003D0EF10006B1306803E9305300213050103F0
S315000003E0EF00C04103B48126930500001305010305
S315000003F013060400EF00C04B13060400930510001B
S3150000040013050103EF00C04A1306040093052000FC
S3150000041013050103EF00C04993050103130501000D
S31500000420EF00804D83370100130581042334F10466
S31500000430833781002338F10483370101233CF1041B
S31500000440833781012330F106833701022334F10615
S31500000450EF0000608345810337E500001305055A68
S31500000460EF1000621306803E930530021305010368
S31500000470EF00C03803B401279305000013050103FC
S3150000048013060400EF00C042130604009305100093
S3150000049013050103EF00C041930501031305010095
S315000004A0EF00804583370100130581042334F104EE
S315000004B0833781002338F10483370101233CF1049B
S315000004C0833781012330F106833701022334F10695
S315000004D0EF0000588345810337E500001305055EEC
S315000004E0EF10005A1306803E9305300213050103F0
S315000004F0EF00C03003B681279305100013050103F2
S31500000500EF00003B9305010313050100EF00C03E19
S3150000051083370100130581042334F10483378100F6
S315000005202338F10483370101233CF1048337810129
S315000005302330F106833701022334F106EF004051E0
S315000005408345810337E5000013050562EF1040532C
S315000005501306803E9305300213050103EF00002ABF
S3150000056003B40128930500001305010313060400D4
S31500000570EF00003403B6812893051000130501032C
S31500000580EF00003313060400930520001305010352
S31500000590EF0000329305010313050100EF00C0359B
S315000005A083370100130581042334F1048337810066
S315000005B02338F10483370101233CF1048337810199
S315000005C02330F106833701022334F106EF00404859
S315000005D08330810703340107130500001301010866
S315000005E06780000037E70000130787446FF05FDA83
S315000005F037E80000130888446FF01FDCB7E70000F7
S31500000600938787446FF01FDA0000000000000000A7
S31500000610EF0000551304010093020000639E0200E0
S315000006201385013617F600001306C67AB306A640F0
S3150000063093D53600EF00C0539382014023B0820069
S31500000640EF000055EF00C051EF00807FEF0010056E
S31500000650EF00806C171500001305852CEF10C027DE
S31500000660EF108031EF00C04F9382813603A5020060
S315000006709382813283B5020013060000EFF05FCD4E
S31500000680EF10C026730010000000000000000000FC
S315000006909387812613878126630AF7009307000054
S315000006A06386070013858126678007006780000040
S315000006B09387812693858126B385F54093D7354068
S315000006C093D5F503B385F50093D51540638A0500E8
S315000006D0930700006386070013858126678007005D
S315000006E067800000130101FF2330810083C781402A
S315000006F02334110063920702EFF09FF9930700007D
S31500000700638807001385013597000000E7000000A5
S31500000710930710002384F1408330810003340100E5
S31500000720130101016780000093070000638407023C
S31500000730130101FF9385014113850135233411000F
S3150000074097000000E70000008330810013010101DB
S315000007506FF01FF66FF0DFF583B78509130101FE11
S31500000760233C11002334F10003378100B757555558
S315000007702330B50013570702938757556312F706C0
S31500000780833581000336810083368100033781007B
S315000007908337810093D585001356C60093D616017C
S315000007A01357270193D7370193F5F5001376F60112
S315000007B093F616001377170093F717002304B50076
S315000007C0A304C5002306D500A305E5002305F5000F
S315000007D083308101130500001301010267800000C8
S315000007E037E5000013058539EF108043833081011A
S315000007F0130510001301010267800000033805008D
S31500000800130101FE9307F000233C1100233CF80E70
S3150000081083378809930610002334F100833781005B
S3150000082093F7F7016398D7068346950093F8F5008A
S315000008301387050093D5450063EE160363ECB802F3
S3150000084063FAB70293978702A306E500931586001D
S31500000850938707F083308101B3F7F5002338C5008D
S3150000086033E7E7002330E800130500001301010217
S315000008706780000037E50000138608001305053D74
S31500000880EF100020833081011305100013010102CF
S315000008906780000037E500001305053BEF10403880
S315000008A083308101130510001301010267800000E7
S315000008B08347950063E0B7028337050093851500EB
S315000008C093953500B385B70023B0C5001305000026
S315000008D06780000037E50000130101FF130585411D
S315000008E023341100EF10C03383308100130510004C
S315000008F0130101016780000083C6D500130101F9C9
S3150000090023340104930710012304D1042334F10096
S315000009108337810423380100233C01002330F10290
S31500000920233401022338010203B70500233C0102E8
S3150000093023380104233C0104233001062334010635
S31500000940233001048337810093873700939737005C
S31500000950B307F70083B707002338F1008337010197
S3150000096093F71700233CF10083378101E38C07FCE2
S315000009708337010103C6C50093D787009397070302
S3150000098093D707032312F102630C06008337010194
S3150000099093D787019397070393D707032311F10290
S315000009A003C8A500630E08008337810093874700BC
S315000009B0939737003307F700833707002334F10294
S315000009C093F7F60093D846009386070063880702DC
S315000009D0130700009B88F8FF630A06048357210269
S315000009E09397070393D70703BBD7E74093F71700FF
S315000009F0638A07041B071700E310D7FE833501023D
S31500000A0003368102833601030337810383370104EA
S31500000A102330B5002334C5002338D500233CE50038
S31500000A202330F50213010107678000009B1527009C
S31500000A30E30208FC83378102B3D7B70093F7F700C8
S31500000A40E3EA17FB930710002308F1026FF01FFB80
S31500000A50130101FC2338810223306101233C11027A
S31500000A602334910223302103233C310123384101F1
S31500000A70233451018344050083470501835645000D
S31500000A8013F4F40093D5440003572500130B050017
S31500000A9093040400639C070AB7E7000093870745A1
S31500000AA037E500001386040013050547EF00507D67
S31500000AB0630A040637E9000037EA0000B7EA0000D7
S31500000AC013040000B7E9000013098945130A0A4612
S31500000AD0938A8A4683368B001B17240083574B0064
S31500000AE0B3D6E60003572B00BBD7874093F7170012
S31500000AF03B578740930504001385094B93F6F60090
S31500000B00137717001B0414001306090063980700E7
S31500000B1013060A006314070013860A00EF005076D6
S31500000B20E39A84FA83308103033401038334810218
S31500000B300339010283398101033A0101833A8100B5
S31500000B40033B01001301010467800000B7E70000C2
S31500000B50938787446FF0DFF403A5013867800000B0
S31500000B606780000000000000000000000000000098
S31500000B709387F5FF638C05001307F0FF233005000C
S31500000B809387F7FF13058500E39AE7FE6780000069
S31500000B90B7F7000037F70000138607E0930507E074
S31500000BA06304B60AB7F60000938606E063FED5082E
S31500000BB03365B6009386F6FF13757500130707E0D5
S31500000BC0B386B6406310050613B5C6021345150075
S31500000BD01375F50F6308050493D626009386160051
S31500000BE013D8160013183800938707E03308060158
S31500000BF003B507009387870013078700233CA7FEEA
S31500000C00E39807FF13F5E6FF13172500B307E60081
S31500000C10B385E500638AA60283A7070023A0F50033
S31500000C206780000093F6C6FF93864600B306D6009B
S31500000C30938707E003A7070093874700938545003E
S31500000C4023AEE5FEE398F6FE678000007300100011
S31500000C50678000009317160093D717001307B0009C
S31500000C606386E7007300100067800000130101FD32
S31500000C702334310183B98137B70720002338210196
S31500000C80B389F90003A94900233041012334110235
S31500000C9023308102233C91001B090900138A015964
S31500000CA0630209049317090293D7D701B307FA0021
S31500000CB003B407009B040900630E04008337040194
S31500000CC00335840193850400E7800700033404009C
S31500000CD0E31604FE23A2290103A949001B09090002
S31500000CE0E31209FC8330810203340102833481015B
S31500000CF00339010183398100033A0100130101031D
S31500000D006780000083A70138130500009B87170042
S31500000D1023A0F13867800000130101FA233881040B
S31500000D2083A70138233C110423349104638E070CF6
S31500000D3083B78137639A070203A50133B71700000B
S31500000D409387477713080100130740009306200096
S31500000D501306200C93051000EF0090209317050250
S31500000D6093D7070223BCF13683B70137639A07028C
S31500000D7003A50133B71700009387477713080100CF
S31500000D8013074000930620001306300C930510004D
S31500000D90EF00101D9317050293D7070223B8F1360B
S31500000DA003A7413883B68137930710001B17270026
S31500000DB0130707201317C7003387E6002320070011
S31500000DC09305100013060002139727003387E600E9
S31500000DD02320B7009B871700E398C7FEB7170000CC
S31500000DE09B87078073A047309307800073A0073066
S31500000DF08330810503340105833481041305000023
S31500000E00130101066780000003A50133B717000030
S31500000E10938747D01308000013074000930610007D
S31500000E201306D00B93051000EF00901383A701382B
S31500000E30E39007F09307100023A0F1386FF05FEFFF
S31500000E40130101FF2330810083B781382334110059
S31500000E5013050000639C070203A50133B7170000C2
S31500000E601308000093874777130740009306400056
S31500000E701306C00093051000EF00900E131505022F
S31500000E801355050223B4A1381335150083308100AC
S31500000E90033401001301010167800000130101FD05
S31500000EA02330810283B781392334110213050000F0
S31500000EB0638A0700833081020334010213010103B0
S31500000EC06780000003A50133B717000093874777B3
S31500000ED01308810013074000930640001306100113
S31500000EE093051000EF00D0079317050293D707026A
S31500000EF023BCF13813051000E38E07FA034791006F
S31500000F00833081020334010223A8E138130500006F
S31500000F101301010367800000638205206302062E29
S31500000F2003A70500233CB6029B57570093F6070616
S31500000F301377F70193F7F70133E7E6002300F6008E
S31500000F40A300E60083A705016396071213070000B6
S31500000F5093060000130800002306060183A7450137
S31500000F602322D6002324E600638607181B97070171
S31500000F70B706F0FF33F7E7003377D70013F8F7002B
S31500000F80930830001B07070093060800630A182120
S31500000F909BD747009B97470193C7F7FF9B8707009F
S31500000FA01308F0FF638807171317070293970702C2
S31500000FB013570702B367F7002338F60083A78501A6
S31500000FC0230CD6009308F0FF638E07109B9607014B
S31500000FD03707F0FFB3F6D700B3F6E6001303300089
S31500000FE013F7F7009B8606001308070063026718CD
S31500000FF01BD747001B1747011347F7FF1B070700BF
S315000010006306171183A7C501232ED6002320E60207
S31500001010230206036382070A1B970701B706F0FF40
S3150000102033F7E7003377D70093F5F700130830005E
S315000010301B070700938605006386050F9BD74700AD
S315000010409B97470193C7F7FF9B8707009305F0FF20
S31500001050638AB70A13170702135707029397070203
S31500001060B367F7002334F6022308D60213050000FF
S31500001070678000009B9607013707F0FFB3F6D7009D
S31500001080B3F6E6009308300013F7F7009B860600D8
S3150000109013080700630E17131BD747001B174701DA
S315000010A01347F7FF1B0707009307F0FFE316F7EA5E
S315000010B0130700006FF05FEA1307000093070000B4
S315000010C013170702135707029397070293060000A8
S315000010D0B367F7002334F6022308D602130500008F
S315000010E06780000013070000930600001308000045
S315000010F06FF05FF1930700001307000093060000EE
S315000011006FF09FEA930700006FF0DFF4130700000B
S315000011106FF05FEF930700006FF01FE913051000F3
S315000011206780000093C7F7FF9BD74700B7051000FD
S31500001130938505F09B9787001B57C700B3F7B70049
S315000011403367E50093E7F70F1B0707009B87070048
S31500001150131707021357070293970702B367F7009F
S315000011602334F6022308D602130500006780000028
S3150000117013C7F7FF1B574700B70710001B17870059
S31500001180938707F09BD6C6003377F700B366D50082
S315000011901367F70F9B8606001B0707006FF09FE695
S315000011A093C7F7FF9BD74700370810009B97870028
S315000011B0130808F01B57C700B3F707013367E500AC
S315000011C093E7F70F1B0707009B8707006FF0DFDD2C
S315000011D013C7F7FF1B574700B70710001B178700F9
S315000011E0938707F09BD6C6003377F700B366D50022
S315000011F01367F70F9B8606001B0707006FF0DFD506
S315000012001305200067800000130101F2233C310B17
S315000012102338410B2330610B233C71092334910998
S315000012202330A1092330D102233C110C2338810C31
S315000012302334910C2330210D2334510B233881099B
S31500001240233CB10793F6160023341101930C0500D5
S31500001250138B0500930B0600130D0700138A070076
S31500001260930908006388061037F40F00336485007D
S315000012701314040213540402630E080E6384053625
S315000012806302063EB7140000138904803309240163
S315000012909384F4FF6F00C00013040402630C240D52
S315000012A0832604009BD7C600B3F797001BD7860199
S315000012B09B87070033E7E7001B0707009BD68601DD
S315000012C0E30C07FCE39A66FDE398FBFC9305040038
S315000012D01306010313850C00EFF01FC4833781004A
S315000012E013070D009306100013860B0093050B00E1
S315000012F013050103E78009001B050500E30E05F849
S315000013006F004010B71A000093870A80330CF40070
S31500001310938AFAFF032704009305040013060103CA
S315000013209B54C700B3F454019B8404009B57870168
S31500001330B3E7F4009B87070013850C00130404022F
S315000013401B59870163860702EFF01FBD83378100B3
S3150000135013070D0093061000138604009305090079
S3150000136013050103E78009001B050500631C05083A
S31500001370E31284FB03370102B7071000938407804A
S31500001380B3E49C00137C2700137747009394040270
S315000013902330E100B71D00003717000093D4040284
S315000013A0938D0D801309F7FF9387F7FF1B071D0029
S315000013B0B38DB401233CE1002334F10203A30400FE
S315000013C01B58C300337709019B5783011B548301C4
S315000013D09B0A0700630C0C00B3E7FA009B87070023
S315000013E0638C0700630E0B04630C8B0463764D015C
S315000013F093071000630CF40893840402E3909DFCA9
S31500001400130500008330810D0334010D8334810CF4
S315000014100339010C8339810B033A010B833A810AA4
S31500001420033B010A833B8109033C0109833C810894
S31500001430033D0108833D81071301010E678000000B
S3150000144063840B00E3945BFBE38209FA1306010352
S315000014509385040013850C0023280101EFF0DFAB10
S315000014608337810013070D009306200013860A00B8
S315000014709305040013050103E78009001B05050019
S3150000148003280101E30405F66FF0DFF79307000276
S315000014906380FA12B71700009387B7FF33F8070186
S315000014A01B0808009307B0046304F8108337010093
S315000014B0E38407F493076000E390FAF483A704013A
S315000014C037F40F001B93070133F36700B707F0FFEC
S315000014D03373F3001B030300336483001314040205
S315000014E013540402930A04086F000001630ABB0246
S315000014F013048400E30254F1032704001B56C700BB
S31500001500337626011B0606009B578701B367F60054
S315000015109B8707009B558701E38C07FCE3180BFCB0
S3150000152063840B00E396CBFCE38409FC9B575700CE
S3150000153093F607061377F70133E7E60093F7F7010B
S315000015402308F102A308E1028326440083378100C1
S31500001550033781011B9546009BD0C6001BD8460069
S31500001560B7061000B3F0A000138506F0833681029B
S315000015701B188800B3F0A0003378A800B3E0600021
S315000015803348D80013050103930640002338610051
S3150000159023308104232A1102232C0103E78009004A
S315000015A01B05050003330101E30405F46FF09FE515
S315000015B003A58400E30C05EE83388100033781011F
S315000015C0833601021388090093070A0013860B006D
S315000015D093050B00EFF05FC31B050500E30805EC60
S315000015E06FF05FE2E30006D237190000930A098024
S315000015F0B30A54011309F9FF6F00C0001304040273
S31500001600E38A8AD6832504009BD7C500B3F7270152
S315000016109B8707001BD7850133E7E7001B070700F9
S315000016209BD48501E30C07FCE39AFBFC93050400BD
S315000016301306010313850C00EFF01F8E833781001C
S3150000164013070D009306100013860B009385040004
S3150000165013050103E78009001B050500E30005FAF1
S315000016606FF05FDA37190000930A0980B30A540154
S315000016701309F9FF6F00C00013040402E30C54CFF2
S31500001680032704009B54C700B3F424019B5787012A
S315000016909B840400B3E7F4009B8707001B57870170
S315000016A0E38C07FCE31AEBFC930504001306010325
S315000016B013850C00EFF05F868337810013070D005A
S315000016C0930610001386040093050B00130501030F
S315000016D0E78009001B050500E30005FA6FF09FD2BD
S315000016E063880506630A060603A805003707100087
S315000016F0130307F09B56580093F806061378F80173
S3150000170093F6F60133E808012300D600A30006018C
S3150000171083A745009306F7FF2338B6001BD7C700FB
S315000017209B9547009BD747003377B7009B97870069
S3150000173033776700B3F767003365A700B3C7D700F1
S315000017402322A6002324F60013050000678000006C
S315000017501305100067800000130520006780000055
S315000017609308080013880700930707001307000073
S315000017706FF09FA9638C070013074000638CE60097
S315000017809B86F6FF130710006376D70203254500F4
S31500001790678000000337050023B0E70003378500A4
S315000017A023B4E700033705010325450023B8E70006
S315000017B067800000033E050003338500833805017A
S315000017C00338850183350502033685028336050312
S315000017D0033785030325450023B0C70123B46700FB
S315000017E023B8170123BC070123B0B70223B4C702ED
S315000017F023B8D70223BCE7026780000083B681378F
S3150000180063820606F375043003A741381B56F5417B
S315000018101B56B6013B06A6001B1727001B56564053
S31500001820131757003307C70013172700B386E600C0
S3150000183037270000B386E60003A7060093071000CB
S31500001840BB97A70093C7F7FFB3F7E7009B8707008F
S3150000185023A0F60093F7850073A007301305000058
S3150000186067800000130510006780000003B781370A
S31500001870630007067376043083A741389B56F5410B
S315000018809BD6B601BB86A6009B9727009BD65640E3
S3150000189093975700B387D700939727003307F7002E
S315000018A0B72700003307F7008327070093061000C9
S315000018B03B95A60033E5A7001B0505002320A700DE
S315000018C09377860073A00730130500006780000039
S315000018D013051000678000009305050093060000BD
S315000018E013060000130500006F30C004130101FF4A
S315000018F093050000233081002334110013040500F2
S31500001900EF30400F03B581318337850463840700C8
S31500001910E780070013050400EFC08042130101FEB3
S3150000192023388100B7F7000037F40000130404DF02
S31500001930938787DFB387874023349100233C1100C8
S3150000194093D4374063800402938787FF33848700EC
S31500001950833704009384F4FF130484FFE7800700B1
S31500001960E39804FE8330810103340101833481004E
S315000019701301010267800000130101FE2338810074
S315000019802330210137F4000037F90000930714DEF5
S31500001990130919DE3309F940233C11002334910061
S315000019A01359394063000902130414DE930400003E
S315000019B0833704009384140013048400E78007002F
S315000019C0E31899FE37F4000037F90000930784DE28
S315000019D0130909DF3309F940135939406300090235
S315000019E0130484DE930400008337040093841400F8
S315000019F013048400E7800700E31899FE8330810111
S31500001A00033401018334810003390100130101020B
S31500001A1067800000130101FA233081022338C102D6
S31500001A2023341102233CD1022330E1042334F10490
S31500001A3023380105233C1105130405001386050010
S31500001A4063060500832705036384070283350401C3
S31500001A509306010313050400233CD100EF00403B2D
S31500001A6083308102033401021301010667800000FE
S31500001A702334B100EF405052033681006FF01FFD52
S31500001A80130101F92330810203B481332330C104E9
S31500001A9023341102233CB1022334D1042338E10458
S31500001AA0233CF104233001072334110713060500F4
S31500001AB06306040083270403638407028335040155
S31500001AC09306810313050400233CD100EF00403444
S31500001AD0833081020334010213010107678000008D
S31500001AE02334A10013050400EF40104B0336810098
S31500001AF06FF0DFFC130101F92330810613040500A2
S31500001B0013850500233C91042334110693840500B4
S31500001B10EF008023B7E700009387074D2330F104D9
S31500001B20930710002334F1049307010313071500EC
S31500001B30233CF1009307200023389102233CA102A5
S31500001B402334E1022320F1026308040883270403F7
S31500001B506380070883350401B7F70000938707956C
S31500001B606380F50AB7F7000093878791638EF508BF
S31500001B70B7F700009387078E638CF50883970501F6
S31500001B80139727036342070203A7850AB7260000B7
S31500001B90B3E7D700B7E6FFFF9386F6FF3377D700A4
S31500001BA02398F50023A4E50A130681011305040012
S31500001BB0EF50C005631205061305A00083308106A9
S31500001BC00334010683348105130101076780000091
S31500001BD013050400EF40503C8327040383350401BA
S31500001BE0E39C07F6130504002334B100EF40D03A16
S31500001BF083358100B7F7000093870795E394F5F6E0
S31500001C00833584006FF09FF7833504016FF01FF76B
S31500001C10833584016FF09FF61305F0FF6FF01FFA0E
S31500001C20130101F923308106233C910403B4813367
S31500001C309304050023341106EF000011B7E70000F6
S31500001C409387074D2330F104930710002334F104E2
S31500001C509307010313071500233CF10093072000A7
S31500001C6023389102233CA1022334E1022320F1020E
S31500001C706308040883270403638007088335040187
S31500001C80B7F70000938707956380F50AB7F700005A
S31500001C9093878791638EF508B7F700009387078EC1
S31500001CA0638CF508839705011397270363420702A0
S31500001CB003A7850AB7260000B3E7D700B7E6FFFFFC
S31500001CC09386F6FF3377D7002398F50023A4E50A19
S31500001CD01306810113050400EF40507363120506D5
S31500001CE01305A00083308106033401068334810581
S31500001CF0130101076780000013050400EF40D02997
S31500001D008327040383350401E39C07F613050400C7
S31500001D102334B100EF40502883358100B7F7000027
S31500001D2093870795E394F5F6833584006FF09FF764
S31500001D30833504016FF01FF7833584016FF09FF63A
S31500001D401305F0FF6FF01FFA937775001307050070
S31500001D50639A070683B601299305F0FF0336070049
S31500001D6013078700B377D600B387D700B3E7C7005A
S31500001D70B3E7D700E384B7FE834687FFB307A740E0
S31500001D8063840606834697FF638C06048346A7FF93
S31500001D90638406068346B7FF638C06048346C7FF43
S31500001DA00346D7FF0345E7FF638C0604630E06046C
S31500001DB03335A0003305F5001305E5FF6780000005
S31500001DC0E38A06F883470700130717009376770020
S31500001DD0E39807FE3307A7401305F7FF6780000067
S31500001DE0138597FF67800000138587FF67800000D3
S31500001DF01385B7FF678000001385A7FF6780000083
S31500001E001385C7FF678000001385D7FF6780000032
S31500001E10130101D923341126233C9124233821258B
S31500001E202334B12193840500930D0600233CD10091
S31500001E30233081262334312523304125233C512369
S31500001E40233861232334712323308123233C9121BA
S31500001E502338A121273C811E2738911E2734211FB4
S31500001E602730311F273C411D13090500EF50C03EA6
S31500001E7083370500138507002334F108EFF0DFEC04
S31500001E80233CA1066306090083270903638E075CCA
S31500001E90B7F70000938707956382F45EB7F70000F3
S31500001EA0938787916380F45EB7F700009387078E68
S31500001EB06394F4006F10806B83960401372600004C
S31500001EC09397060393D70703B3F5C70063980502F4
S31500001ED083A5840AB3E7C6009B970701B7E6FFFF11
S31500001EE09BD707419386F6FFB3F6D5002398F400F7
S31500001EF09397070323A4D40A93D7070393F687007F
S31500001F00E386065883B68401E382065893F7A70151
S31500001F109306A000E38ED75887B4812987B9812B11
S31500001F2007B4012A07B9812A83B7012B130A0115C1
S31500001F3023340106233CF10883C70D002338410DE5
S31500001F402330010E232C010C23300102233401021D
S31500001F5023380108233001062338010623300108FF
S31500001F602334010013080A006386072013840D003A
S31500001F7093065002E38CD70A834714001304140017
S31500001F80E39A07FEBB09B4416386091E0336010EB8
S31500001F908326810D2330B801330636019B86160051
S31500001FA0233438012330C10E232CD10C1B860600A6
S31500001FB09306700013080801E3CEC6440337810078
S31500001FC03B87E9002334E1006386071AB7E900007E
S31500001FD003431400A307010A130414009308F0FF37
S31500001FE0930A0000930C0000130BA0059389096C5B
S31500001FF0130D9000130414009B0B03001306A0029C
S315000020009B870BFE9B860700636CDB00939707029A
S3150000201093D7E701B387370183A7070067800700D7
S31500002020638A0B142304710FA307010A9309100096
S3150000203013060000130D0000130B10009308000098
S3150000204023380102233C0102233C0104930D810E37
S3150000205093F22C00638402009B89290093FF4C08AD
S315000020608337010E63960F00BB863A416340D01E4C
S31500002070630C06028326810D1306F10A2330C8007D
S315000020809B86160013061000938717002334C8009A
S31500002090232CD10C1B8606002330F10E930670000C
S315000020A01308080163C8C626638C02028326810DC5
S315000020B01306010B2330C8009B861600130620006A
S315000020C0938727002334C800232CD10C1B860600D7
S315000020D02330F10E9306700013080801E3C0C638DA
S315000020E093060008E384DF10BB886841E34E101DA9
S315000020F093F60C106398067E0327810DB38767015C
S315000021002330B8019B0617001387060023346801A5
S31500002110232CE10C2330F10E13077000634ED730E9
S315000021201308080113FE4C0063060E003B8B3A4170
S31500002130E344603F13870A0063D43A01138709001A
S31500002140833681003B07D7002334E100E390072460
S31500002150232C010C63080D0093050D0013050900DF
S31500002160EF40407813080A00930D040083C70D0062
S31500002170E39E07DE8337010EE38C07221306010D6B
S315000021809385040013050900EF8040756F00502207
S31500002190930A0000834604009B972A00BB8A5701D6
S315000021A01B830BFD9B9A1A009B8706FD13041400E4
S315000021B0BB0A53019B8B0600E37EFDFC6FF05FE4D8
S315000021C093F78C00E390076C8337810187B707008C
S315000021D093878700233CF1002734F106D3A7F72223
S315000021E073271000D397F4A273101700E382076ECB
S315000021F0D30700F207378106D317F7A263840700D7
S315000022006F1040680346F10A9307700463C47701B0
S315000022106F10805D37E70000930D876613FEFCF7AD
S3150000222023380102233C0102233C01049B0C0E00CF
S3150000223093093000130D0000130B300093080000C3
S31500002240E30806E09B8919006FF09FE0B7FE0000E7
S31500002250930500010326810D138C0E83130F0001D5
S315000022609303700063C8D5006F00C0079B8606FF06
S31500002270635ADF061B061600938707012330880181
S315000022802334E8012330F10E232CC10C1308080176
S31500002290E3DEC3FC1306010D938504001305090054
S315000022A02338D104233411052330F1052338510096
S315000022B0EF80C062E316050E83360105130F000199
S315000022C08337010E9B8606FF0326810D8338810422
S315000022D0833F01048332010113080A00930370004F
S315000022E0E34ADFF8B387D7009B0516002334D800EE
S315000022F0233088012330F10E232CB10C9306700095
S3150000230063D4B6006F10402F0346F10A1308080184
S315000023106FF01FD61306010D9385040013050900FF
S31500002320233411052330F10523385100EF80005B7B
S31500002330E31805068337010E83388104833F0104C1
S315000023408332010113080A006FF01FD68328810D1E
S3150000235003370102130510009B8618002330B801CD
S31500002360938717009385060013060801E350E53EA0
S3150000237013051000232CB10C2334A8002330F10ED2
S315000023809305700063D4D5006F104015033781079D
S31500002390833581089B861600B387E7002330B60095
S315000023A02334E6009B850600232CD10C2330F10E46
S315000023B0930670001306060163D4B6006F1040142E
S315000023C0D30700F207378106033701029B88150001
S315000023D05325F7A2938608001B0BF7FF1308060187
S315000023E0E31A053813871D00B38767012330E6001B
S315000023F0233466012330F10E232C110D13077000D0
S31500002400E34E1773130706029B8825001306080080
S3150000241013080700833601091307010C2330E60071
S31500002420B387F6002334D6002330F10E232C110D8A
S3150000243013077000E35817CF1306010D93850400A8
S3150000244013050900EF808049631C05748337010E6C
S3150000245013080A006FF01FCD13EE0C0103430400AE
S315000024609B0C0E006FF01FB913050900EF40C03238
S31500002470B7F7000093870795E392F4A283348900A7
S315000024806FF09FA3833409016FF01FA313EE0C01B5
S315000024909B0C0E008336810193F70C02138786008E
S315000024A0E384073483B7060093890700E3CC073437
S315000024B09307F0FF6380F87813FEFCF71B0D0E0000
S315000024C0638409006F10801A638408006F10507BC4
S315000024D0930C0D00233CE10093080000130B000051
S315000024E0930DC1140346F10A9B89080063D4680161
S315000024F09B090B0023380102233C0102233C010403
S31500002500130D0000E30606B46FF0DFD383378101B5
S31500002510A307010A83BD0700138C8700E3840D70AF
S315000025209307F0FF6394F8006F10001F13860800EE
S315000025309305000013850D00233C0101233811018A
S31500002540EF50407B8338010103388101130D0500EC
S31500002550631405006F10501E3B0BB5410346F10A8C
S315000025609349FBFF93D9F943233C810123380102A8
S31500002570233C0102233C0104B3F96901130D000059
S3150000258093080000E30606AC6FF0DFCB033781014A
S31500002590A307010A8327070013078700233CE100EE
S315000025A02304F10E6FF09FA813EE0C019B0C0E0096
S315000025B08336810193F70C0213878600E382072690
S315000025C083B9060013FEFCBF1B0D0E00233CE10081
S315000025D093070000A307010A1307F0FF6380E826AC
S315000025E0137EFDF79B0C0E00639809246396082A58
S315000025F0E39407EE137B1D00930DC114E3040BEE69
S3150000260093070003A305F114930DB1146FF09FED2A
S315000026108336810193F70C0203B706009386860082
S31500002620233CD100E398072493F70C01E394072495
S3150000263093F70C04638407006F10C06B13FE0C2025
S315000026408337810063140E006F10D0612300F700FA
S31500002650930D04006FF09FB113EE0C0203430400C8
S315000026609B0C0E006FF01F9903378101B787FFFFA0
S3150000267093C707832318F10AB7ED00009307870075
S3150000268013EE2C00233CF10093870D682334F102EE
S31500002690833907001B0D0E0093072000930B80075C
S315000026A06FF05FF3034304009307C006E302F3569B
S315000026B013EE0C019B0C0E006FF0DF930343040036
S315000026C093078006E30CF35213EE0C049B0C0E00EA
S315000026D06FF05F9213EE8C00034304009B0C0E0018
S315000026E06FF05F9113EE0C011B0D0E008336810116
S315000026F093770D0213878600E384071483B90600D7
S3150000270093071000233CE1006FF0DFEC13EE0C089A
S31500002710034304009B0C0E006FF0DF8D83378101AD
S315000027200343040083AA070093878700233CF10034
S31500002730E3D20A8CBB0A50416F0040091305090019
S315000027402338010323381101EF4010318337850008
S31500002750138507002330F108EFF00FDF930705001C
S3150000276013050900938B07002338F106EF40D02E9E
S315000027700337050183380101033801032330E106DD
S3150000278003430400E3880B86E306078683470700B6
S31500002790E382078613EE0C409B0C0E006FF09F85BC
S315000027A013EE1C00034304009B0C0E006FF09F8485
S315000027B08347F10A03430400E39E0782930700025E
S315000027C0A307F10A6FF01F830343040013EE4C00C6
S315000027D09B0C0E006FF01F829307B00203430400A8
S315000027E0A307F10A6FF01F81834B040093071400BF
S315000027F06394CB006F1010659B860BFD1384070056
S3150000280093080000636EDDFE834B04009B9728004F
S31500002810BB8817019B981800BB88D8009B860BFDC8
S3150000282013041400E372DDFE6FF08FFDBB09B441A3
S31500002830638E09F86FF08FF5138D0C0013071000E7
S31500002840638EE73E130720006384E706130BC1146B
S31500002850930D0B0093F7790093870703A38FFDFE73
S3150000286093D9390093860D00938DFDFFE39409FEFD
S3150000287013761D006302060613060003638EC70463
S315000028809386E6FFA38FCDFE3B0BDB40930C0D003A
S31500002890938D06006FF01FC5130710006394E700C1
S315000028A06F10503013072000138D0C00E390E7FAE9
S315000028B0130BC114930D0B000337810293F7F90034
S315000028C0938DFDFFB307F70083C7070093D949002F
S315000028D02380FD00E39209FE3B0BBB41930C0D00E8
S315000028E06FF05FC093065006E3D276A7D30700F2D7
S315000028F007378106D326F7A26386064C0327810D88
S31500002900B7E600009386866B1B0717002330D800B6
S3150000291093871700930610002334D800232CE10C6C
S315000029209B0607002330F10E1307700013080801F9
S31500002930E34ED7500327810B833601026356D772C5
S315000029400337810883368107130808012338E8FE18
S315000029500327810DB387D700233CD8FE1B0717003A
S315000029609B060700232CE10C2330F10E13077000A1
S31500002970E34CD724033701029B0BF7FF635470FB2C
S31500002980B7FE0000930600010327810D138C0E8409
S31500002990130B0001930D700063C876016F0050623F
S315000029A09B8B0BFFE35E7B611B0717009387070179
S315000029B023308801233468012330F10E232CE10CE7
S315000029C013080801E3DEEDFC1306010D93850400F0
S315000029D013050900EF7090706314051C8337010E10
S315000029E00327810D13080A006FF09FFB3B8F3A41C6
S315000029F0635CE0EFB7FE0000130600018326810D3D
S31500002A00138C0E84930F0001930270006348E60155
S31500002A106F00C0061B0F0FFF63D2EF079B861600E1
S31500002A2093870701233088012334F8012330F10E00
S31500002A30232CD10C13080801E3DED2FC1306010D8A
S31500002A409385040013050900233011052338E1019D
S31500002A50EF70D06863160514033F0101930F000160
S31500002A608337010E1B0F0FFF8326810D8338010468
S31500002A7013080A0093027000E3C2EFFB1B861600E0
S31500002A80B387E701233088012334E8012330F10EB0
S31500002A90232CC10C930670001308080163D6C6E404
S31500002AA01306010D9385040013050900233811014F
S31500002AB0EF70D0626316050E8337010E833801016D
S31500002AC013080A006FF04FE2B7FE0000130600017C
S31500002AD08326810D138C0E84130F0001930F700053
S31500002AE0634816016F0040069B8808FF635E1F055A
S31500002AF09B86160093870701233088012334E8015B
S31500002B002330F10E232CD10C13080801E3DEDFFC81
S31500002B101306010D938504001305090023381101DE
S31500002B20EF70D05B631E050683380101130F0001A9
S31500002B308337010E9B8808FF8326810D13080A0040
S31500002B40930F7000E3461FFB1B861600B387170121
S31500002B5023308801233418012330F10E232CC10CB5
S31500002B60930670001308080163D4C6D81306010D36
S31500002B709385040013050900EF7050566312050291
S31500002B808337010E13080A006FF08FD61306010D66
S31500002B909385040013050900EF705054630A05DAA3
S31500002BA063080D0093050D0013050900EF309053DF
S31500002BB083D7040193F70704638407006F1000713D
S31500002BC08330812603340126033581008334812531
S31500002BD00339012583398124033A0124833A812369
S31500002BE0033B0123833B8122033C0122833C812159
S31500002BF0033D0121833D81200734811F8734011F56
S31500002C000739811E8739011E073A811D13010127E5
S31500002C10678000001306010D938504001305090063
S31500002C20EF70D04BE31605F88347040013080A003B
S31500002C306FF0CFB8138D0C00233CE1009307900092
S31500002C40E3E2370F9B890903A3053115930C0D00A9
S31500002C50130B1000930DB1146FF0DF881306010DEE
S31500002C609385040013050900233011052338F1016B
S31500002C70EF70D046E31605F28337010E8338010460
S31500002C80833F010113080A006FF08FC59385040086
S31500002C9013050900EF10902E630405006F10006302
S31500002CA083D704019306A00093F7A7016396D7A6DE
S31500002CB08397240163C207A6033401268336810164
S31500002CC08330812683398124033A0124833A812380
S31500002CD0033B0123833B8122033C0122833C812168
S31500002CE0033D01210734811F8734011F0739811EE7
S31500002CF08739011E073A811D13860D00938504004E
S31500002D00833D81208334812513050900033901257C
S31500002D10130101276F10901AB7FE000093060001F9
S31500002D200327810D138C0E83930C0001930B700007
S31500002D3063C866016F0040051B0B0BFF63D66C056D
S31500002D401B07170093870701233088012334980156
S31500002D502330F10E232CE10C13080801E3DEEBFC13
S31500002D601306010D9385040013050900EF70103753
S31500002D70E31805E21B0B0BFF8337010E0327810DBA
S31500002D8013080A00E3CE6CFB9B061700B3876701A6
S31500002D9023308801233468012330F10E232CD10C13
S31500002DA0130770006358D7B81306010D9385040006
S31500002DB013050900EF709032E31405DE8337010E28
S31500002DC06FF04FB70326810B6356C07A0337810530
S31500002DD0833601021B0B070063CAE6526356600383
S31500002DE08326810DB38767012330B8011B86160041
S31500002DF0233468012330F10E232CC10C9306700096
S31500002E0013080801E3CCC6689346FBFF0337810528
S31500002E1093D6F643337BDB003B0B6741634060652B
S31500002E200337810593F60C40338BED00E3940626B9
S31500002E308326810B0337010263C6E60013F61C00E6
S31500002E40E30406680336810803378107130808017F
S31500002E502338C8FE0326810DB387E700233CE8FE2E
S31500002E609B0516002330F10E232CB10C13067000BF
S31500002E706354B6006F100008033701023B06D740C3
S31500002E803387ED003B076741930606006354C7008E
S31500002E90930607009B8B0600635870038326810DFB
S31500002EA0B3877701233068019B85160023347801A8
S31500002EB02330F10E232CB10C930670001308080181
S31500002EC063D4B6006F10003A93C6FBFF93D6F64361
S31500002ED033F7DB003B0BE640635660A5B7FE000008
S31500002EE0930600010327810D138C0E84930D0001B8
S31500002EF0930B700063CA66016F00907E1B0B0BFF7D
S31500002F0063C46D016F00D07D1B071700938707010F
S31500002F10233088012334B8012330F10E232CE10C31
S31500002F2013080801E3DCEBFC1306010D938504008E
S31500002F3013050900EF70901AE31405C68337010ED6
S31500002F400327810D13080A006FF05FFB13F31C00C3
S31500002F50631003C22334A8002330F10E232CD10CB6
S31500002F6013077000634CD73C9B882800130808029F
S31500002F706FF04FCA635060CB1307000163446701CB
S31500002F806F108069B7FE0000138C0E84930D00014C
S31500002F90930B70006F0000011B0B0BFF63DE6D3798
S31500002FA09B86150093870701233086012334B601DB
S31500002FB02330F10E9B850600232CD10C1306060147
S31500002FC0E3DCBBFC1306010D938504001305090021
S31500002FD0EF70D010E31605BC8337010E8325810DF3
S31500002FE013060A006FF05FFB93F70C01639A073034
S31500002FF093F70C04E38C0700839906009387090076
S3150000300063D807CA9307D002A307F10AB309304170
S31500003010233CE100138D0C00930710006FF0CFDB0B
S3150000302093F70C01639A072C93F70C0483A9060007
S315000030306388077E9399090393D909036FF08FD8A4
S3150000304093770D016392072A93770D0483A90600EF
S315000030506382077A9399090393D90903233CE10014
S31500003060930710006FF00FD713F71C00630C078A45
S315000030706FF01F8D83378100930D04002330F70016
S315000030806FF0CF8E83378101233801032338110176
S315000030909387F70093F707FF03B5070083B587000B
S315000030A093870701233CF100EFA0506FD307A522B9
S315000030B02734A10683380101D3A7F7220338010379
S315000030C073271000D397F4A2731017006392079228
S315000030D087378106D3A7F7A2639407006F10C03D18
S315000030E0930710066394FB006F10C02A9307100421
S315000030F0E384FB6A9307F0FF13FBFBFDE380F846CE
S31500003100930770046314FB006F1080360337810643
S3150000311093E70C109B87070093890C006354070004
S315000031206F108012530A07F2938C070023380100B0
S31500003130130D000093076004E306FB4A930750044F
S315000031402338010353054A236314FB006F10402BF9
S315000031509307810C138608001307C10B9306810B96
S31500003160930520001305090023301103EF10D04A00
S31500003170930770048338010203380103930D050099
S315000031806304FB006F10405093F71900B306150156
S31500003190E390074A033C810C0327810BBB07BC4124
S315000031A02330F102233CE10493077004E30AFB3C5D
S315000031B093076004E308FB5A8337810593051004DF
S315000031C093F6FB0F9B87F7FF232CF10A13060000EB
S315000031D06318BB009B86F60093F6F60F13061000E5
S315000031E02300D10C9306B00263DA0700033781058A
S315000031F0930710009306D002BB87E740A300D10CCB
S315000032009306900063C4F6006F1000289308F10C33
S31500003210938508001305A000930E3006BBE6A702AF
S3150000322013860500138E07009385F5FF9B8606031C
S31500003230A30FD6FEBBC7A702E3C2CEFF9B87070339
S315000032409306E6FFA38FF5FE63E416016F100043B5
S315000032509307210C83C506009386160093871700F3
S31500003260A38FB7FEE39816FF9307110DB387C740E8
S315000032701307210CB307F7009306010CBB87D74051
S315000032802338F10803370102930610003B0BF700C1
S3150000329093070B0063C4E6006F10403303378107C2
S315000032A03B8BE7009347FBFF13FEF9BF93D9F74328
S315000032B01B0E0E00B3793B01936C0E109B8909001F
S315000032C023380102233C0102233C01048337010118
S315000032D0E39A07380346F10A9308000063140600D0
S315000032E06FE01FD76FE01FF683B906009307100043
S315000032F0233CE1006FF00FAE83B906006FF08FAC90
S3150000330083B70600938907006FF04F9A1B8B060060
S31500003310E34860AD6FF05FAF9B88150013070601A9
S31500003320B387670123308601233466012330F10E0B
S31500003330232C110D93067000E3D616131306010D08
S315000033409385040013050900EF704059E31A0584BC
S315000033508328810D8337010E130801169B881800F8
S3150000336013060A006FF00F8BB7ED000093870D6808
S31500003370930680072334F1020336810193F70C028A
S3150000338013078600638407148339060093F71C002D
S31500003390638E0700638C090013EE2C00930700036D
S315000033A02308F10AA308D10A9B0C0E0013FEFCBFEA
S315000033B01B0D0E00233CE100930720006FF08FA148
S315000033C0138D0C006FF08FB21306010D9385040068
S315000033D013050900EF708050631405FC8337010E56
S315000033E013080A006FF00FD9B7ED000093878D69B7
S315000033F0930680052334F1026FF01FF813EE0C20BC
S31500003400034314009B0C0E00130414006FE09FBED0
S3150000341013EE0C02034314009B0C0E00130414005D
S315000034206FE05FBD930760009B890800E3EA170918
S3150000343037E70000233C8101130D0000138B0900C0
S31500003440130600009308000023380102233C010202
S31500003450233C0104930D076B6FE09FBFB7FE00008E
S31500003460130600018326810D138C0E849308000138
S31500003470930B7000634866016F00803C1B0B0BFFCB
S3150000348063D0683D9B861600938707012330880129
S31500003490233418012330F10E232CD10C1308080114
S315000034A0E3DEDBFC1306010D93850400130509001A
S315000034B0EF70C042631605EE8337010E8326810D39
S315000034C013080A00930800016FF05FFB93F70C01E5
S315000034D063820716833906006FF05FEB1306010D52
S315000034E09385040013050900EF70403F631A05EA4F
S315000034F08337010E8326810D13060A006FE01FE94C
S315000035001306010D9385040013050900EF70003DB5
S31500003510631805E88337010E8325810D13060A001B
S315000035206FE01FEA93770D402330F102130BC114AD
S3150000353063920714930D0B009306A0009305900069
S31500003540B3F7D90203370102938DFDFF13860900F5
S315000035501B0717002330E1029B8707032380FD002A
S31500003560B3D9D902E3EEC5FC6FF00FB783348901F6
S315000035706FE09F948326810DB7E500009385856BE8
S315000035809B8616002330B80093871700930510001A
S315000035902334B800232CD10C9B8506002330F10E72
S315000035A0930670001308080163C6B66C631A061A00
S315000035B00337010293F61C00B366D7006394060036
S315000035C06FE05FB60326810D0337810783368108D6
S315000035D0B307F7002330D8009B0616002334E80013
S315000035E02330F10E232CD10C130670006342D674DF
S315000035F0130808016F00001A1306010D93850400D5
S3150000360013050900233411052330F1052338510031
S31500003610EF70C02C631605D80346F10A8337010EF6
S3150000362083388104833F01048332010113080A00B1
S315000036306FE01FA493F70C0483290600638A071E14
S315000036409399090393D909036FF05FD41306010D0B
S315000036509385040013050900EF704028631205D412
S315000036608337010E13080A006FF0CFAC233CE1004C
S315000036706FF0CFDC2330010213060B009306A00087
S31500003680930C9000130CF00F6F004001B3D7D902D2
S3150000369063F43CA59389070013860D0003370102E6
S315000036A0930DF6FF1B0717002330E102B3F7D9028B
S315000036B09B870703A30FF6FE8337010683C7070020
S315000036C0E316F7FCE38487FD63F83CA18337010723
S315000036D08335010823380103B38DFD4013860700A7
S315000036E013850D0023381101EF60107E03370106A4
S315000036F09306A000B3D7D902034617008338010109
S31500003700033801033336C0003307C70023300102F4
S315000037102330E1066FF01FF813850D0023380101F1
S31500003720EFE08FE21B0B05000346F10A9349FBFF0E
S3150000373093D9F943233C810123380102233C01023A
S31500003740233C010403380101B3F96901130D00009C
S3150000375093080000631406006FE09F8F6FE09FAE32
S315000037608325810D033781078336810813080801F5
S31500003770B307F7002338D8FE9B861500233CE8FEE6
S315000037802330F10E232CD10C9305700063C2D55A59
S31500003790E3440634033701021B8616002330B801C2
S315000037A0B307F7002334E8002330F10E232CC10CB5
S315000037B0130770006344C7006FE09F966FE0DFC792
S315000037C09B061700B38777012330880123347801DD
S315000037D02330F10E232CD10C130770006344D7005D
S315000037E06FE01F946FE05FC537E70000930D076633
S315000037F06FE0DFA293770D20638C075093F9F90FE2
S31500003800233CE100930710006FE0DFDC93F70C2008
S31500003810638A074E83890600938709006FE01FC9F4
S3150000382093F70C206380075093F9F90F6FE09FD947
S3150000383093F70C20638A074A93F9F90F6FF01FB5C7
S315000038401B861600B387670123308801233468017D
S315000038502330F10E232CC10C9306700013080801C7
S3150000386063D0C6DC1306010D938504001305090019
S31500003870EF70C006631605B28337010E13080A00FF
S315000038806FF00FDA9307D002A307F10A1306D002EE
S315000038906FE09F9703370102B7FE00001303700025
S315000038A03387ED002330E10403378103130C000155
S315000038B0938B0E84630C070C03370103631C070C00
S315000038C0033701061307F7FF2330E10603378103A9
S315000038D01B07F7FF2334E10483360108033701078A
S315000038E0130808012338D8FE8326810DB387E70025
S315000038F0233CE8FE1B8616002330F10E232CC10C58
S315000039006342C32C0337010603460700033701044D
S315000039101B0F0600BB0567412338E10493060F0021
S3150000392063D4E501938605009B8F0600635AF00376
S315000039300326810DB387F701233068019B06160025
S315000039402334F8012330F10E232CD10C6340D32A03
S315000039500337010613080801034607001B0F06007C
S3150000396093C6FFFF93D6F643B3F6DF003B0FDF4067
S31500003970634AE01903378103330BCB006308070260
S3150000398003378104233CE102E31807F203370103FE
S31500003990630A073C033701031B07F7FF2338E102DD
S315000039A0033781032334E1046FF01FF337F300007C
S315000039B0930E7000930B0001130C038483350103EF
S315000039C06388053A8336010803370107130808019F
S315000039D02338D8FE8326810DB387E700233CE8FE13
S315000039E01B8616001B87F5FF2330F10E232CC10C16
S315000039F02338E10263C4CE1A0337010603460700E3
S31500003A00033701041B0F0600BB05674193060F0031
S31500003A1063D4E501938605009B8F0600635AF00385
S31500003A200326810DB387F701233068019B06160034
S31500003A302334F8012330F10E232CD10C63C6DE1E8D
S31500003A400337010613080801034607001B0F06008B
S31500003A5093C6FFFF93D6F643B3F6DF003B0FDF4076
S31500003A606346E001330BCB006FF05FF58326810DD3
S31500003A7063C8EB016F0000061B0F0FFF63DCEB054D
S31500003A809B8616009387070123308801233478012B
S31500003A902330F10E232CD10C13080801E3DEDEFCE3
S31500003AA01306010D93850400130509002338E1016F
S31500003AB0EF60D0626316058E033F01018337010E66
S31500003AC08326810D1B0F0FFF13080A00930E70004B
S31500003AD0E3C8EBFB1B861600B387E701233088019A
S31500003AE02334E8012330F10E232CC10C63C0CE3CF5
S31500003AF0033701061308080103460700330BCB0002
S31500003B006FF0DFEB8326810D6348EC016F00400602
S31500003B101B0F0FFF635EEC059B861600938707015C
S31500003B2023307801233488012330F10E232CD10C65
S31500003B3013080801E35ED3FC1306010D9385040008
S31500003B40130509002338E101EF60505963040500AD
S31500003B506FF00F85033F01018337010E8326810D28
S31500003B601B0F0FFF13080A0013037000E346ECFB5C
S31500003B701B861600B387E701233078012334E8015A
S31500003B802330F10E232CC10C634AC32E03370106E2
S31500003B9013080801034607006FF0DFDD1306010D69
S31500003BA09385040013050900EF6050536304050074
S31500003BB06FE01FFF8337010E13080A00930E700093
S31500003BC06FF09FE31306010D9385040013050900AA
S31500003BD0EF60D050630405006FE09FFC8337010E51
S31500003BE013080A00130370006FF0DFD11306010DEE
S31500003BF093850400130509002338F101EF60104E88
S31500003C00630405006FE0DFF983370106833F010196
S31500003C1013080A0003C60700130370008337010E5A
S31500003C201B0F06006FF0DFD31306010D938504000A
S31500003C30130509002338F101EF60504A63040500BB
S31500003C406FE01FF683370106833F010113080A0060
S31500003C5003C60700930E70008337010E1B0F060084
S31500003C606FF01FDF9B881800130807011306070073
S31500003C706FE04FFA1306010D938504001305090042
S31500003C80EF60D045630405006FE09FF10326810BCA
S31500003C908337010E13080A006FF05F911306010DBA
S31500003CA09385040013050900EF6050436304050083
S31500003CB06FE01FEF8337010E13080A006FF0CF94F1
S31500003CC0930960006FF0CFF63B06D7403387ED00CF
S31500003CD03B0B6741130706006354CB0013070B0029
S31500003CE09B0B07006FF04F9E9399090293D9090227
S31500003CF06FF0CFE983378100930D04002310F7009E
S31500003D006FE0CFC683A90600938709006FE00FFA1C
S31500003D109399090293D90902233CE1009307100005
S31500003D206FE05F8B9399090293D909026FE09F892F
S31500003D301306010D9385040013050900EF60103A80
S31500003D40630405006FE0DFE50326810B8337010E70
S31500003D508326810D13080A006FF09FA39308600065
S31500003D606FF0CFBA033701023387ED002338E10441
S31500003D7003370105637E678B130B07006FF04F8BCC
S31500003D809307D0FF6344F70063D8E8009B8BEBFFF3
S31500003D9013FBFBFD6FF04FC283370102634CF74EF6
S31500003DA093F71900130B0700638607008337810713
S31500003DB03B8BE70093F90940638609008337810549
S31500003DC0634CF0749349FBFF93D9F943B3793B01F4
S31500003DD09B890900930B700623380102233C0102DC
S31500003DE06FF0CFCE53054A239307810C9306810BC0
S31500003DF0138608001307C10B93053000130509004D
S31500003E002338010323301103EF1000018346050018
S31500003E10930700038338010203380103930D05005D
S31500003E20638EF60E8327810BB3871701B386FD00D9
S31500003E30D30700F2138C0600D327FAA2639E07B4B9
S31500003E40033C810C637ADCB41306000393071C0061
S31500003E502334F10C2300CC00033C810CE368DCFE28
S31500003E606FF08FB39307D002A307F10A1306D002AF
S31500003E70930800009B8919006FE08F9D1306010DC2
S31500003E809385040013050900EF60502563040500BF
S31500003E906FE01FD18337010613080A001303700071
S31500003EA003C607008337010E6FF0DFAC1306010D62
S31500003EB09385040013050900EF6050226304050092
S31500003EC06FE01FCE8337010613080A00930E7000B9
S31500003ED003C607008337010E330BCB006FF01FAE0E
S31500003EE09B06170013870600B387670123308801F6
S31500003EF06FE0CFA11306010D938504001305090099
S31500003F00EF60D01D630405006FE09FC98326810B17
S31500003F108337010E13080A006FE01FF6D30700F27D
S31500003F20D327FAA2E39007F093061000BB87164149
S31500003F30232CF10A6FF05FEF0346F10A233C81015F
S31500003F4023380102233C0102233C01049389080023
S31500003F50138B080093080000631406006FE04F8F70
S31500003F606FE04FAE93F71900B3E7F8006358E066C9
S31500003F7063940764130B0700930B600693F90940DB
S31500003F80639E09589349FBFF93D9F943B3793B01E3
S31500003F909B8909006FF05FE4930700032308F10A89
S31500003FA09307800593E92C00A308F10A93073006CE
S31500003FB09B890900130D0000930D810E63CE1747F0
S31500003FC08337810613EE2C1023380100538A07F23B
S31500003FD0D38707F29B0C0E0013FBFBFD63CC072671
S31500003FE093071006638AFB4E930710046394FB94B1
S31500003FF053054A231305810B23380103233011038C
S31500004000EF608046D3773513530700F283380102F9
S3150000401003380103D3A7E7A26386070093071000BE
S31500004020232CF10A37E6000013068669939E0802E0
S3150000403093DE0E02938E1E00D30600F2B38EDD01D0
S31500004040138C0D003B8F1D016F00C000D3A7D7A2B4
S31500004050639C0702D3F7871213050C00130C1C0090
S31500004060BB068F41D39707C29B850700B30FB600E7
S3150000407083CF0F00538707D2A30FFCFFD3F7E70ABE
S31500004080E316DCFD9306F0FFD317F9A2639007321F
S31500004090D3A727A36386070093F515006398053019
S315000040A09B87F6FF63CA068E330680411376760039
S315000040B0930E7600930FB0001B8F06009B851600AB
S315000040C063F4FE01930EB0006366DF5B6300065A7D
S315000040D0930E00032300DC01130F100013052500C7
S315000040E09B87E6FF630AE607A300DC01130F2000A7
S315000040F013052C009B87D6FF6300E6072301DC012E
S31500004100130F300013053C009B87C6FF6306E605C8
S31500004110A301DC01130F400013054C009B87B6FF7B
S31500004120630CE6032302DC01130F500013055C0049
S315000041309B87A6FF6302E603A302DC01130F700050
S3150000414013056C009B8796FF6318E60113057C0038
S315000041502303DC019B8786FFBB85C5409BDE3500BC
S315000041603306CC00939E3E001B8F0500B38ECE0017
S315000041700337810913068600233CE6FEE31AD6FFC1
S3150000418093F585FF9B8505001396050213560602D7
S315000041903305C500BB87B7406382E50B13060003F2
S315000041A02300C50063CC0708A300C5006358F008C8
S315000041B02301C5009305100063D2F508A301C500CD
S315000041C09305200063DCF5062302C5009305300045
S315000041D063D6F506A302C5009305400063D0F50635
S315000041E02303C5009305500063DAF504A303C50055
S315000041F09305600063D4F5042304C500930570009D
S3150000420063DEF502A304C500130680006358F602B8
S31500004210130600032305C5009305900063D0F5023D
S31500004220A305C5009305A00063DAF5002306C500C3
S315000042309305B00063D4F500A306C5009B8616005F
S31500004240330CDC006FE05FF5D30707F2130D0000B7
S31500004250938C07009307D002539AF7222338F10074
S315000042606FF01FD81306010D93850400130509008E
S31500004270EF60C066630405006FE09F920326810B22
S31500004280033701028337010E13080A003B06C740B5
S315000042906FE09FC31387070083378107930B700670
S315000042A03B8BE70003378105E34AE0CCBB07EB40D5
S315000042B09B8717001B8B07009349FBFF93D9F94394
S315000042C0B3F737019B8907006FF01FB19307F0FF23
S315000042D02334F1006FE0DF8EB7FE0000930500FF88
S315000042E03B0BC040138C0E8493080001930B7000A7
S315000042F06348B6006F0080051B0B0BFF63D868058B
S315000043009B86160093870701233088012334180102
S315000043102330F10E232CD10C13080801E3DEDBFC5D
S315000043201306010D9385040013050900EF60005B79
S31500004330630405006FE0DF868337010E8326810D57
S3150000434013080A00930800016FF01FFB9B861600F6
S31500004350B387670123308801233468012330F10EC7
S31500004360232CD10C130670006354D6A81306010D36
S315000043709385040013050900EF60405663040500A9
S315000043806FE01F828337010E8326810D13080A0012
S315000043906FF04FC0930700032308F10A93078007C5
S315000043A06FF05FC0138D0C006FE0DF892334A10C22
S315000043B08346FCFF8345F60093070C006390D50205
S315000043C013050003A38FA7FE8337810C9386F7FF9F
S315000043D02334D10C83C6F7FFE386D5FE9B851600F2
S315000043E01305900393F5F50F6386A600A38FB7FE1A
S315000043F06FE09FDA8345A600A38FB7FE6FE0DFD993
S315000044001B8C18009306810B9307810C1307C10BB5
S3150000441013060C0093052000130509002330110331
S31500004420EF00901F930D0500833801020338010346
S31500004430B3868D016FF0DF9F9B8518001305090079
S315000044402330010323381101EF30C00983380101FD
S3150000445003380102930D0500630E0522130D0500B6
S315000044606FF01FB62320F700930D04006FD01FD006
S31500004470638408006FE09FC9930810006FE01FC9AE
S31500004480233CE1006FE00FFC9306210C6318060045
S31500004490930600032301D10C9306310C1307011D6B
S315000044A09B8707033386E6402380F6009B07161199
S315000044B02338F1086FE01FDD8337810663CC0716CA
S315000044C00346F10A9307700463D0771737E70000B5
S315000044D0930D87676FD09FD453054A231305810B2D
S315000044E02338010323301103EF501078D3773513A7
S315000044F0530700F28338010203380103D3A7E7A26A
S315000045006386070093071000232CF10A37E60000A4
S31500004510130606686FF09FB1930B7006833701068A
S315000045209306F00F2338010283C70700233C0102DC
S315000045306380D7041306F00F033781059B860700B7
S3150000454063D8E702833501063B07D740233CE104E5
S3150000455083C7150063860704033781031B0717000B
S31500004560233CE102138715002330E106E396C7FCDE
S315000045700337010383378103BB87E700033701074E
S31500004580BB87E702BB8767011B8B07009349FBFFCD
S3150000459093D9F943B3F737019B8907006FE01FD31F
S315000045A00337010383C705001B0717002338E10201
S315000045B0E394C7F86FF0DFFB83378107930B600640
S315000045C03B8BE7003B0B1B016FF05F9B93F61900DB
S315000045D0639406006FE01FCD6FE05FCC639A07001F
S315000045E093091000930B6006130B10006FF0CFFEBB
S315000045F083378107930B60069B871700BB881701DB
S315000046001B8B08009349FBFF93D9F943B3F8380194
S315000046109B8908006FF04FFCB7FE000013070800E7
S31500004620138C0E846FE0DFCF37E70000930D07672A
S315000046306FD0DFBE9307D002A307F10A1306D0029C
S315000046406FF05FE80337810183260700930B87002D
S315000046509B88060063D406009308F0FF034314000A
S31500004660233C7101138407006FD0DF9813050C00FB
S315000046706FF09FAE13050C006FF05FB2930720003A
S315000046802338F1086FE01FC0138C0800B3868D0134
S315000046906FF00FFA83D7040193E707042398F40019
S315000046A06FE00FD19307050003B58133930606002B
S315000046B013860500938507006FD08FF583D7050114
S315000046C003AE850A03D3250183B8850303B88504A1
S315000046D0130101B393F7D7FF130700402330814C32
S315000046E02318F100138405009307010B93050100BD
S315000046F0233C914A2338214B2334114C13090500DE
S315000047002324C10B23196100233C11032334010523
S315000047102330F100233CF1002326E1002320E102AF
S3150000472023240102EFD0CFEE93040500635C05025B
S315000047308357010193F70704638807008357040131
S3150000474093E707042318F4008330814C0334014CAB
S315000047500339014B138504008334814B1301014D4A
S31500004760678000009305010013050900EF10D0349F
S31500004770E30005FC9304F0FF6FF09FFB130101FEBD
S315000047802334910083B481332338810023302101FF
S31500004790233C1100130905001384050063860400F9
S315000047A083A70403638E0706B7F700009387079570
S315000047B06302F408B7F7000093878791630EF4103D
S315000047C0B7F700009387078E6306F41403170401F6
S315000047D0931707039376870093D707036388060624
S315000047E0833684016388060813F61700630C060AED
S315000047F00326040223260400130500003B06C040DE
S315000048002324C402638E060A833081010334010126
S31500004810833481000339010013010102678000001F
S3150000482013850400EF105077B7F7000093870795BC
S31500004830E312F4F803B48400031704019317070383
S315000048409376870093D70703E39C06F893F6070150
S315000048506386060C93F74700639407088336840142
S3150000486013678700931707032318E40093D70703FA
S31500004870E39C06F613F6072893050020E306B6F632
S315000048809305040013050900EF20101E0317040109
S31500004890833684019317070393D7070313F617008C
S315000048A0E31806F413F627009305000063140600C8
S315000048B0832504022326B40013050000E39606F4BC
S315000048C093F70708E38207F4136707042318E40045
S315000048D01305F0FF6FF05FF303B404016FF01FEFF1
S315000048E083350406638E05009307C4076388F500C5
S315000048F013050900EF10107F031704012330040687
S31500004900833684011377B7FD232404002330D400B3
S315000049106FF01FF503B484016FF05FEB930790000F
S315000049202320F900136707042318E4001305F0FF9A
S315000049306FF09FED83B7013A6384070603A78700EC
S315000049401308F0016344E80A630C050203B8071173
S31500004950630E080893183700B308180123B0C8007F
S3150000496003230820130610003B16E6003363C3003A
S315000049702320682023B0D810930620006302D504B4
S3150000498093062700939636001B07170023A4E7001B
S31500004990B387D70023B0B700130500006780000077
S315000049A09388016923B0113B1307000093870169BF
S315000049B0E30607F80337000023B8E7106FF01FF887
S315000049C0832648201305000033E6C6009306270019
S315000049D02322C8201B0717009396360023A4E7005E
S315000049E0B387D70023B0B700678000001305F0FF38
S315000049F067800000130101FA233451032330210597
S31500004A0003B9013A233C1104233881042334910469
S31500004A10233C31032338410323306103233C7101D6
S31500004A2023388101233491012330A101630A090A45
S31500004A30930B0500138A0500130B1000130DF0FFEE
S31500004A4083248900033C09111B84F4FF634A04088C
S31500004A5063040A0E63060C0893943400B3099C00A1
S31500004A60B30499006F0040011B04F4FF938989FF8A
S31500004A70938484FF6306A40783B7890FE316FAFEBF
S31500004A80832C890003B784009B87FCFF638A870811
S31500004A9023B40400E30A07FC83270C20BB168B0013
S31500004AA0B3F7D7009B8707006388070683274C2048
S31500004AB083B589FFB3F7D7009B870700638807068E
S31500004AC013850500E70007000327890083B7013A2D
S31500004AD063149701E30AF9F813890700E39207F6CE
S31500004AE083308105033401058334810403390104CD
S31500004AF083398103033A0103833A8102033B0102AE
S31500004B00833B8101033C0101833C8100033D01009D
S31500004B101301010667800000E70007006FF0DFFA67
S31500004B2023248900930C04006FF0DFF613850B0035
S31500004B30E70007006FF05FF963020C0A939C3400EC
S31500004B40B30999011B87F4FF83B78900B30C9C0155
S31500004B506306870623B409006382070403270C2033
S31500004B60BB168B003377D7001B070700630E0704BD
S31500004B7003274C2083B58CFF3377D7001B0707002C
S31500004B806318070413850B00E780070003278900D5
S31500004B9083B7013AE31297F4E310F9F41B04F4FF28
S31500004BA0938989FF938C8CFFE30CA4F383248900FB
S31500004BB083B789001B87F4FFE31E87F82324890047
S31500004BC0930404006FF05FF9E78007006FF01FFCA5
S31500004BD013850500E78007006FF05FFB93993400AB
S31500004BE0B30939016F00000323B409001B04F4FF65
S31500004BF0638C0700E78007000327890083B7013A23
S31500004C00E31C97ECE39A27ED938989FFE30AA4ED69
S31500004C10832489001B87F4FF83B78900E31687FC8A
S31500004C2023248900930404006FF05FFC130101FC48
S31500004C30233491028327450183A44501233C1102B5
S31500004C402338810223302103233C310123384101DB
S31500004C50233451012330610163CC971A9B84F4FFFE
S31500004C601393240013848501B3096400130A850194
S31500004C7003AB090033036A00832703001B071B00ED
S31500004C80930A05003BD9E702130B090063EAE70A1A
S31500004C90370501009308040013080A00930E00006C
S31500004CA0130700001305F5FF83A60800032E08006E
S31500004CB013084800B3F7A600BB8727031BD60601D7
S31500004CC0B376AE001B5E0E01938848003B062603B2
S31500004CD0BB87D7011BDF0701B377F500BB07F7409A
S31500004CE0BB86D7009BDE0641B3F6A6003B06E6016F
S31500004CF03377C5003B07EE403B07D7019B170701FB
S31500004D00B3E6F600232ED8FE9B5E06011B5707412D
S31500004D10E3FC19F983270300639407021303C3FF17
S31500004D2063686A006F0080019B84F4FF63786A0001
S31500004D30832703001303C3FFE38807FE23AA9A0011
S31500004D4013850A00EF404043634E0508370501000E
S31500004D501B091B0093050A00930700001305F5FFC6
S31500004D600326040003A7050093854500B376A60035
S31500004D70BB87D740B376A700BB87D7001B56060173
S31500004D809B560701BB86C6401BD70741BB86E6007C
S31500004D901B8707003377A7009B9706013367F70049
S31500004DA01304440023AEE5FE9BD70641E3FA89FAD5
S31500004DB093972400B307FA0003A7070063140702BA
S31500004DC09387C7FF6368FA006F0080019B84F4FF36
S31500004DD06378FA0003A707009387C7FFE30807FE77
S31500004DE023AA9A001B0509008330810303340103BB
S31500004DF0833481020339010283398101033A0101B7
S31500004E00833A8100033B010013010104678000001F
S31500004E10130500006FF05FFD130101F32334310B1E
S31500004E20D30905E2033805042330810C233C910A9B
S31500004E302330410B233081092334110C2338210BF5
S31500004E40233C51092338610923347109233C910716
S31500004E502338A1072334B1072334C100233CD100F2
S31500004E602330310313040500138A05009304070059
S31500004E70138C0700E30A080E8335080063880502D1
S31500004E808327880093061000BB96F60093970702C7
S31500004E909396060293D70702B3E7D70023B4F5002B
S31500004EA0EF3040528337040423B00700938D090086
S31500004EB093DA09429307000063D609021309F0FF4B
S31500004EC0939A1A021359090293D71A0033793901B2
S31500004ED0B367F9002330F102938D070093DA1A02C3
S31500004EE09307100023A0F400B707F07FB3F7FA008A
S31500004EF03707F07F6384E73ED30700F253870DF24E
S31500004F00D327F7A2638407060337810193071000AE
S31500004F102320F700E3060C08B7E700009387976B9A
S31500004F20B7EA00002330FC00938A8A6B8330810C39
S31500004F300334010C8334810B0339010B8339810A55
S31500004F40033A010A033B0109833B8108033C01083C
S31500004F50833C8107033D0107833D810613850A00D3
S31500004F60833A81091301010D6780000053850DF214
S31500004F70130681059305C10513050400EF40C06DB6
S31500004F809BD74A01930405009BD64A0163920738D2
S31500004F90032781058326C105130600029B890900A4
S31500004FA0BB86E6009B852643E35CB6081306000431
S31500004FB03B06B6409B872641BB9ACA00BBD9F9007F
S31500004FC0B3E93A019B890900D38719D2370610FE47
S31500004FD09B86F6FFD38507E2930B100093D7050255
S31500004FE03B06F6009307F0FF93D707021316060257
S31500004FF0B3F7B700B3E7C700538707F287B7012CAB
S3150000500007B6812CD377F70A87B6012D538706D2C8
S31500005010C3F7C76A87B6812DC377D77A530700F2DD
S31500005020D39707C25396E7A21B880700631006763C
S315000050303B07D740930760011B09F7FF63E007733F
S31500005040B7F60000931738009386069EB387F600DE
S3150000505087B7070053870DF2D317F7A26384072E8D
S315000050601B08F8FF23300104130B00006342092ECE
S315000050706358082E23380101930790003B0B0B4120
S315000050803B0E0041033504041308000063E6472F76
S31500005090930750009309100063D647011B0ACAFF05
S315000050A09309000093074000E30CFA2C9307500085
S315000050B0E308FA1A93072000631AFA6623340102FA
S315000050C003368100E354C01C2334C104930C06004C
S315000050D0232405009307F00163C4C7006F00D07155
S315000050E013071000930740009B9717009386C7018C
S315000050F09B0507001B071700E378D6FE2324B5009F
S3150000510013050400233C01032338C103EF30401B81
S31500005110033E010303388103930A0500E30005708B
S31500005120033704049B860C009307E0002330A70096
S3150000513063E8D7286386092883370101E350F030F6
S3150000514013F6F70037F70000131636009BD74740D3
S315000051501307079E3307C70013F607010737070033
S31500005160E30A062037F70000873707AFD3860DF22C
S3150000517093F7F70093053000D3F7F61A6386070214
S3150000518037F70000130707AD13F61700630806008C
S31500005190873607009B8515005377D71293D717409C
S315000051A013078700E39207FED3F7E71A8337010454
S315000051B06388070007B7012ED397E7A2E398074E47
S315000051C087B6012F538705D2B707C0FC4377F76A26
S315000051D0530607E213570602BB87E7001397070239
S315000051E09307F0FF93D70702B3F7C700B3E7E700CB
S315000051F0E3860C1C0336010193850C00539707C206
S315000052009B8EF5FF37F50000530707D283388102DE
S315000052101B070703939E3E001305059E1377F70FA2
S315000052203305D5012380EA0007360500D3F7E70AE0
S3150000523013851A00E380083807B7812AD38607F258
S315000052405377C71A5377D70AD397E7A2E39E075235
S31500005250130D050087B5012E1305100007B6812E24
S315000052603B05A5416F0080033B07A5016358B714B2
S31500005270D3F7C7125377C712130D1D00539707C2F2
S31500005280D30607D21B0707031377F70FD3F7D70AFF
S31500005290A30FEDFED39EE7A2E3920E4CD3F6F50ADA
S315000052A0D39EE6A2E3820EFC9B0716002338F1008C
S315000052B0130690036F000001E386564503C7F6FF09
S315000052C0138D06009306FDFFE308C7FE1B071700B4
S315000052D01377F70F2380E6006F00C0420337810182
S315000052E0B72700009387F7702320F700939DCD0022
S315000052F063980D0AB7FA0000938A0A85E3080CC280
S31500005300B7F70000938787852330FC006FF01FC234
S315000053109397CD003706F03F93D7C702B3E7C70090
S31500005320139607029307F0FF93D70702B3F7B70167
S3150000533003278105B3E7C7009B8616C0930B0000C1
S315000053406FF09FCB23300104130B0000635A090052
S31500005350130310003B0BE34013090000E34C08D095
S315000053602338010193079000033504043B09280103
S31500005370130E0000E3FE47D19307100093091000B7
S31500005380130A00002334F102930CF0FF23340100CA
S315000053902324050023349105930500006FF05FD6A2
S315000053A0B7FA0000938A0A86E3020CB8B7F7000042
S315000053B0938737862330FC006FF05FB72330B10345
S315000053C08327C10563C00710033601011307E000F8
S315000053D0634AC70E37F70000931736001307079E78
S315000053E0B307F70007B707008337810063DC0702BE
S315000053F0634A900363940C7E87B7812F930B00005A
S31500005400930900005377F71287370102D387E7A283
S315000054106382076E83378100138D0A0013C9F7FF75
S315000054206F00806E033501029307100093851A0002
S31500005430D30705F2D30605F2D3F7E71A539607C248
S31500005440D30706D21B0706031377F70F2380EA005C
S31500005450CBF7E76A1B060600E382FC0C9B87E6FF98
S315000054609397070293D707029387270087B5812E64
S31500005470530600F2338DFA006F00C002D3F6E71A26
S3150000548093851500D39606C2D38606D21B870603DC
S315000054901377F70FA38FE5FECBF7E67A1B86060098
S315000054A0E380A509D3F7B71253A7C7A2E30807FC01
S315000054B083370101138D05009B8717002338F10000
S315000054C06F004024033781026302072E1307100082
S315000054D0635C47719B87FCFF6344FE68BB0BFE4021
S315000054E0E3C60C0C930D0B003B0999013B0B9B018A
S315000054F09305100013050400233C01032338C10360
