S00C000074656D702E7372656362
S31500000000971101009381019C97020000938282154B
S3150000001073905230732440F163100402970200007B
S315000000209382421573905230EF00805E9702000073
S3150000003093824235E78002001313240097020000E2
S315000000409382420CB302530003A302000F00F00F89
S31500000050E31C03FE138E014893134400B30E7E0087
S31500000060138F8E0083BF0E0003310F00970200002E
S315000000709382421073905230732540F1E7800F004F
S31500000080130000001300000013000000130000001E
S31500000090130000001300000013000000130000000E
S315000000A013000000130000001300000013000000FE
S315000000B013000000130000001300000013000000EE
S315000000C013000000130000001300000013000000DE
S315000000D013000000130000001300000013000000CE
S315000000E013000000130000001300000013000000BE
S315000000F013000000130000001300000013000000AE
S3150000010073001000730010007300100073001000DD
S3150000011073001000730010007300100073001000CD
S3150000012073001000730010007300100073001000BD
S3150000013073001000730010007300100073001000AD
S3150000014013132500970300009383C3FBB3027300C8
S315000001500F00500F23A00200130500006780000067
S3150000016073001000130000001300000013000000CD
S3150000017073202034130101EF23301100233831009E
S31500000180233C41002330510223346102233871029B
S31500000190233C8102233091042334A1042338B10483
S315000001A0233CC1042330D1062334E1062338F1066B
S315000001B0233C01072330110923342109233831094F
S315000001C0233C41092330510B2334610B2338710B37
S315000001D0233C810B2330910D2334A10D2338B10D1F
S315000001E0233CC10D2330D10F2334E10F2338F10F07
S315000001F073250030F325103473262034233CA10EDA
S315000002002330B1102334C11063560600EF00004FAF
S315000002106F00C00093060100EF00002B8330010041
S3150000022083310101033281018332010203338102EA
S3150000023083330103033481038334010403358104CA
S3150000024083350105033681058336010603378106AA
S31500000250833701070338810783380108033981088A
S3150000026083390109033A8109833A010A033B810A6A
S31500000270833B010B033C810B833C010C033D810C4A
S31500000280833D010D033E810D833E010E033F810F29
S31500000290833F011073100F3073901F34033F810E9C
S315000002A0833F010F1301011173002030000000008D
S315000002B00000000000000000000000000000000038
S315000002C00000000000000000000000000000000028
S315000002D00000000000000000000000000000000018
S315000002E00000000000000000000000000000000008
S315000002F000000000000000000000000000000000F8
S3150000030000000000000000000000000000000000E7
S3150000031000000000000000000000000000000000D7
S3150000032000000000000000000000000000000000C7
S3150000033000000000000000000000000000000000B7
S3150000034000000000000000000000000000000000A7
S3150000035037050100130101FF1305858323341100BE
S31500000360EF10C04183308100130500001301010125
S315000003706780000000000000000000000000000090
S31500000380EF0000291304010093020000639E02009F
S3150000039013850134171601001306C6DEB306A64000
S315000003A093D53600EF00C0279382014423B0820024
S315000003B0EF000029EF00C025EF00C052EF004058C3
S315000003C0EF000040171500001305C5FFEF00107B76
S315000003D0EF10C004EF00C0239382013503A502008D
S315000003E09382813083B5020013060000EFF05FF6BA
S315000003F0EF00107A730010000000000000000000FB
S315000004009387812613878126630AF70093070000E6
S3150000041063860700138581266780070067800000D2
S315000004209387812693858126B385F54093D73540FA
S3150000043093D5F503B385F50093D51540638A05007A
S3150000044093070000638607001385812667800700EF
S3150000045067800000130101FF2330810083C78144B8
S315000004602334110063920702EFF09FF9930700000F
S31500000470638807001385013397000000E70000003A
S31500000480930710002384F144833081000334010074
S3150000049013010101678000009307000063840702CF
S315000004A0130101FF938501451385013323341100A0
S315000004B097000000E700000083308100130101016E
S315000004C06FF01FF66FF0DFF5130101FC233C3101DD
S315000004D02330610193090500370B010037F5000051
S315000004E023349102130585759384050093058B8546
S315000004F0233C110223388102233021031304060012
S315000005002334510123384101938A0600EF108001FC
S3150000051037F50000138609009385012F13058576AC
S31500000520EF10400037F50000138604009385012F75
S3150000053013050578EF00107F37F500001306040059
S315000005409385012F13058579EF00D07D9307200051
S31500000550630CF408930760006300F40A1305A00017
S31500000560EF10000937F5000013860A009385012F66
S315000005701305057F93840A00EF00D07A1304000068
S31500000580370A01009309F00183B604001B04140026
S31500000590130604009385012F13058A80EF009078D7
S315000005A093848400E31234FF83B70A1003340103F3
S315000005B08330810393874700833481020339010224
S315000005C083398101033A010123B0FA1093058B8523
S315000005D0833A8100033B010037050100130585823C
S315000005E0130101046F00107437F500001305057B35
S315000005F0EF0050736FF09FF637F500001305057D89
S31500000600EF0050726FF09FF503A5813667800000FA
S3150000061067800000000000000000000000000000ED
S315000006209387F5FF638C05001307F0FF2330050061
S315000006309387F7FF13058500E39AE7FE67800000BE
S31500000640B7070100370701001386071C9305071C2F
S315000006506304B60AB70601009386061C63FED50836
S315000006603365B6009386F6FF137575001307071CEE
S31500000670B386B6406310050613B5C60213451500CA
S315000006801375F50F6308050493D6260093861600A6
S3150000069013D81600131838009387071C3308060171
S315000006A003B507009387870013078700233CA7FE3F
S315000006B0E39807FF13F5E6FF13172500B307E600D7
S315000006C0B385E500638AA60283A7070023A0F50089
S315000006D06780000093F6C6FF93864600B306D600F1
S315000006E09387071C03A70700938747009385450058
S315000006F023AEE5FEE398F6FE67800000931716002A
S3150000070093D717001307B0006386E7007300100045
S3150000071067800000130101FD2334310183B90136DE
S31500000720B707200023382101B389F90003A949003E
S31500000730233041012334110223308102233C9100EE
S315000007401B090900138A0158630209049317090259
S3150000075093D7D701B307FA0003B407009B04090037
S31500000760630E040083370401033584019385040076
S31500000770E780070003340400E31604FE23A22901E0
S3150000078003A949001B090900E31209FC8330810211
S315000007900334010283348101033901018339810065
S315000007A0033A0100130101036780000083A7813625
S315000007B0130500009B87170023A4F136678000000D
S315000007C0130101FA2338810483A78136233C1104DF
S315000007D023349104638E070C83B70136639A0702AC
S315000007E003A50131B717000093878721130801007D
S315000007F013074000930620001306200C93051000F3
S31500000800EF0050209317050293D7070223B0F13665
S3150000081083B78135639A070203A50131B717000034
S3150000082093878721130801001307400093062000D1
S315000008301306300C93051000EF00D01C9317050229
S3150000084093D7070223BCF13403A7C13683B601361A
S31500000850930710001B172700130707201317C7005D
S315000008603387E600232007009305100013060002D5
S31500000870139727003387E6002320B7009B871700CE
S31500000880E398C7FEB71700009B87078073A0473021
S315000008909307800073A00730833081050334010578
S315000008A083348104130500001301010667800000EC
S315000008B003A501319307C07A13080000130740000F
S315000008C0930610001306D00B93051000EF0090134B
S315000008D083A78136E39207F09307100023A4F1362D
S315000008E06FF09FEF130101FF2330810083B70137BB
S315000008F02334110013050000639C070203A5013190
S31500000900B7170000130800009387872113074000DC
S31500000910930640001306C00093051000EF00900EEA
S31500000920131505021355050223B8A1361335150014
S315000009308330810003340100130101016780000048
S31500000940130101FD2330810283B7013823341102DC
S3150000095013050000638A0700833081020334010215
S31500000960130101036780000003A50131B7170000DA
S3150000097093878721130881001307400093064000E0
S315000009801306100193051000EF00D0079317050218
S3150000099093D7070223B0F13813051000E38E07FA48
S315000009A003479100833081020334010223ACE13610
S315000009B01305000013010103678000006382052010
S315000009C06302062E03A70500233CB6029B57570079
S315000009D093F607061377F70193F7F70133E7E60077
S315000009E02300F600A300E60083A70501639607121D
S315000009F013070000930600001308000023060601F3
S31500000A0083A745012322D6002324E6006386071820
S31500000A101B970701B706F0FF33F7E7003377D700D8
S31500000A2013F8F700930830001B0707009306080029
S31500000A30630A18219BD747009B97470193C7F7FF87
S31500000A409B8707001308F0FF638807171317070231
S31500000A509397070213570702B367F7002338F60088
S31500000A6083A78501230CD6009308F0FF638E071039
S31500000A709B9607013707F0FFB3F6D700B3F6E600FB
S31500000A801303300013F7F7009B86060013080700D0
S31500000A90630267181BD747001B1747011347F7FF69
S31500000AA01B0707006306171183A7C501232ED6006F
S31500000AB02320E602230206036382070A1B97070127
S31500000AC0B706F0FF33F7E7003377D70093F5F70063
S31500000AD0130830001B070700938605006386050F81
S31500000AE09BD747009B97470193C7F7FF9B87070054
S31500000AF09305F0FF638AB70A131707021357070215
S31500000B0093970702B367F7002334F6022308D60249
S31500000B1013050000678000009B9607013707F0FF6A
S31500000B20B3F6D700B3F6E6009308300013F7F700E4
S31500000B309B86060013080700630E17131BD7470092
S31500000B401B1747011347F7FF1B0707009307F0FF23
S31500000B50E316F7EA130700006FF05FEA13070000D9
S31500000B60930700001317070213570702939707020C
S31500000B7093060000B367F7002334F6022308D60273
S31500000B8013050000678000001307000093060000AD
S31500000B90130800006FF05FF19307000013070000D1
S31500000BA0930600006FF09FEA930700006FF0DFF4F2
S31500000BB0130700006FF05FEF930700006FF01FE967
S31500000BC0130510006780000093C7F7FF9BD7470007
S31500000BD0B7051000938505F09B9787001B57C70044
S31500000BE0B3F7B7003367E50093E7F70F1B07070076
S31500000BF09B870700131707021357070293970702ED
S31500000C00B367F7002334F6022308D6021305000063
S31500000C106780000013C7F7FF1B574700B707100090
S31500000C201B178700938707F09BD6C6003377F7001C
S31500000C30B366D5001367F70F9B8606001B070700F0
S31500000C406FF09FE693C7F7FF9BD747003708100062
S31500000C509B978700130808F01B57C700B3F70701D7
S31500000C603367E50093E7F70F1B0707009B8707002D
S31500000C706FF0DFDD13C7F7FF1B574700B7071000FC
S31500000C801B178700938707F09BD6C6003377F700BC
S31500000C90B366D5001367F70F9B8606001B07070090
S31500000CA06FF0DFD51305200067800000130101F205
S31500000CB0233C310B2338410B2330610B233C710954
S31500000CC0233491092330A1092330D102233C110C8E
S31500000CD02338810C2334910C2330210D2334510BFE
S31500000CE023388109233CB10793F6160023341101FA
S31500000CF0930C0500138B0500930B0600130D0700DC
S31500000D00138A0700930908006388061037F40F005A
S31500000D10336485001314040213540402630E080E90
S31500000D20638405366302063EB71400001389048007
S31500000D30330924019384F4FF6F00C00013040402F6
S31500000D40630C240D832604009BD7C600B3F79700D7
S31500000D501BD786019B87070033E7E7001B070700C1
S31500000D609BD68601E30C07FCE39A66FDE398FBFC41
S31500000D70930504001306010313850C00EFF01FC44E
S31500000D808337810013070D009306100013860B00AE
S31500000D9093050B0013050103E78009001B050500F9
S31500000DA0E30E05F86F004010B71A000093870A801B
S31500000DB0330CF400938AFAFF03270400930504001A
S31500000DC0130601039B54C700B3F454019B8404002B
S31500000DD09B578701B3E7F4009B87070013850C0038
S31500000DE0130404021B59870163860702EFF01FBD37
S31500000DF08337810013070D00930610001386040045
S31500000E009305090013050103E78009001B0505008A
S31500000E10631C0508E31284FB03370102B7071000C1
S31500000E2093840780B3E49C00137C27001377470064
S31500000E30939404022330E100B71D00003717000029
S31500000E4093D40402938D0D801309F7FF9387F7FF60
S31500000E501B071D00B38DB401233CE1002334F102CE
S31500000E6003A304001B58C300337709019B57830172
S31500000E701B5483019B0A0700630C0C00B3E7FA00BE
S31500000E809B870700638C0700630E0B04630C8B04BF
S31500000E9063764D0193071000630CF40893840402F3
S31500000EA0E3909DFC130500008330810D0334010D92
S31500000EB08334810C0339010C8339810B033A010B0E
S31500000EC0833A810A033B010A833B8109033C0109FA
S31500000ED0833C8108033D0108833D81071301010E10
S31500000EE06780000063840B00E3945BFBE38209FAEE
S31500000EF0130601039385040013850C0023280101C2
S31500000F00EFF0DFAB8337810013070D009306200057
S31500000F1013860A009305040013050103E780090000
S31500000F201B05050003280101E30405F66FF0DFF752
S31500000F30930700026380FA12B71700009387B7FF82
S31500000F4033F807011B0808009307B0046304F81080
S31500000F5083370100E38407F493076000E390FAF413
S31500000F6083A7040137F40F001B93070133F36700CF
S31500000F70B707F0FF3373F3001B03030033648300EA
S31500000F801314040213540402930A04086F000001A8
S31500000F90630ABB0213048400E30254F1032704002E
S31500000FA01B56C700337626011B0606009B57870192
S31500000FB0B367F6009B8707009B558701E38C07FC08
S31500000FC0E3180BFC63840B00E396CBFCE38409FC7B
S31500000FD09B57570093F607061377F70133E7E600AA
S31500000FE093F7F7012308F102A308E10283264400E0
S31500000FF083378100033781011B9546009BD0C600CD
S315000010001BD84600B7061000B3F0A000138506F003
S31500001010833681021B188800B3F0A0003378A8003D
S31500001020B3E060003348D80013050103930640007F
S315000010302338610023308104232A1102232C010363
S31500001040E78009001B05050003330101E30405F4ED
S315000010506FF09FE503A58400E30C05EE833881005D
S3150000106003378101833601021388090093070A00BA
S3150000107013860B0093050B00EFF05FC31B050500FD
S31500001080E30805EC6FF05FE2E30006D237190000D3
S31500001090930A0980B30A54011309F9FF6F00C000CF
S315000010A013040402E38A8AD6832504009BD7C5006D
S315000010B0B3F727019B8707001BD7850133E7E700B6
S315000010C01B0707009BD48501E30C07FCE39AFBFC96
S315000010D0930504001306010313850C00EFF01F8E21
S315000010E08337810013070D009306100013860B004B
S315000010F09385040013050103E78009001B0505001D
S31500001100E30005FA6FF05FDA37190000930A0980E9
S31500001110B30A54011309F9FF6F00C0001304040257
S31500001120E30C54CF032704009B54C700B3F42401F7
S315000011309B5787019B840400B3E7F4009B87070055
S315000011401B578701E38C07FCE31AEBFC93050400AD
S315000011501306010313850C00EFF05F8683378100C9
S3150000116013070D00930610001386040093050B0069
S3150000117013050103E78009001B050500E30005FAD6
S315000011806FF09FD263880506630A060603A805006A
S3150000119037071000130307F09B56580093F806060E
S315000011A01378F80193F6F60133E808012300D60018
S315000011B0A300060183A745009306F7FF2338B60070
S315000011C01BD7C7009B9547009BD747003377B700CF
S315000011D09B97870033776700B3F767003365A700EF
S315000011E0B3C7D7002322A6002324F6001305000068
S315000011F067800000130510006780000013052000BB
S31500001200678000009308080013880700930707000B
S31500001210130700006FF09FA9638C070013074000B7
S31500001220638CE6009B86F6FF130710006376D702F1
S3150000123003254500678000000337050023B0E7005B
S315000012400337850023B4E70003370501032545006E
S3150000125023B8E70067800000033E050003338500DE
S315000012608338050103388501833505020336850277
S3150000127083360503033785030325450023B0C701DD
S3150000128023B4670023B8170123BC070123B0B702B4
S3150000129023B4C70223B8D70223BCE7026780000045
S315000012A083B6013663820606F375043003A7C1369A
S315000012B01B56F5411B56B6013B06A6001B17270019
S315000012C01B565640131757003307C700131727003E
S315000012D0B386E60037270000B386E60003A70600BC
S315000012E093071000BB97A70093C7F7FFB3F7E70074
S315000012F09B87070023A0F60093F7850073A00730AD
S3150000130013050000678000001305100067800000C9
S3150000131003B70136630007067376043083A7C13628
S315000013209B56F5419BD6B601BB86A6009B97270028
S315000013309BD6564093975700B387D70093972700BD
S315000013403307F700B72700003307F70083270700A6
S31500001350930610003B95A60033E5A7001B05050084
S315000013602320A7009377860073A00730130500009B
S3150000137067800000130510006780000093050500D4
S315000013809306000013060000130500006F30C0220C
S31500001390130101FF9305000023308100233411005F
S315000013A013040500EF30402D03B5812F83378504E4
S315000013B063840700E780070013050400EFC0501A96
S315000013C0130101FE23388100B7070100370401002D
S315000013D01304841B9387071CB3878740233491002B
S315000013E0233C110093D4374063800402938787FF20
S315000013F033848700833704009384F4FF130484FF47
S31500001400E7800700E39804FE83308101033401017D
S31500001410833481001301010267800000130101FE7D
S3150000142023388100233021013704010037090100E8
S315000014309307041B1309091B3309F940233C1100C8
S315000014402334910013593940630009021304041B25
S31500001450930400008337040093841400130484006B
S31500001460E7800700E31899FE3704010037090100F9
S315000014709307041B1309891B3309F9401359394093
S31500001480630009021304041B93040000833704005D
S315000014909384140013048400E7800700E31899FE80
S315000014A08330810103340101833481000339010053
S315000014B01301010267800000130101FA2330810243
S315000014C02338C10223341102233CD1022330E10424
S315000014D02334F10423380105233C110513040500C8
S315000014E01386050063060500832705036384070248
S315000014F0833504019306010313050400233CD10040
S31500001500EF00C04683308102033401021301010655
S31500001510678000002334B100EF50000C03368100D1
S315000015206FF01FFD130101F92330810203B48131ED
S315000015302330C10423341102233CB1022334D104E5
S315000015402338E104233CF104233001072334110737
S315000015501306050063060400832704036384070259
S31500001560833504019306810313050400233CD1004F
S31500001570EF00C03F833081020334010213010107EB
S31500001580678000002334A10013050400EF50C00457
S31500001590033681006FF0DFFC130101FE2338810062
S315000015A0233C110013040500630605008327050389
S315000015B0638E07000336040113050400033401019A
S315000015C083308101130101026F80C0782334B1009A
S315000015D0EF508000033604011305040003340101B3
S315000015E08335810083308101130101026F8080768B
S315000015F0130101FE2338810003B48131233C11001D
S31500001600930505006306040083270403638E070021
S3150000161003360401130504000334010183308101FC
S31500001620130101026F8000732334A1001305040027
S31500001630EF40907A033604011305040003340101D8
S315000016408335810083308101130101026F80807030
S31500001650130101F9233081061304050013850500E3
S31500001660233C91042334110693840500EF00802364
S31500001670B7070100938707832330F104930710000F
S315000016802334F1049307010313071500233CF100EB
S315000016909307200023389102233CA1022334E10260
S315000016A02320F102630804088327040363800708E4
S315000016B083350401B7070100938707B66380F50AEF
S315000016C0B7070100938787B2638EF508B707010055
S315000016D0938707AF638CF508839705011397270354
S315000016E06342070203A7850AB7260000B3E7D700BF
S315000016F0B7E6FFFF9386F6FF3377D7002398F5000A
S3150000170023A4E50A1306810113050400EF500034F3
S31500001710631205061305A000833081060334010613
S315000017208334810513010107678000001305040057
S31500001730EF40906A8327040383350401E39C07F690
S31500001740130504002334B100EF401069833581008E
S31500001750B7070100938707B6E394F5F6833584004F
S315000017606FF09FF7833504016FF01FF7833584010F
S315000017706FF09FF61305F0FF6FF01FFA130101F9E2
S3150000178023308106233C910403B481319304050080
S3150000179023341106EF000011B70701009387078372
S315000017A02330F104930710002334F1049307010357
S315000017B013071500233CF1009307200023389102FC
S315000017C0233CA1022334E1022320F102630804082A
S315000017D0832704036380070883350401B7070100E4
S315000017E0938707B66380F50AB7070100938787B228
S315000017F0638EF508B7070100938707AF638CF5087A
S3150000180083970501139727036342070203A7850AF7
S31500001810B7260000B3E7D700B7E6FFFF9386F6FFCB
S315000018203377D7002398F50023A4E50A1306810130
S3150000183013050400EF508021631205061305A0006E
S3150000184083308106033401068334810513010107C1
S315000018506780000013050400EF4010588327040337
S3150000186083350401E39C07F6130504002334B10015
S31500001870EF40905683358100B7070100938707B67E
S31500001880E394F5F6833584006FF09FF78335040102
S315000018906FF01FF7833584016FF09FF61305F0FF95
S315000018A06FF01FFA9377750013070500639A070612
S315000018B083B681269305F0FF0336070013078700DA
S315000018C0B377D600B387D700B3E7C700B3E7D7002F
S315000018D0E384B7FE834687FFB307A7406384060603
S315000018E0834697FF638C06048346A7FF6384060638
S315000018F08346B7FF638C06048346C7FF0346D7FFBC
S315000019000345E7FF638C0604630E06043335A00027
S315000019103305F5001305E5FF67800000E38A06F846
S31500001920834707001307170093767700E39807FEAF
S315000019303307A7401305F7FF67800000138597FF5D
S3150000194067800000138587FF678000001385B7FF57
S31500001950678000001385A7FF678000001385C7FF17
S31500001960678000001385D7FF67800000130101D947
S315000019702334112623343125233471232330812344
S3150000198093890500130C06002334D10023308126E9
S31500001990233C91242338212523304125233C512300
S315000019A023386123233C91212338A1212334B121FB
S315000019B0930B0500EF50406E833705001385070033
S315000019C02330F106EFF01FEE2338A10463860B00E7
S315000019D083A70B0363860762B7070100938707B6E1
S315000019E0638AF962B7070100938787B26388F96251
S315000019F0B7070100938707AF6394F9006F1000568D
S31500001A0083960901372600009397060393D70703A9
S31500001A10B3F5C7006398050283A5890AB3E7C60034
S31500001A209B970701B7E6FFFF9BD707419386F6FF13
S31500001A30B3F6D5002398F9009397070323A4D90A90
S31500001A4093D7070393F68700E380065A83B6890186
S31500001A50E38C065893F7A7019306A000E388D75AAC
S31500001A6083B70127930C0C00233801102338F108A3
S31500001A7083B701292324011023340102233CF108F2
S31500001A8083B7812723300104233401062334F10868
S31500001A9083B7012823380106233C01022330F10ACB
S31500001AA083B7812823340104233C01042334F10A3B
S31500001AB0930701182330F1109388070083C70C00A1
S31500001AC023300100638C072013840C009306500218
S31500001AD0E388D70E8347140013041400E39A07FE25
S31500001AE0BB049441638C041E0336011183268110C6
S31500001AF023B09801330696009B86160023B49800FF
S31500001B002338C1102324D1101B86060093067000CB
S31500001B1093880801E3C6C646033701003B87E40005
S31500001B202330E100638C071A370A0100034E1400C4
S31500001B30A30F010C13041400130DF0FF130900008A
S31500001B4093040000930AA005130A0A8D130C900053
S31500001B50138B0800130414009B0D0E009306A002BD
S31500001B609B870DFE1B87070063ECEA00939707022D
S31500001B7093D7E701B387470183A70700678007006C
S31500001B8093080B00638C0D14230CB111A30F010CE9
S31500001B90130A10009306000023380100930A100070
S31500001BA0130D0000233C01002338010223300102FB
S31500001BB0930C811113FC240063040C001B0A2A00F9
S31500001BC013FB44088337011163160B003B08494198
S31500001BD0634E0021638C0602832681101306F10DE5
S31500001BE023B0C8009B8616001306100093871700C3
S31500001BF023B4C8002324D1101B8606002338F11015
S31500001C00930670009388080163C0C62C630C0C020F
S31500001C10832681101306010E23B0C8009B8616008A
S31500001C20130620009387270023B4C8002324D1106D
S31500001C301B8606002338F11093067000938808016E
S31500001C40E3C4C63893060008E304DB143B0D5D418C
S31500001C50E342A02193F60410E390060203278110C5
S31500001C60B387570123B098019B0617001387060018
S31500001C7023B458012324E1102338F1101307700010
S31500001C806348D7349388080193F4440063860400BC
S31500001C90BB044941E346903C1307090063544901DC
S31500001CA013070A00833601003B07D7002330E10003
S31500001CB0E39E07248337010123240110638807006C
S31500001CC09385070013850B00EF40D0259308011874
S31500001CD0930C040083C70C00E39807DE83370111D9
S31500001CE0E3880724130601109385090013850B006A
S31500001CF0EF8090436F00D0231309000003470400D0
S31500001D009B172900BB8727019B8D0DFD9B9717000D
S31500001D101B0607FD3B89FD00130414009B0D0700FD
S31500001D20E37ECCFC6FF0DFE393F7840093080B00AF
S31500001D30E39C076A8337810003B707009387870010
S31500001D402334F1002330E104130B0700833A010921
S31500001D50131A1B00135A1A0093850A0013050A006A
S31500001D6023381101EFD0C058833801016304050000
S31500001D706F10401F93850A0013050A00EFC0104438
S31500001D80833801016344A0006F10C01D9305000055
S31500001D9013050B00EFC09042833801016354050020
S31500001DA06F10501D8346F10D9307700463C4B7018D
S31500001DB06F10405837070100930C878793F4F4F7A8
S31500001DC023380100233C010023380102233001029D
S31500001DD09B840400130A3000930A3000130D0000A0
S31500001DE0E38A06DC1B0A1A006FF0DFDCB70E01007F
S31500001DF01306000183268110938E0EA4635E0609E6
S31500001E00233C81062330910813840B009384090038
S31500001E10130F00019303700093090800938B0E00C3
S31500001E206F00C0009B8909FF635C3F059B86160017
S31500001E309387070123B0780123B4E8012338F11012
S31500001E402324D11093880801E3DED3FC1306011086
S31500001E509385040013050400EF80102D630405002C
S31500001E606F00507E130F00019B8909FF8337011114
S31500001E70832681109308011893037000E3483FFB03
S31500001E8013880900938E0B0093890400930B0400BA
S31500001E9083340108033481071B861600B3870701C4
S31500001EA023B0D80123B408012338F1102324C1102C
S31500001EB09306700063D4C6006F00D07F8346F10D91
S31500001EC0938808016FF01FD113060110938509004E
S31500001ED013850B00EF805025E314050483370111A9
S31500001EE0930801186FF09FD20326811003378102F1
S31500001EF0138C1700930510009B07160023B098015A
S31500001F0093860700938A0801E3D8E5381306100084
S31500001F102324D11023B4C8002338811193067000FE
S31500001F20E3C0F67003370105833601069B8D170063
S31500001F30330CEC0023B0DA0023B4EA002338811115
S31500001F402324B11193077000938A0A01E3C2B77183
S31500001F50033501049B861D0093050000232CD10048
S31500001F60EFC01014832681018337810293880A010A
S31500001F701B8606001B8DF7FFE304053413871C0040
S31500001F80330CAC0123B0EA0023B4AA012338811133
S31500001F902324D11093077000E3CCC74C93870A0221
S31500001FA01B862D00938A0800938807008336010755
S31500001FB01307010F23B0EA00B387860123B4DA00C2
S31500001FC02338F1102324C11013077000E35EC7CA3B
S31500001FD0130601109385090013850B00EF80D014BA
S31500001FE06310057483370111930801186FF0DFC978
S31500001FF093E40401034E04009B8404006FF09FB534
S3150000200013850B00EF40405DB7070100938707B6C5
S31500002010E39AF99C83B98B006FF09F9E83B90B01FD
S315000020206FF01F9E0337810093080B00A30F010C6E
S3150000203083270700130787002334E100230CF110E0
S315000020406FF01FB583378100A30F010C93080B00B7
S3150000205083BC0700138B8700E38A0C509307F0FFBD
S315000020606314FD006F10402013060D009305000059
S3150000207013850C0023341101EF50D02B2338A10017
S3150000208083388100631405006F10101FBB0A954149
S315000020908346F10D13CAFAFF135AFA43233461013A
S315000020A023380100233C01002338010223300102BA
S315000020B0337A5A01130D0000E38E06AE6FF09FD2FD
S315000020C093E4040193080B001B8C04008336810003
S315000020D093770C0213878600E38E072603BA060061
S315000020E0930710002334E100A30F010C1307F0FF40
S315000020F06300ED2E9374FCF79B84040063180A2C8E
S3150000210063160D326396070C937A1C00930CC11765
S31500002110E39C0A2A8346F10D1B0A0D0063545D01F8
S315000021201B8A0A0023380100233C010023380102E0
S3150000213023300102E38006A86FF0DFCA93E40401AE
S3150000214093080B009B8404008336810093F70402F6
S3150000215013878600E380071E03BA060093F4F4BFD4
S315000021601B8C04002334E100930700006FF0DFF7B7
S3150000217093E48400034E04009B8404006FF09F9D4B
S3150000218093E4040193080B009B84040083368100CA
S3150000219093F7040213878600E382071E83B70600BF
S315000021A0138A0700E3CA071E9307F0FF630AFD5E62
S315000021B093F4F4F71B8C040063040A006F104002CA
S315000021C063040D006F20800293040C002334E100A9
S315000021D0130D0000930A0000930CC1176FF09FF3D4
S315000021E093E40408034E04009B8404006FF09F965A
S315000021F08336810093F7040293080B0003B70600A9
S31500002200938686002334D100E398071C93F70401D4
S31500002210E394071C93F70404638407006F10805E41
S3150000222093F4042083370100639404006F10506810
S315000022302300F700930C04006FF0DFA9034E04009F
S315000022409307C006E30AFE3093E404019B8404006E
S315000022506FF05F90034E040093078006E304FE2AA6
S3150000226093E404049B8404006FF0DF8E93E404027D
S31500002270034E04009B8404006FF0DF8D033781005A
S31500002280B787FFFF93C707832310F10E93078700D5
S315000022902334F100B70701009387078993E42400EC
S315000022A02334F106033A070093080B001B8C040045
S315000022B093072000930D80076FF01FE3833781009B
S315000022C0034E040003A90700938787002334F10017
S315000022D0E35209883B0920416F00400813850B0033
S315000022E0EF40905B8337850013850700233CF1049C
S315000022F0EFF04FDB9307050013850B00938D070066
S315000023002334F104EF40505983370501034E04008E
S31500002310233CF102E3800D84E38E078283C7070026
S31500002320E38A078293E404409B8404006FF09F8253
S3150000233093E41400034E04009B8404006FF09F8115
S315000023408347F10D034E0400E396078093070002CE
S31500002350A30FF10C6FF01F80034E040093E44400BA
S315000023609B8404006FF00FFF9307B002034E040036
S31500002370A30FF10C6FF00FFE834D040093071400BA
S315000023806394DD006F1050741B870DFD13840700E6
S31500002390130D00006366ECFC034604009B172D003A
S315000023A0BB87A7019B9717003B8DE7001B0706FD20
S315000023B013041400E372ECFE930D06006FF04FFA5F
S315000023C0BB049441638204F66FF00FF2138C040091
S315000023D013071000638AE73C130720006384E706AF
S315000023E0930AC117938C0A0093777A0093870703A1
S315000023F0A38FFCFE135A3A0093860C00938CFCFFC5
S31500002400E3140AFE13761C00630206061306000395
S31500002410638EC7049386E6FFA38FCCFEBB8ADA40A1
S3150000242093040C00938C06006FF0DFCE13071000A8
S315000024306394E7006F10104313072000138C040009
S31500002440E390E7FA03378106930AC117938C0A00D3
S315000024509377FA00B307F70083C70700135A4A00B9
S31500002460938CFCFF2380FC00E3140AFEBB8A9A418E
S3150000247093040C006FF01FCA93065006E3D6B6A766
S31500002480033501049305000023301109233CF106AE
S31500002490EFC000418337810783380108631C054676
S315000024A003278110B70601009386868C1B07170049
S315000024B023B0D800938717009306100023B4D800E2
S315000024C02324E1109B0607002338F1101307700040
S315000024D093880801E34CD74C0327810E833681028B
S315000024E0635AD76C033701068336010593880801C2
S315000024F023B8E8FE03278110B387D70023BCD8FE94
S315000025001B0717009B0607002324E1102338F11050
S3150000251013077000E342D702033781029B0AF7FFD5
S31500002520635450F737080100930600010327811012
S31500002530130B08A5130C0001930D700063C8560118
S315000025406F00D0489B8A0AFFE3525C491B071700BD
S315000025509387070123B0680123B488012338F1105B
S315000025602324E11093880801E3DEEDFC1306011035
S315000025709385090013850B00EF80003B6312051A53
S315000025808337011103278110930801186FF09FFB11
S315000025903B0C4941635C80EB3708010013060001E0
S315000025A083268110130B08A5130F0001930F7000EB
S315000025B0634886016F00C0051B0C0CFF635A8F052C
S315000025C09B8616009387070123B0680123B4E801B0
S315000025D02338F1102324D11093880801E3DEDFFCB1
S315000025E0130601109385090013850B00EF80C03395
S315000025F063180512130F00011B0C0CFF8337011122
S315000026008326811093080118930F7000E34A8FFB0D
S315000026101B861600B387870123B0680123B488019F
S315000026202338F1102324C110930670009388080103
S3150000263063DEC6E0130601109385090013850B00BF
S31500002640EF80802E631E050C833701119308011855
S315000026506FF0CFDF370801001306000183268110D3
S31500002660130B08A5930E0001130C70006348A60116
S315000026706F0080051B0D0DFF63D8AE059B86160007
S315000026809387070123B0680123B4D8012338F110DA
S315000026902324D11093880801E35EDCFC13060110A5
S315000026A09385090013850B00EF800028631A050641
S315000026B0930E00011B0D0DFF833701118326811038
S315000026C093080118E3CCAEFB1B861600B387A7015F
S315000026D023B0680123B4A8012338F1102324C110C4
S315000026E0930670009388080163D6C6D613060110B8
S315000026F09385090013850B00EF8000236312050202
S3150000270083370111930801186FF0CFD41306011017
S315000027109385090013850B00EF800021630C05D813
S31500002720833501016386050013850B00EF30907F2A
S3150000273083D7090193F70704638407006F10007CB1
S315000027408330812603340126033501008334812535
S315000027500339012583398124033A0124833A8123ED
S31500002760033B0123833B8122033C0122833C8121DD
S31500002770033D0121833D812013010127678000006D
S31500002780130601109385090013850B00EF80C0190D
S31500002790E31005FA83470400930801186FF0CFB7DA
S315000027A0138C04002334E1009307900063E4476D23
S315000027B01B0A0A03A30D411793040C00930A100089
S315000027C0930CB1176FF01F9513060110938509003E
S315000027D013850B00EF804015E31405F483370111D0
S315000027E0930801186FF00FC69385090013850B0037
S315000027F0EF101041630405006F10407083D7090184
S315000028009306A00093F7A701639CD7A48397290199
S3150000281063C807A4033401268336810083308126EA
S315000028208334812503390125033A0124833A812320
S31500002830033B0123833C8121033D0121833D81200C
S3150000284013060C0093850900033C01228339812479
S3150000285013850B00833B8122130101276F10502E35
S31500002860B70E0100938E0EA4930600010327811074
S31500002870930A0001130C7000138B0E0063C89600B8
S315000028806F0080059B8404FF63D69A041B0717001C
S315000028909387070123B0680123B458012338F11048
S315000028A02324E11093880801E35EECFC1306011073
S315000028B09385090013850B00EF800007E31205E6F8
S315000028C09B8404FF833701110327811093080118A5
S315000028D0E3CE9AFA930E0B009B061700B387970078
S315000028E023B0D80123B498002338F1102324D11043
S315000028F0130770006352D7BA1306011093850900B7
S3150000290013850B00EF804002E31C05E083370111BD
S315000029106FF08FB88325810E6350B05C03370102D8
S31500002920833681029B0A070063CCE6306356500368
S3150000293083268110B387570123B098011B861600A2
S3150000294023B458012338F1102324C11093067000D4
S3150000295093880801E3C4C66693C6FAFF03370102EB
S3150000296093D6F643B3FADA00BB0A5741634C504399
S315000029700337010293F60440338DEC00E3980622F8
S315000029808326810E0337810263C6E60013F6140020
S31500002990E30C066403360106033701059388080134
S315000029A023B8C8FE03268110B387E70023BCE8FEE0
S315000029B09B0516002338F1102324B110130670006E
S315000029C06354B6006F10C008033781023B06D74038
S315000029D03387EC003B07A741930606006354C70004
S315000029E0930607009B8A060063585003032781104D
S315000029F0B387570123B0A8019B06170023B45801DB
S31500002A002338F1102324D11013077000938808018E
S31500002A106354D7006F10000D13C7FAFF1357F7431F
S31500002A20B3FAEA00BB0A5641635050A737080100C3
S31500002A309306000103278110130B08A5130C000150
S31500002A40930D700063C856016F0040789B8A0AFF99
S31500002A50635E5C771B0717009387070123B0680145
S31500002A6023B488012338F1102324E1109388080148
S31500002A70E3DEEDFC130601109385090013850B00B8
S31500002A80EF70906AE31E05C8833701110327811092
S31500002A90930801186FF09FFB13F51400631805C621
S31500002AA023B4B800233881112324F11013077000D2
S31500002AB06340F71C1B062600938808026FF00FCFB1
S31500002AC06356A0CF130700016344A7016F10007D72
S31500002AD037080100130B08A5930C70006F00000166
S31500002AE01B0D0DFF6354A7179B861D00130C0C01CD
S31500002AF023B06A0123B4EA00233881119B8D0600B6
S31500002B002324D110938A0A01E3DCBCFD13060110CD
S31500002B109385090013850B00EF701061E31205C061
S31500002B20033C0111832D8110930A0118130700013C
S31500002B306FF01FFB93F70401639A070E93F70404E3
S31500002B4003AA06006380077E131A0A03135A0A03B0
S31500002B506FF0CFE093770C016392070C93770C0428
S31500002B6003AA0600638E077C131A0A03135A0A0384
S31500002B702334E100930710006FF00FD793F7040199
S31500002B80639A070A93F7040463840778039A060096
S31500002B9093070A0063DA07E09307D002A30FF10C4C
S31500002BA0330A40412334E100138C040093071000DC
S31500002BB06FF0CFD313F714006308078C6FF09F9262
S31500002BC093080B006FF08FDC93070003A30DF1163B
S31500002BD0930CB1176FF00FD483370100930C0400E8
S31500002BE02330F7006FF00F8F8337810023386101A0
S31500002BF0138BF700137B0BFF03350B0083358B001C
S31500002C0093070B012334F100EFC0900883380101CC
S31500002C102330A104130B05006FF04F9303BA06008F
S31500002C20930710002334E1006FF00FCC03BA0600BF
S31500002C306FF0CFD283B70600138A07006FF08FD6E6
S31500002C409B8A0600E34650CF6FF01FD11B861D00FE
S31500002C5013870A01330CAC0123B06A0123B4AA011D
S31500002C60233881112324C11093077000E3DCC73099
S31500002C70130601109385090013850B00EF70D04AE7
S31500002C80E31005AA03268110033C011193080119DC
S31500002C901B061600930A01186FF04FB1B707010023
S31500002CA09387078993080B00930680072334F10660
S31500002CB00336810093F7040213078600638A07141C
S31500002CC0033A060093F71400638E0700630C0A00AC
S31500002CD093E42400930700032300F10EA300D10E12
S31500002CE09B84040093F4F4BF1B8C04002334E1009E
S31500002CF0930720006FF04FBF93080B00138C04005E
S31500002D006FF0CFBC93E40420034E14009B840400B0
S31500002D10130414006FE01FE493080B006FF0CFC29A
S31500002D20B70701009387878A93080B0093068005EF
S31500002D302334F1066FF0DFF71306011093850900BF
S31500002D4013850B00EF70503EE31C059C8337011181
S31500002D50930801186FF04FFC93E40402034E14002D
S31500002D609B840400130414006FE0DFDE9307600009
S31500002D701B0A0D00E3E6A72737070100233461018C
S31500002D8023380100930A0A0093060000130D000081
S31500002D90233C01002338010223300102930C078CE7
S31500002DA06FE05FE1370801001306000183268110FA
S31500002DB0130B08A5930D0001130D7000634856010F
S31500002DC06F00805A9B8A0AFF63D05D5B9B86160064
S31500002DD09387070123B0680123B4B8012338F110A3
S31500002DE02324D11093880801E35EDDFC130601104D
S31500002DF09385090013850B00EF701033E3120592DB
S31500002E008337011183268110930801186FF09FFB09
S31500002E1093F7040163800738033A06006FF09FEAD0
S31500002E20130601109385090013850B00EF70D02F50
S31500002E30E318058E033C011183278110930A0118BC
S31500002E406FF04F8E930B0400938904006FF05F8D33
S31500002E50130601109385090013850B00EF70D02C23
S31500002E60E310058C033C0111832D8110930A011890
S31500002E706FF00F8E13770C40930AC117631607364F
S31500002E80938C0A009306A00093059000B377DA02AC
S31500002E90938CFCFF13060A001B0717009B8707038A
S31500002EA02380FC00335ADA02E3E2C5FE2334E10252
S31500002EB06FF0CFDB130601109385090013850B0015
S31500002EC0EF709026E31E05848346F10D83370111CA
S31500002ED0930801186FE01FD0832681103706010082
S31500002EE01306868C9B86160023B0C80093871700AE
S31500002EF01306100023B4C8002324D1101B86060035
S31500002F002338F1109306700093880801E3C4C608BD
S31500002F106390053A0337810293F61400B366D7002F
S31500002F20639406006FE05FD6032681100337010520
S31500002F3083360106B307F70023B0D8009B061600B8
S31500002F4023B4E8002338F1102324D11013067000AF
S31500002F50E34ED60E938808016F00C03883B98B0103
S31500002F606FE01FAA8335010423381101138505007C
S31500002F70EFC0003883380101630405006F10802715
S31500002F80930710066394FD006F10400E930710041C
S31500002F90E382FD3813F7FDFD9307F0FF233CE100C4
S31500002FA0E30CFD0C930770046314F7006F10001117
S31500002FB0833A010493E70410233891029B870700A4
S31500002FC0E3CE0A6893840700233C010623380100F8
S31500002FD00337810193076004E30CF7149307500449
S31500002FE0233011036314F7006F1040099307C10ED5
S31500002FF01307810E1308810F93060D001306200098
S3150000300093850A0013850B00EF10502903378101C1
S315000030109307700483380102930C05006304F700DC
S315000030206F10002F83370103330AA50193F71700AA
S31500003030E39207148337810FBB8797412334F1024C
S315000030400327810E930770042330E10203378101C1
S31500003050E306F70693076004E306F72483370102C5
S3150000306003378101930510049B87F7FF2324F10E94
S3150000307093F6FD0F130600006318B7009B86F60053
S3150000308093F6F60F130610002308D10E9306B0022E
S3150000309063DA070003370102930710009306D00294
S315000030A0BB87E740A308D10E9306900063C4F600E1
S315000030B06F1040161308F10F930508001305A000C2
S315000030C0930E30063BE7A70213860500938607009A
S315000030D09385F5FF1B070703A30FE6FEBBC7A702F1
S315000030E0E3C2DEFE9B860703A38FD5FE9307E6FFAA
S315000030F063E407016F1080229306210F03C70700C0
S315000031009387170093861600A38FE6FEE39807FFC2
S3150000311093071110B387C7401307210FB307F700B2
S315000031209306010FBB87D7402338F1060337810288
S3150000313093061000BB0AF70093870A0063C4E600F3
S315000031406F10C01003370105BB8AE7008337010300
S3150000315013CAFAFF135AFA4393F4F7BF9B84040089
S3150000316033FA4A0193E404101B0A0A00233C0100C7
S31500003170233801022330010283378107E39C0702CB
S315000031808346F10D130D0000639406006FE09FA2C5
S315000031906FE05FC593F70404032A0600638E071ADF
S315000031A0131A0A03135A0A036FF0DFB1130601104C
S315000031B09385090013850B00EF700077631205D61F
S315000031C083370111930801186FF00FB19B061700A2
S315000031D013870600B387570123B068016FE05FA924
S315000031E02334E1006FF04FDC93860A0013880A004F
S315000031F013060000938A09009304A00093090900AE
S315000032001307900013090400130BF00F0334810316
S315000032106F004001B3579A02E378474F138A0700BD
S3150000322093860C001B061600938CF6FFB3779A0262
S315000032309B870703A38FF6FE83470400E31CF6FC77
S31500003240E38A67FDE36E4743233C81022334C102D0
S315000032501304090093040C001389090093890A00DA
S31500003260BB0A98416FE01FEB13850C00233C110746
S31500003270EFE04FE39B0A05008346F10D13CAFAFF00
S31500003280135AFA432334610123380100233C010019
S31500003290233801022330010283388107337A5A0129
S315000032A0130D0000639406006FE0DF906FE09FB39C
S315000032B0032681100337010583360106938808012A
S315000032C0B307F70023B8D8FE9B06160023BCE8FE1A
S315000032D02338F1102324D110130670006348D65604
S315000032E0E3C20544033781021B86160023B098010A
S315000032F0B307F70023B4E8002338F1102324C110E4
S31500003300130770006344C7006FE0DF976FE05FCC80
S3150000331093F7042063860752038A060093070A0080
S315000033206FE05FE893F7042063860750137AFA0F7D
S315000033306FE0DFE237070100930C07876FE01FA8F5
S3150000334093770C20638E074C137AFA0F2334E1002F
S31500003350930710006FE05FD993F70420638C074A48
S31500003360137AFA0F6FF01F961B861600B387570164
S3150000337023B0680123B458012338F1102324C11067
S31500003380930670009388080163D4C6DE1306011005
S315000033909385090013850B00EF700059631205B879
S315000033A083370111930801186FF08FDC0337810210
S315000033B0033C0103370E01003387EC002330E102A2
S315000033C0233C81060337810113840B00930A7000A6
S315000033D0930B0D00930D0001138D0C00130B0EA51E
S315000033E0930C0A00130A0900138904009384090048
S315000033F063060C0C6316070C033781031307F7FFEC
S31500003400233CE1021B07FCFF2338E1020337810559
S31500003410833681049388080123B8E8FE03278110C8
S31500003420B387D70023BCD8FE1B0717002338F1103B
S315000034309B0607002324E11063CADA2803378103B9
S3150000344003460700033701023B0577412330E108B5
S315000034501B0706009B0607006354E5009B06050054
S31500003460635AD00203278110B387D70023B07801AF
S315000034701B06170023B4D8002338F1102324C110EB
S3150000348063C0CA2C033781039388080103460700EB
S315000034901B07060093C9F6FF93D9F943B3F6360125
S315000034A0BB09D7406340301BB38BCB0063040C02CF
S315000034B0033C010303378101E31E0CF26302073C60
S315000034C003378101233881031B07F7FF233CE10003
S315000034D06FF0DFF3938904009304090013090A00CF
S315000034E0138A0C00930C0D00138D0B00930B040034
S315000034F00334810737080100130B7000130C000119
S31500003500930D08A5938A090003368101E30C065240
S3150000351003378105833681049388080123B8E8FEC2
S3150000352003278110B387D70023BCD8FE1B071700DB
S315000035309B0607002324E1101B07F6FF2338F11032
S31500003540233CE1006344DB1A03378103034607008B
S31500003550033701023B05A7411B0706009B06070030
S315000035606354E5009B060500635AD00203278110C9
S31500003570B387D70023B0A8011B06170023B4D800D1
S315000035802338F1102324C1106342CB18033781037B
S3150000359093880801034607001B07060093C9F6FF38
S315000035A093D9F943B3F63601BB09D74063463001D8
S315000035B0330DCD006FF05FF50327811063483C01A2
S315000035C06F0040059B8909FF63563C051B071700E2
S315000035D09387070123B0B80123B488012338F1107B
S315000035E02324E11093880801E35EEBFC1306011027
S315000035F093850A0013850B00EF7000336318053CB2
S315000036009B8909FF8337011103278110930801184D
S31500003610E34E3CFB9B061700B387370123B0B80186
S3150000362023B438012338F1102324D1106344DB3A44
S31500003630033781039388080103460700330DCD0045
S315000036406FF09FEC0327811063C83D016F004005B2
S315000036509B8909FF63D63D051B0717009387070162
S3150000366023B0680123B4B8012338F1102324E110F4
S3150000367093880801E3DEEAFC130601109385040033
S3150000368013050400EF70402A631E05FA9B8909FFA3
S31500003690833701110327811093080118E3CE3DFB00
S315000036A09B061700B387370123B0680123B438019E
S315000036B02338F1102324D11063C4DA34033781038D
S315000036C093880801034607006FF01FDE13060110FA
S315000036D09385040013050400EF700025631405F6B6
S315000036E083370111930801186FF05FD51306011097
S315000036F093850A0013850B00EF7000236318052CD1
S3150000370083370111930801186FF01FE413060110A7
S3150000371093850A0013850B002338D102EF70C02071
S315000037206316052A8337810383360103930801183C
S3150000373003C60700833701111B0706006FF01FE65B
S315000037401306011093850400130504002338D10ADB
S31500003750EF70801D631805EE833781038336010BF6
S315000037609308011803C60700833701111B070600DB
S315000037706FF05FD29307D002A30FF10C9306D0022D
S315000037806FE08FE21B06160093080701930A0700F5
S315000037906FE0DF81130601109385090013850B0086
S315000037A0EF708018630405006FE09FF78325810E94
S315000037B083370111930801186FF08FF51306011076
S315000037C09385090013850B00EF700016630405004E
S315000037D06FE01FF583370111930801186FF0CF973B
S315000037E0130A60006FF04FD93B06D7403387EC00D1
S315000037F03B07A741930A06006350C7A29B0A07002E
S315000038006FF08FA183370100930C04002310F7009B
S315000038106FE04FCC131A0A02135A0A026FF08FCACE
S31500003820131A0A02135A0A022334E10093071000FE
S315000038306FE09F8B131A0A02135A0A026FE01F9257
S3150000384003AA060093070A006FE0DF95130601102E
S315000038509385090013850B00EF70000D63040500C6
S315000038606FE01FEC8325810E8337011183268110BB
S31500003870930801186FF0DFA6130D60006FF04FF389
S3150000388003378102938904009304090013090A008F
S31500003890138A0C00930C0D00138D0B00930B040080
S315000038A0033481073387EC002330E108033701082E
S315000038B06378A78D130D07006FF08F8C0337010215
S315000038C09307D0FF6344F700635AED009B8DEDFF2D
S315000038D093F7FDFD233CF1006FF04FF8833781022B
S315000038E06342F75E83370103930A070093F71700D5
S315000038F06386070083370105BB8AE7008337010328
S3150000390093F707406386070083370102E340F0041C
S3150000391013CAFAFF135AFA4333FA4A011B0A0A007A
S31500003920930D7006233C0100233801026FF0DF84FB
S315000039309307C10E93060D001308810F1307810E1E
S315000039401306300093850A0013850B0023301103FC
S31500003950EF10C01483460500930700038338010265
S31500003960930C05006382F60C8327810EB387A701AB
S31500003970338AFC009305000013850A0023301103E7
S31500003980EFA010728338010293070A00630605EA66
S315000039908337810F63F247EB130600031387170083
S315000039A0233CE10E2380C7008337810FE3E847FFFE
S315000039B06FF08FE89307D002A30FF10C9306D002A5
S315000039C0130D00001B0A1A006FE0CF9E93890A00B0
S315000039D06FE01FD51306011093850A0013850B00AF
S315000039E0EF609074E31405FE833781039308011892
S315000039F003C6070083370111330DCD006FF0DFB02A
S31500003A00130601109385040013050400EF60D071BE
S31500003A10631A05C2833781039308011803C607009A
S31500003A20833701116FF05FA89305000013850A0024
S31500003A3023301103EFA0D06683380102E30605F2B6
S31500003A4093061000BB87A6412324F10E6FF01FF2E8
S31500003A50130601109385090013850B00EF60D06CE7
S31500003A60630405006FE0DFCB8326810E83370111E7
S31500003A70930801186FE05FF58346F10D2334610169
S31500003A80233C01002338010223300102130A0D00F2
S31500003A90930A0D00130D0000639406006FE08F91EA
S31500003AA06FE04FB4833701030337010293F7170022
S31500003AB0B367FD006356E07A63900768930A0700D0
S31500003AC0930D60068337010393F7074063920768F7
S31500003AD013CAFAFF135AFA4333FA4A011B0A0A00B9
S31500003AE06FF05FE4130601109385090013850B0040
S31500003AF0EF609063630405006FE09FC20326810EAA
S31500003B000337810283370111930801183B06C7402A
S31500003B106FE09FF0930700032300F10E1307800563
S31500003B2093E724009B870700A300E10E9306300667
S31500003B302338F10223380100930C811163C2A65188
S31500003B4093F7FDFD233CF1008337010493E4241031
S31500003B50233C01069B840400938A070063C4073054
S31500003B60930710066388FD58930710046392FDC6F9
S31500003B709305810E13850A0023301103EF6050115F
S31500003B8083358109EFA0D06E93050000130C050064
S31500003B90EFA0105183380102631605009307100049
S31500003BA02324F10EB70A010093878A8A2330F10293
S31500003BB093170D0293D7070293871700B387FC006C
S31500003BC03B87AC01233081082338910A233C210B23
S31500003BD0130A0C0003340102138B0C002330110D61
S31500003BE0938407002334710D138C09001309070011
S31500003BF06F00000193050000EFA0904A6308054C92
S31500003C008335810813050A00EFA090669309050025
S31500003C10EFB0C0729B0B050013850B00EFB0407828
S31500003C209305050013850900EFB0C01FB3067401A4
S31500003C3083C6060093090B00130B1B00A30FDBFEC4
S31500003C40130A0500BB0A6941E3169BFA138A0B00A7
S31500003C50033401088334010B0339810B8338010CCB
S31500003C60833B810C23343103930AF0FF93090C0044
S31500003C70130C05008335010A13050C0023301109C6
S31500003C80EFA0904883380108634CA0348335010ABD
S31500003C9013050C00EFA0D040833801086316050019
S31500003CA0137A1A00631E0A321B85FAFF63C20A1AC8
S31500003CB0330660411376760013087600130FB000C2
S31500003CC09B8E0A009B851A006374E8011308B000F6
S31500003CD063EC0E63630606628337810213080003F2
S31500003CE023000B01930E1000138C27001B85EAFF9F
S31500003CF0630AD607A3000B01930E2000130C2B00BA
S31500003D001B85DAFF6300D60723010B01930E3000F3
S31500003D10130C3B001B85CAFF6306D605A3010B01E6
S31500003D20930E4000130C4B001B85BAFF630CD603A1
S31500003D3023020B01930E5000130C5B001B85AAFF98
S31500003D406302D603A3020B01930E7000130C6B00E3
S31500003D501B859AFF6318D601130C7B0023030B0106
S31500003D601B858AFFBB85C5401BD835003306CB00B3
S31500003D70131838009B8E05003308C8008337810A64
S31500003D8013068600233CF6FEE31A06FF93F585FF2D
S31500003D909B85050013960502135606023306CC00D2
S31500003DA03B05B5406382D50B930500032300B6009F
S31500003DB0634C0508A300B6006358A0082301B600AB
S31500003DC0130810006352A808A301B60013082000C8
S31500003DD0635CA8062302B600130830006356A806E3
S31500003DE0A302B600130840006350A8062303B600DA
S31500003DF013085000635AA804A303B6001308600012
S31500003E006354A8042304B60013087000635EA80276
S31500003E10A304B6009305800063D8A50293050003AA
S31500003E202305B600130890006350A802A305B60048
S31500003E301308A000635AA8002306B6001308B000B2
S31500003E406354A800A306B6009B861A00330BDB005A
S31500003E50BB079B412334F1026FF08F9E233801008C
S31500003E609384070083370104930AF0FF939AFA03B9
S31500003E70B3CA57019307D002233CF1066FF05FCE19
S31500003E808337810483358105233C0101B38CFC40D3
S31500003E901386070013850C0023381101EF60900785
S31500003EA083461400B3579A0283380101B336D00013
S31500003EB003388101130600003304D4001307900071
S31500003EC06FF0CFB51387070083370105930D700692
S31500003ED0BB8AE70003370102E346E0BEBB87EA4040
S31500003EE09B8717009B8A070013CAFAFF135AFA43E7
S31500003EF0B3F747011B8A07006FF0DFA29307F0FFB5
S31500003F002330F1006FE0DF83233C81022334C102BA
S31500003F10130409001389090093890A00930A08000B
S31500003F206FE0CFD437080100130600FFBB0AB0408C
S31500003F30130B08A5130C0001930D700063C8C50090
S31500003F406F0040059B8A0AFF63565C059B86160038
S31500003F509387070123B0680123B488012338F11041
S31500003F602324D11093880801E3DEDDFC130601103B
S31500003F709385090013850B00EF60101B6304050091
S31500003F806FE00FFA83370111832681109308011819
S31500003F906FF05FFB9B861600B387570123B068015D
S31500003FA023B458012338F1102324D11013067000CE
S31500003FB06344D6006FE01FFA1306011093850900CB
S31500003FC013850B00EF605016630405006FE04FF594
S31500003FD08337011183268110930801186FF08FB083
S31500003FE08337810293060B00233CF10E83370102CF
S31500003FF00346FBFF83C5F7006390C5021305000364
S31500004000A38FA6FE8336810F9387F6FF233CF10E1E
S3150000401003C6F6FFE386C5FE9B051600130590034F
S3150000402093F5F50F6306A600A38FB6FE6FF05FE269
S315000040308337010283C5A700A38FB6FE6FF05FE149
S315000040409B051D0013850B0023381101EF30802DD1
S3150000405083380101930C0500630C05282338A10061
S315000040606FF01FAE138C04006FE08FF4930700030C
S315000040702300F10E130780076FF09FAA1B0A1D008D
S3150000408093060A001308810F9307C10E1307810ECA
S315000040901306200093850A0013850B00EF001020FD
S315000040A0930C050083380102338A4C016FF09F8C14
S315000040B02320F700930C04006FD0DFC163040D00CA
S315000040C06FE01FEF130D10006FE09FEE23343103F6
S315000040D00334010893090C008334010B130C0A0006
S315000040E00339810B138A0B008338010C833B810C47
S315000040F06FF05FB89305810E13850A002330110314
S31500004100EF60003983358109EFA090169305000012
S31500004110130C0500EFA0C078833801026316050072
S31500004120930710002324F10EB70A010093870A892A
S315000041302330F1026FF0DFA783370105930D600688
S31500004140BB8AE700BB8AAA016FF0DF97930D700662
S31500004150033781039306F00F233C010083470700D2
S31500004160233801026380D704930607000337010250
S315000041701306F00F9B85070063D2E70283C716007C
S315000041803B07B7406388070483350103938616000F
S315000041909B8515002338B102E39EC7FC233CD10260
S315000041A02330E1020337810183370103BB87E70030
S315000041B003378104BB87E702BB8757019B8A070049
S315000041C013CAFAFF135AFA43B3F747011B8A0700CB
S315000041D06FE09FFA8335810183C706009B85150032
S315000041E0233CB100E398C7F86FF05FFB2334E1008E
S315000041F06FE00FDC8337010463C0070C8346F10DC3
S315000042009307700463D4B70B37070100930C8788B4
S315000042106FD0DFBA9306210F6318060093060003DA
S315000042202309D10E9306310F130701209B8707033D
S315000042303386E6402380F6009B0716112338F106E5
S315000042406FE0DFEE93890A006FF04FE60337010354
S3150000425093761700639406006FE05FEF6FE09FEEC2
S31500004260639A0700130A1000930D6006930A100064
S315000042706FF04FEB83370105930D60069B871700A0
S315000042803B83A7019B0A030013CAFAFF135AFA439A
S31500004290337343011B0A03006FF0CFE837080100B0
S315000042A013870800130B08A56FE0DF9A3707010094
S315000042B0930C07886FD09FB09307D002A30FF10C21
S315000042C09306D0026FF0DFF38336810003A7060062
S315000042D0938686001B0D070063540700130DF0FF3D
S315000042E0034E14002334D100138407006FD09F8639
S315000042F083D7090193E707042398F9006FE04FC3BA
S31500004300130C0B006FF01FA613060B006FF0DFA94E
S31500004310130A0D00338A4C016FF0CFE59307200096
S315000043202338F1066FE09FE09307050003B581315E
S315000043309306060013860500938507006FD00FE3EA
S3150000434083D7050103AE850A03D3250183B8850308
S3150000435003B88504130101B393F7D7FF1307004091
S315000043602330814C2318F100138405009307010BB9
S3150000437093050100233C914A2338214B2334114CE9
S31500004380130905002324C10B23196100233C1103E3
S31500004390233401052330F100233CF1002326E100FC
S315000043A02320E10223240102EFD04FDC9304050011
S315000043B0635C05028357010193F7070463880700CE
S315000043C08357040193E707042318F4008330814CD4
S315000043D00334014C0339014B138504008334814BAC
S315000043E01301014D678000009305010013050900C4
S315000043F0EF109050E30005FC9304F0FF6FF09FFB75
S31500004400130101FE2334910083B4813123388100E6
S3150000441023302101233C11001309050013840500F4
S315000044206386040083A70403638E0706B7070100AB
S31500004430938707B66302F408B7070100938787B22C
S31500004440630EF410B7070100938707AF6306F414F1
S3150000445003170401931707039376870093D707037F
S3150000446063880606833684016388060813F61700F8
S31500004470630C060A03260402232604001305000023
S315000044803B06C0402324C402638E060A83308101A2
S315000044900334010183348100033901001301010251
S315000044A06780000013850400EF200013B7070100A2
S315000044B0938707B6E312F4F803B4840003170401E4
S315000044C0931707039376870093D70703E39C06F8B1
S315000044D093F607016386060C93F747006394070873
S315000044E08336840113678700931707032318E400B4
S315000044F093D70703E39C06F613F6072893050020D7
S31500004500E306B6F69305040013050900EF20D0393B
S3150000451003170401833684019317070393D7070310
S3150000452013F61700E31806F413F6270093050000A8
S3150000453063140600832504022326B4001305000035
S31500004540E39606F493F70708E38207F41367070474
S315000045502318E4001305F0FF6FF05FF303B40401C2
S315000045606FF01FEF83350406638E05009307C407BB
S315000045706388F50013050900EF20C01A031704012C
S3150000458023300406833684011377B7FD2324040001
S315000045902330D4006FF01FF503B484016FF05FEB96
S315000045A0930790002320F900136707042318E400FB
S315000045B01305F0FF6FF09FED83B78138638407061C
S315000045C003A787001308F0016344E80A630C050299
S315000045D003B80711630E080893183700B3081801CB
S315000045E023B0C80003230820130610003B16E6007C
S315000045F03363C3002320682023B0D810930620001D
S315000046006302D50493062700939636001B0717000E
S3150000461023A4E700B387D70023B0B7001305000033
S31500004620678000009388016823B4113913070000DE
S3150000463093870168E30607F80337000023B8E710FD
S315000046406FF01FF8832648201305000033E6C600E6
S31500004650930627002322C8201B07170093963600CF
S3150000466023A4E700B387D70023B0B7006780000014
S315000046701305F0FF67800000130101FA233451038C
S315000046802330210503B98138233C110423388104E2
S3150000469023349104233C310323384103233061033F
S315000046A0233C710123388101233491012330A10178
S315000046B0630A090A930B0500138A0500130B100001
S315000046C0130DF0FF83248900033C09111B84F4FFBA
S315000046D0634A040863040A0E63060C0893943400C4
S315000046E0B3099C00B30499006F0040011B04F4FF5A
S315000046F0938989FF938484FF6306A40783B7890F90
S31500004700E316FAFE832C890003B784009B87FCFF1F
S31500004710638A870823B40400E30A07FC83270C2076
S31500004720BB168B00B3F7D7009B8707006388070685
S3150000473083274C2083B589FFB3F7D7009B870700F3
S315000047406388070613850500E7000700032789002D
S3150000475083B7813863149701E30AF9F813890700D0
S31500004760E39207F68330810503340105833481041F
S315000047700339010483398103033A0103833A810231
S31500004780033B0102833B8101033C0101833C810021
S31500004790033D01001301010667800000E7000700E2
S315000047A06FF0DFFA23248900930C04006FF0DFF624
S315000047B013850B00E70007006FF05FF963020C0A30
S315000047C0939C3400B30999011B87F4FF83B78900D2
S315000047D0B30C9C016306870623B4090063820704B1
S315000047E003270C20BB168B003377D7001B07070067
S315000047F0630E070403274C2083B58CFF3377D7005D
S315000048001B0707006318070413850B00E7800700E2
S315000048100327890083B78138E31297F4E310F9F48C
S315000048201B04F4FF938989FF938C8CFFE30CA4F39C
S315000048308324890083B789001B87F4FFE31E87F86A
S3150000484023248900930404006FF05FF9E7800700D2
S315000048506FF01FFC13850500E78007006FF05FFB14
S3150000486093993400B30939016F00000323B409009A
S315000048701B04F4FF638C0700E78007000327890009
S3150000488083B78138E31C97ECE39A27ED938989FF78
S31500004890E30AA4ED832489001B87F4FF83B789000C
S315000048A0E31687FC23248900930404006FF05FFC61
S315000048B0130101FC233491028327450183A445019A
S315000048C0233C11022338810223302103233C31018A
S315000048D023384101233451012330610163CC971AF7
S315000048E09B84F4FF1393240013848501B3096400A9
S315000048F0130A850103AB090033036A00832703000B
S315000049001B071B00930A05003BD9E702130B09009E
S3150000491063EAE70A370501009308040013080A0052
S31500004920930E0000130700001305F5FF83A6080089
S31500004930032E080013084800B3F7A600BB87270319
S315000049401BD60601B376AE001B5E0E0193884800A7
S315000049503B062603BB87D7011BDF0701B377F500AC
S31500004960BB07F740BB86D7009BDE0641B3F6A60021
S315000049703B06E6013377C5003B07EE403B07D70110
S315000049809B170701B3E6F600232ED8FE9B5E0601B1
S315000049901B570741E3FC19F98327030063940702B9
S315000049A01303C3FF63686A006F0080019B84F4FFF2
S315000049B063786A00832703001303C3FFE38807FEB7
S315000049C023AA9A0013850A00EF40005F634E05088C
S315000049D0370501001B091B0093050A009307000019
S315000049E01305F5FF0326040003A70500938545007C
S315000049F0B376A600BB87D740B376A700BB87D700A0
S31500004A001B5606019B560701BB86C6401BD70741AE
S31500004A10BB86E6001B8707003377A7009B97060136
S31500004A203367F7001304440023AEE5FE9BD7064127
S31500004A30E3FA89FA93972400B307FA0003A707005D
S31500004A40631407029387C7FF6368FA006F0080014B
S31500004A509B84F4FF6378FA0003A707009387C7FFD8
S31500004A60E30807FE23AA9A001B0509008330810389
S31500004A70033401038334810203390102833981013E
S31500004A80033A0101833A8100033B0100130101044B
S31500004A9067800000130500006FF05FFD8338050492
S31500004AA0130101EF23308110233C910E2338210F8F
S31500004AB02330410F2338610D233411102334310F75
S31500004AC0233C510D2334710D2330810D233C910B72
S31500004AD02338A10B2334B10B2334D102233CE1004C
S31500004AE02334010113040500138B0500130A060085
S31500004AF09384070013890500E388082283B508001C
S31500004B006388050203A7880093061000BB96E6009B
S31500004B101317070293960602135707023367D70047
S31500004B2023B4E500EF30006E8337040423B007009A
S31500004B30135C0B4293090B001307000063540B022E
S31500004B401309F0FF13151C02135909029357150098
S31500004B50337969013369F900135C15029309090079
S31500004B6013071000B707F07F23A0E400B377FC001B
S31500004B703707F07F6384E74C93050000138509002F
S31500004B80EF90105263160506033781019307100054
S31500004B902320F70003378100E308071CB70701004D
S31500004BA09387978CB70A01002330F700938A8A8C83
S31500004BB083308110033401108334810F0339010FD0
S31500004BC08339810E033A010E033B010D833B810CB1
S31500004BD0033C010C833C810B033D010B833D810AA1
S31500004BE013850A00833A810D1301011167800000C5
S31500004BF0930681091306C10993850900130504006C
S31500004C00EF4090099B574C01930405009B5A4C01B9
S31500004C1063940746832B8109832AC109130700027F
S31500004C209B050B00BB8A7A019B862A43E356D71C59
S31500004C30130500043B05D5409B872A413B15AC0074
S31500004C40BBD5F500B365B5001B850500EFA0C07D9B
S31500004C5093570502370710FE3B07F7009307F0FF4F
S31500004C6093D7070233F5A70013170702930710001F
S31500004C703365E5009B8AFAFF2338F10483B5812961
S31500004C80EFA0401A83B5012AEF90905E83B5812A82
S31500004C90EF90C032130B050013850A00EFA0407099
S31500004CA083B5012BEF90D05C9305050013050B002F
S31500004CB0EF90C030130C0500EFA040681B0B0500F9
S31500004CC09305000013050C00EF90504FE3400508D4
S31500004CD0BB8A5B41930760019B8BFAFFE3E06705A4
S31500004CE03707010093173B00130707BFB307F70009
S31500004CF003B5070093850900EF9010416358A03A69
S31500004D001B0BFBFF233001042330010263C60B3A61
S31500004D10635E0B3A833701022338610103350404CD
S31500004D20BB8767412330F102BB076041233CF10298
S31500004D3093079000130B000063E6473B9307500070
S31500004D40130C100063D647011B0ACAFF130C0000A0
S31500004D5093074000E30EFA3A93075000E304FA2A59
S31500004D60930720006314FA78233801020336810280
S31500004D70E35EC02A233CC104930C060023240500ED
S31500004D809307F00163C4C7006F10400A13071000B1
S31500004D90930740009B9717009386C7019B05070062
S31500004DA01B071700E378D6FE2324B500130504007D
S31500004DB0EF300035930A0500631405006F1080027A
S31500004DC0033704049B870C00938607002334F10401
S31500004DD02330A7009307E00063EED734630C0C344E
S31500004DE083360101E354D04013F7F600B7070100FC
S31500004DF0131737001BDC4640938707BFB387E700CE
S31500004E0093760C0183BD0700E38E062EB7070100DB
S31500004E1083B507D013850900137CFC00EF9000656D
S31500004E202330A10613093000630A0C02B7070100FC
S31500004E30138D07CE13850D0093771C00638807003A
S31500004E4083350D001B091900EF909042135C1C403E
S31500004E50130D8D00E3120CFE930D050003350106BC
S31500004E6093850D00EF908060130C050083370104D5
S31500004E70638C070083B5812B13050C00EF9010346B
S31500004E80635405006F00906513050900EFA04051BB
S31500004E9093050C00EF90D03D83B5812C3709C0FCFB
S31500004EA0EF90C011935705023B09F90093170902C9
S31500004EB01309F0FF135909023379A9003369F90080
S31500004EC0E38A0C288337010123389107233CF10636
S31500004ED013050C00EFA08046833701071B87F7FFF9
S31500004EE0B707010093163700938707BF1B07050313
S31500004EF0B387D7001B05050003BD0700937DF70F99
S31500004F00EFA0004A9305050013050C00EF90907181
S31500004F108337010313861A00130C0500E380074844
S31500004F2003B5012893050D002330C106EF90005408
S31500004F3093050900EF90106F93050C002380BA01CA
S31500004F4013090500EF90501C033601066354A000B8
S31500004F506F00106883B7812B130D0600130610002F
S31500004F602330F10683B7012C2330610923347109FC
S31500004F702334F106BB07A641033B0107938B0700C9
S31500004F806F00C006BB87AB0163D0671B833D8106FC
S31500004F9013050900130D1D0093850D00EF90502D8C
S31500004FA093850D001309050013050C00EF90502C96
S31500004FB0130C0500EFA08038930D05001B050500B6
S31500004FC0EFA0003E930505009B8D0D0313050C0015
S31500004FD0EF90506593FDFD0FA30FBDFF93050900EC
S31500004FE0130C0500EF90901DE34C055A033501069E
S31500004FF093050C00EF90106393050900EF90101CC9
S31500005000E35205F8833781079B8717002338F100A1
S31500005010130690036F000001E386565383CDF6FF17
S31500005020138D06009306FDFFE388CDFE1B871D004A
S315000050301377F70F2380E6006F008048033781015E
S31500005040B72700009387F7702320F7009399C900CC
S31500005050638E090A83378100B70A0100938A0AA77B
S31500005060E38807B4B7070100938737A703378100A2
S315000050702330F7006FF0DFB31395C900B707F03F91
S315000050801355C5023365F500931705021305F0FFA6
S315000050901355050233753501832B81093365F500F8
S315000050A09B8A1AC0233801046FF05FBD23300104C8
S315000050B02330010263DC0B0093071000BB875741C6
S315000050C02330F102930B0000E3460BC42338610141
S315000050D0233C01029307900003350404BB0B7B01BC
S315000050E0E3FE47C593071000130C1000130A0000D7
S315000050F02338F102930CF0FF233401022324050028
S31500005100233C9105930500006FF05FCA8337810049
S31500005110B70A0100938A0AA6E38C07A8B70701001D
S31500005120938787A66FF09FF4033B0108833B8108B2
S31500005130138909008327C10963CE0712833601014B
S315000051401307E0006348D71237070100939736002C
S31500005150130707BFB307F70083B907008337810238
S3150000516063DE0702634C9003E3900C0283B5012DC6
S3150000517013850900130C0000EF90900F93050900AA
S31500005180EF908078930900006346057083378102AB
S31500005190138D0A0013C9F7FF6F000071938509008C
S315000051A013050900EF90802CEFA040191B0C050099
S315000051B013050C00EFA0C01E93850900EF90500B5D
S315000051C09305050013050900EF90D0451B070C0356
S315000051D0937DF70F2380BA0193071000938B1A0073
S315000051E0E388FC0E8337810403BA012C9B87E7FF13
S315000051F09397070293D7070293872700338DFA0008
S315000052006F0080049385090013050B00EF900026BC
S31500005210EFA0C0121B0C050013050C00EFA04018F0
S3150000522093850900EF90D0041B090C039305050034
S31500005230938B1B0013050B00937DF90FEF90903EA7
S31500005240A38FBBFFE388AB0993050A00EF905002DA
S3150000525093050000130B0500EF908064E31405FA34
S3150000526083370101138D0B009B8717002338F1004C
S315000052706F00002503370103630E072E1307100086
S31500005280635A4771033781039B87FCFF6358F766B0
S315000052903B8CE7403B0B6C01233CF102130C0000F6
S315000052A083370102E3C40C0C938D0700BB8797017B
S315000052B0BB8B9B012330F1029305100013050400FC
S315000052C0EF30C040930905006352B003635070038A
S315000052D093870D0063C8BB5F03370102BB8DFD409A
S315000052E0BB8BFB403B07F7402330E102833781034A
S315000052F0638A070483370103638E076C635E80034A
S315000053009385090013060C0013050400EF30007A9C
S315000053101386040093050500930905001305040090
S31500005320EF30404B130D0500938504001305040070
S31500005330EF20506D93040D00833781033B86874130
S31500005340E31C06009305100013050400EF30003837
S31500005350130C0500634A602B93071000130D000021
S3150000536063D8474B9307100063100B2CBB8777015C
S3150000537093F7F701638E0726130700023B07F740F2
S3150000538093064000E3DEE6261307C001BB07F7409D
S3150000539003370102BB8DFD00BB8BFB003B07F7000B
S315000053A02330E10283370102634EF01C635C700117
S315000053B093050C0013860B0013050400EF30100D47
S315000053C0130C050083370104639A071C635E903F44
S315000053D0833701036390072A833701019B871700F0
S315000053E02338F100130A100013890A003B0A5A41B8
S315000053F06F00000293850400930600001306A000C8
S3150000540013050400EF20D069930405001309190061
S3150000541093050C0013850400EFF08FC99B0D05035F
S315000054202300B901BB072A01E3C697FD130B100041
S31500005430635A90011B8BFCFF131B0B02135B0B02C1
S31500005440130B1B00338B6A011309000093850400BC
S315000054501306100013050400EF30500393050C00EB
S3150000546093040500EF305035635AA03C9306900331
S315000054706F00800063846A550347FBFF130D0B0022
S31500005480130BFBFFE308D7FE1B0717002300EB00F7
S3150000549093050C0013050400EF20D0566382090221
S315000054A0630A09006308390193050900130504001E
S315000054B0EF2050559385090013050400EF20905402
S315000054C09385040013050400EF20D0538337810130
S315000054D00337010123000D0023A0E7008337810075
S315000054E0638807EC23B0A7016FF08FEC93073000B9
S315000054F023380102E310FA148337810203370101CE
S31500005500BB87E7009B8C1700233CF10413860C0035
